{
  "_format": "hh-sol-artifact-1",
  "contractName": "MarketPlaceContract",
  "sourceName": "contracts/MarketPlaceContract.sol",
  "abi": [
    {
      "inputs": [],
      "stateMutability": "nonpayable",
      "type": "constructor"
    },
    {
      "anonymous": false,
      "inputs": [
        {
          "indexed": false,
          "internalType": "uint256",
          "name": "id",
          "type": "uint256"
        },
        {
          "indexed": false,
          "internalType": "address",
          "name": "owner",
          "type": "address"
        },
        {
          "indexed": false,
          "internalType": "uint256",
          "name": "minAmt",
          "type": "uint256"
        },
        {
          "indexed": false,
          "internalType": "uint256",
          "name": "maxAmt",
          "type": "uint256"
        }
      ],
      "name": "QuizCreated",
      "type": "event"
    },
    {
      "anonymous": false,
      "inputs": [
        {
          "indexed": false,
          "internalType": "uint256",
          "name": "id",
          "type": "uint256"
        },
        {
          "indexed": false,
          "internalType": "address",
          "name": "owner",
          "type": "address"
        },
        {
          "indexed": false,
          "internalType": "uint256",
          "name": "totalAmt",
          "type": "uint256"
        }
      ],
      "name": "QuizEnded",
      "type": "event"
    },
    {
      "anonymous": false,
      "inputs": [
        {
          "indexed": false,
          "internalType": "uint256",
          "name": "id",
          "type": "uint256"
        },
        {
          "indexed": false,
          "internalType": "address",
          "name": "owner",
          "type": "address"
        },
        {
          "indexed": false,
          "internalType": "uint256",
          "name": "amt",
          "type": "uint256"
        },
        {
          "indexed": false,
          "internalType": "uint256",
          "name": "quizId",
          "type": "uint256"
        }
      ],
      "name": "TicketBought",
      "type": "event"
    },
    {
      "anonymous": false,
      "inputs": [
        {
          "indexed": false,
          "internalType": "address",
          "name": "owner",
          "type": "address"
        },
        {
          "indexed": false,
          "internalType": "uint256",
          "name": "amt",
          "type": "uint256"
        }
      ],
      "name": "Withdrawn",
      "type": "event"
    },
    {
      "inputs": [
        {
          "internalType": "uint256",
          "name": "_QuizId",
          "type": "uint256"
        }
      ],
      "name": "appvoreRequest",
      "outputs": [],
      "stateMutability": "nonpayable",
      "type": "function"
    },
    {
      "inputs": [
        {
          "internalType": "uint256",
          "name": "_QuizId",
          "type": "uint256"
        },
        {
          "internalType": "uint256",
          "name": "betIndex",
          "type": "uint256"
        }
      ],
      "name": "buyTicket",
      "outputs": [
        {
          "internalType": "uint256",
          "name": "",
          "type": "uint256"
        }
      ],
      "stateMutability": "payable",
      "type": "function"
    },
    {
      "inputs": [
        {
          "internalType": "address",
          "name": "",
          "type": "address"
        }
      ],
      "name": "buyerMap",
      "outputs": [
        {
          "internalType": "uint256",
          "name": "id",
          "type": "uint256"
        },
        {
          "internalType": "address",
          "name": "walletAdd",
          "type": "address"
        },
        {
          "internalType": "uint256",
          "name": "totalAmt",
          "type": "uint256"
        }
      ],
      "stateMutability": "view",
      "type": "function"
    },
    {
      "inputs": [
        {
          "internalType": "uint256",
          "name": "_minAmt",
          "type": "uint256"
        },
        {
          "internalType": "uint256",
          "name": "_maxAmt",
          "type": "uint256"
        },
        {
          "internalType": "uint256",
          "name": "_id",
          "type": "uint256"
        },
        {
          "internalType": "uint256",
          "name": "_numOfoptions",
          "type": "uint256"
        }
      ],
      "name": "createQuiz",
      "outputs": [],
      "stateMutability": "nonpayable",
      "type": "function"
    },
    {
      "inputs": [
        {
          "internalType": "uint256",
          "name": "_QuizId",
          "type": "uint256"
        },
        {
          "internalType": "uint256",
          "name": "_WinningInd",
          "type": "uint256"
        }
      ],
      "name": "endQuiz",
      "outputs": [],
      "stateMutability": "nonpayable",
      "type": "function"
    },
    {
      "inputs": [],
      "name": "getAdmin",
      "outputs": [
        {
          "internalType": "address",
          "name": "",
          "type": "address"
        }
      ],
      "stateMutability": "view",
      "type": "function"
    },
    {
      "inputs": [
        {
          "internalType": "address",
          "name": "_walletAdd",
          "type": "address"
        }
      ],
      "name": "getBuyer",
      "outputs": [
        {
          "components": [
            {
              "internalType": "uint256",
              "name": "id",
              "type": "uint256"
            },
            {
              "internalType": "address",
              "name": "walletAdd",
              "type": "address"
            },
            {
              "internalType": "uint256[]",
              "name": "tickets",
              "type": "uint256[]"
            },
            {
              "internalType": "uint256",
              "name": "totalAmt",
              "type": "uint256"
            }
          ],
          "internalType": "struct MarketPlaceContract.Buyer",
          "name": "",
          "type": "tuple"
        }
      ],
      "stateMutability": "view",
      "type": "function"
    },
    {
      "inputs": [],
      "name": "getContractBalance",
      "outputs": [
        {
          "internalType": "uint256",
          "name": "",
          "type": "uint256"
        }
      ],
      "stateMutability": "view",
      "type": "function"
    },
    {
      "inputs": [
        {
          "internalType": "uint256",
          "name": "_QuizId",
          "type": "uint256"
        },
        {
          "internalType": "uint8",
          "name": "_betIndex",
          "type": "uint8"
        },
        {
          "internalType": "uint256",
          "name": "_amt",
          "type": "uint256"
        }
      ],
      "name": "getPredictedWinAmount",
      "outputs": [
        {
          "internalType": "uint256",
          "name": "",
          "type": "uint256"
        }
      ],
      "stateMutability": "view",
      "type": "function"
    },
    {
      "inputs": [],
      "name": "getProfit",
      "outputs": [
        {
          "internalType": "uint256",
          "name": "",
          "type": "uint256"
        }
      ],
      "stateMutability": "view",
      "type": "function"
    },
    {
      "inputs": [
        {
          "internalType": "uint256",
          "name": "_id",
          "type": "uint256"
        }
      ],
      "name": "getQuiz",
      "outputs": [
        {
          "components": [
            {
              "internalType": "uint256",
              "name": "id",
              "type": "uint256"
            },
            {
              "internalType": "address",
              "name": "owner",
              "type": "address"
            },
            {
              "internalType": "uint256",
              "name": "minAmt",
              "type": "uint256"
            },
            {
              "internalType": "uint256",
              "name": "maxAmt",
              "type": "uint256"
            },
            {
              "internalType": "uint256",
              "name": "totalAmt",
              "type": "uint256"
            },
            {
              "internalType": "uint256[]",
              "name": "options",
              "type": "uint256[]"
            },
            {
              "internalType": "uint256[]",
              "name": "tickets",
              "type": "uint256[]"
            },
            {
              "internalType": "bool",
              "name": "isEnded",
              "type": "bool"
            },
            {
              "internalType": "bool",
              "name": "isApproved",
              "type": "bool"
            }
          ],
          "internalType": "struct MarketPlaceContract.Quiz",
          "name": "",
          "type": "tuple"
        }
      ],
      "stateMutability": "view",
      "type": "function"
    },
    {
      "inputs": [
        {
          "internalType": "address",
          "name": "_walletAdd",
          "type": "address"
        }
      ],
      "name": "getSeller",
      "outputs": [
        {
          "components": [
            {
              "internalType": "uint256",
              "name": "id",
              "type": "uint256"
            },
            {
              "internalType": "address",
              "name": "walletAdd",
              "type": "address"
            },
            {
              "internalType": "uint256[]",
              "name": "quizzes",
              "type": "uint256[]"
            },
            {
              "internalType": "uint256",
              "name": "totalAmt",
              "type": "uint256"
            }
          ],
          "internalType": "struct MarketPlaceContract.Seller",
          "name": "",
          "type": "tuple"
        }
      ],
      "stateMutability": "view",
      "type": "function"
    },
    {
      "inputs": [
        {
          "internalType": "uint256",
          "name": "_id",
          "type": "uint256"
        }
      ],
      "name": "getTicket",
      "outputs": [
        {
          "components": [
            {
              "internalType": "uint256",
              "name": "id",
              "type": "uint256"
            },
            {
              "internalType": "address",
              "name": "owner",
              "type": "address"
            },
            {
              "internalType": "uint256",
              "name": "amt",
              "type": "uint256"
            },
            {
              "internalType": "uint256",
              "name": "quizId",
              "type": "uint256"
            },
            {
              "internalType": "uint256",
              "name": "betIndex",
              "type": "uint256"
            },
            {
              "internalType": "bool",
              "name": "isWithdrawn",
              "type": "bool"
            },
            {
              "internalType": "uint256",
              "name": "winAmt",
              "type": "uint256"
            }
          ],
          "internalType": "struct MarketPlaceContract.Ticket",
          "name": "",
          "type": "tuple"
        }
      ],
      "stateMutability": "view",
      "type": "function"
    },
    {
      "inputs": [
        {
          "internalType": "address",
          "name": "_walletAdd",
          "type": "address"
        },
        {
          "internalType": "bool",
          "name": "isBuyer",
          "type": "bool"
        }
      ],
      "name": "login",
      "outputs": [
        {
          "internalType": "address",
          "name": "",
          "type": "address"
        }
      ],
      "stateMutability": "view",
      "type": "function"
    },
    {
      "inputs": [
        {
          "internalType": "uint256",
          "name": "",
          "type": "uint256"
        }
      ],
      "name": "quizMap",
      "outputs": [
        {
          "internalType": "uint256",
          "name": "id",
          "type": "uint256"
        },
        {
          "internalType": "address",
          "name": "owner",
          "type": "address"
        },
        {
          "internalType": "uint256",
          "name": "minAmt",
          "type": "uint256"
        },
        {
          "internalType": "uint256",
          "name": "maxAmt",
          "type": "uint256"
        },
        {
          "internalType": "uint256",
          "name": "totalAmt",
          "type": "uint256"
        },
        {
          "internalType": "bool",
          "name": "isEnded",
          "type": "bool"
        },
        {
          "internalType": "bool",
          "name": "isApproved",
          "type": "bool"
        }
      ],
      "stateMutability": "view",
      "type": "function"
    },
    {
      "inputs": [],
      "name": "registerAsBuyer",
      "outputs": [],
      "stateMutability": "nonpayable",
      "type": "function"
    },
    {
      "inputs": [],
      "name": "registerAsSeller",
      "outputs": [],
      "stateMutability": "nonpayable",
      "type": "function"
    },
    {
      "inputs": [
        {
          "internalType": "uint256",
          "name": "_QuizId",
          "type": "uint256"
        }
      ],
      "name": "rejectRequest",
      "outputs": [],
      "stateMutability": "nonpayable",
      "type": "function"
    },
    {
      "inputs": [
        {
          "internalType": "address",
          "name": "",
          "type": "address"
        }
      ],
      "name": "sellerMap",
      "outputs": [
        {
          "internalType": "uint256",
          "name": "id",
          "type": "uint256"
        },
        {
          "internalType": "address",
          "name": "walletAdd",
          "type": "address"
        },
        {
          "internalType": "uint256",
          "name": "totalAmt",
          "type": "uint256"
        }
      ],
      "stateMutability": "view",
      "type": "function"
    },
    {
      "inputs": [
        {
          "internalType": "uint256",
          "name": "",
          "type": "uint256"
        }
      ],
      "name": "ticketMap",
      "outputs": [
        {
          "internalType": "uint256",
          "name": "id",
          "type": "uint256"
        },
        {
          "internalType": "address",
          "name": "owner",
          "type": "address"
        },
        {
          "internalType": "uint256",
          "name": "amt",
          "type": "uint256"
        },
        {
          "internalType": "uint256",
          "name": "quizId",
          "type": "uint256"
        },
        {
          "internalType": "uint256",
          "name": "betIndex",
          "type": "uint256"
        },
        {
          "internalType": "bool",
          "name": "isWithdrawn",
          "type": "bool"
        },
        {
          "internalType": "uint256",
          "name": "winAmt",
          "type": "uint256"
        }
      ],
      "stateMutability": "view",
      "type": "function"
    },
    {
      "inputs": [
        {
          "internalType": "uint256",
          "name": "_QuizId",
          "type": "uint256"
        },
        {
          "internalType": "uint256",
          "name": "_WinningInd",
          "type": "uint256"
        }
      ],
      "name": "transferRewardsToWinner",
      "outputs": [],
      "stateMutability": "payable",
      "type": "function"
    },
    {
      "inputs": [
        {
          "internalType": "uint256",
          "name": "_amt",
          "type": "uint256"
        }
      ],
      "name": "withdraw",
      "outputs": [],
      "stateMutability": "nonpayable",
      "type": "function"
    },
    {
      "inputs": [],
      "name": "withdrawAll",
      "outputs": [],
      "stateMutability": "nonpayable",
      "type": "function"
    }
  ],
  "bytecode": "0x60806040526000600155348015601457600080fd5b50336000806101000a81548173ffffffffffffffffffffffffffffffffffffffff021916908373ffffffffffffffffffffffffffffffffffffffff160217905550613e07806100646000396000f3fe6080604052600436106101405760003560e01c80636f9fb98a116100b6578063a323d29e1161006f578063a323d29e14610450578063a3f7e0961461048d578063af4fc955146104ca578063c694e33d14610507578063d3ec0aae14610530578063f728635a1461055957610140565b80636f9fb98a1461034d5780637dc379fa14610378578063853828b6146103b55780638b7068bf146103cc5780639af6a08a146103f55780639cdb18371461041157610140565b8063500e3cbd11610108578063500e3cbd146102215780635721e419146102645780635b4a5cf2146102a1578063679dffb4146102b85780636e78c51f146102e35780636e9960c31461032257610140565b8063128b853214610145578063298ec2081461015c5780632d7788db1461018c5780632e1a7d4d146101b5578063490c369d146101de575b600080fd5b34801561015157600080fd5b5061015a610596565b005b61017660048036038101906101719190612bc1565b6107af565b6040516101839190612c10565b60405180910390f35b34801561019857600080fd5b506101b360048036038101906101ae9190612c2b565b610c0d565b005b3480156101c157600080fd5b506101dc60048036038101906101d79190612c2b565b610d37565b005b3480156101ea57600080fd5b5061020560048036038101906102009190612c2b565b610f6c565b6040516102189796959493929190612cb4565b60405180910390f35b34801561022d57600080fd5b5061024860048036038101906102439190612c2b565b610fe8565b60405161025b9796959493929190612d23565b60405180910390f35b34801561027057600080fd5b5061028b60048036038101906102869190612dbe565b611057565b6040516102989190612f1b565b60405180910390f35b3480156102ad57600080fd5b506102b6611172565b005b3480156102c457600080fd5b506102cd61138b565b6040516102da9190612c10565b60405180910390f35b3480156102ef57600080fd5b5061030a60048036038101906103059190612dbe565b611424565b60405161031993929190612f3d565b60405180910390f35b34801561032e57600080fd5b5061033761146e565b6040516103449190612f74565b60405180910390f35b34801561035957600080fd5b50610362611497565b60405161036f9190612c10565b60405180910390f35b34801561038457600080fd5b5061039f600480360381019061039a9190612c2b565b61149f565b6040516103ac919061302c565b60405180910390f35b3480156103c157600080fd5b506103ca61156f565b005b3480156103d857600080fd5b506103f360048036038101906103ee9190612c2b565b611708565b005b61040f600480360381019061040a9190612bc1565b611832565b005b34801561041d57600080fd5b5061043860048036038101906104339190612dbe565b611dc7565b60405161044793929190612f3d565b60405180910390f35b34801561045c57600080fd5b5061047760048036038101906104729190612dbe565b611e11565b60405161048491906130aa565b60405180910390f35b34801561049957600080fd5b506104b460048036038101906104af9190612c2b565b611f2c565b6040516104c19190613198565b60405180910390f35b3480156104d657600080fd5b506104f160048036038101906104ec91906131f3565b6120be565b6040516104fe9190612c10565b60405180910390f35b34801561051357600080fd5b5061052e60048036038101906105299190612bc1565b6122c6565b005b34801561053c57600080fd5b5061055760048036038101906105529190613246565b6124e7565b005b34801561056557600080fd5b50610580600480360381019061057b91906132d9565b61289d565b60405161058d9190612f74565b60405180910390f35b6000600560003373ffffffffffffffffffffffffffffffffffffffff1673ffffffffffffffffffffffffffffffffffffffff168152602001908152602001600020600001541461061b576040517f08c379a000000000000000000000000000000000000000000000000000000000815260040161061290613376565b60405180910390fd5b600060405180608001604052806001600560003373ffffffffffffffffffffffffffffffffffffffff1673ffffffffffffffffffffffffffffffffffffffff1681526020019081526020016000206002018054905061067a91906133c5565b81526020013373ffffffffffffffffffffffffffffffffffffffff168152602001600067ffffffffffffffff8111156106b6576106b56133f9565b5b6040519080825280602002602001820160405280156106e45781602001602082028036833780820191505090505b5081526020016000815250905080600560003373ffffffffffffffffffffffffffffffffffffffff1673ffffffffffffffffffffffffffffffffffffffff1681526020019081526020016000206000820151816000015560208201518160010160006101000a81548173ffffffffffffffffffffffffffffffffffffffff021916908373ffffffffffffffffffffffffffffffffffffffff160217905550604082015181600201908051906020019061079e9291906129e5565b506060820151816003015590505050565b600080600460003373ffffffffffffffffffffffffffffffffffffffff1673ffffffffffffffffffffffffffffffffffffffff1681526020019081526020016000206000015411610835576040517f08c379a000000000000000000000000000000000000000000000000000000000815260040161082c9061349a565b60405180910390fd5b600015156003600085815260200190815260200160002060070160009054906101000a900460ff1615151461089f576040517f08c379a000000000000000000000000000000000000000000000000000000000815260040161089690613506565b60405180910390fd5b600360008481526020019081526020016000206002015434101580156108db575060036000848152602001908152602001600020600301543411155b61091a576040517f08c379a000000000000000000000000000000000000000000000000000000000815260040161091190613598565b60405180910390fd5b60006003600085815260200190815260200160002060060180549050905060004290506000828261094b91906133c5565b905060006040518060e001604052808381526020013373ffffffffffffffffffffffffffffffffffffffff1681526020013481526020018881526020018781526020016000151581526020016000815250905080600260008481526020019081526020016000206000820151816000015560208201518160010160006101000a81548173ffffffffffffffffffffffffffffffffffffffff021916908373ffffffffffffffffffffffffffffffffffffffff16021790555060408201518160020155606082015181600301556080820151816004015560a08201518160050160006101000a81548160ff02191690831515021790555060c0820151816006015590505060036000888152602001908152602001600020600601829080600181540180825580915050600190039060005260206000200160009091909190915055600460003373ffffffffffffffffffffffffffffffffffffffff1673ffffffffffffffffffffffffffffffffffffffff16815260200190815260200160002060020182908060018154018082558091505060019003906000526020600020016000909190919091505534600460003373ffffffffffffffffffffffffffffffffffffffff1673ffffffffffffffffffffffffffffffffffffffff1681526020019081526020016000206003016000828254610b4691906133c5565b9250508190555034600360008981526020019081526020016000206004016000828254610b7391906133c5565b9250508190555034600360008981526020019081526020016000206005018781548110610ba357610ba26135b8565b5b906000526020600020016000828254610bbc91906133c5565b925050819055507fa38a8990067bfd128af9e1c8e749a6940ee00f3621f6f6c8a9c93783a0b9dffe8233348a604051610bf894939291906135e7565b60405180910390a18194505050505092915050565b60008054906101000a900473ffffffffffffffffffffffffffffffffffffffff1673ffffffffffffffffffffffffffffffffffffffff163373ffffffffffffffffffffffffffffffffffffffff1614610c9b576040517f08c379a0000000000000000000000000000000000000000000000000000000008152600401610c929061369e565b60405180910390fd5b600015156003600083815260200190815260200160002060070160019054906101000a900460ff16151514610d05576040517f08c379a0000000000000000000000000000000000000000000000000000000008152600401610cfc9061370a565b60405180910390fd5b60006003600083815260200190815260200160002060070160016101000a81548160ff02191690831515021790555050565b60008054906101000a900473ffffffffffffffffffffffffffffffffffffffff1673ffffffffffffffffffffffffffffffffffffffff163373ffffffffffffffffffffffffffffffffffffffff1614610dc5576040517f08c379a0000000000000000000000000000000000000000000000000000000008152600401610dbc9061369e565b60405180910390fd5b60008111610e08576040517f08c379a0000000000000000000000000000000000000000000000000000000008152600401610dff90613776565b60405180910390fd5b47811115610e4b576040517f08c379a0000000000000000000000000000000000000000000000000000000008152600401610e42906137e2565b60405180910390fd5b600154811115610e90576040517f08c379a0000000000000000000000000000000000000000000000000000000008152600401610e8790613874565b60405180910390fd5b60008054906101000a900473ffffffffffffffffffffffffffffffffffffffff1673ffffffffffffffffffffffffffffffffffffffff166108fc829081150290604051600060405180830381858888f19350505050158015610ef6573d6000803e3d6000fd5b508060016000828254610f099190613894565b925050819055507f7084f5476618d8e60b11ef0d7d3f06914655adb8793e28ff7f018d4c76d505d560008054906101000a900473ffffffffffffffffffffffffffffffffffffffff1682604051610f619291906138c8565b60405180910390a150565b60036020528060005260406000206000915090508060000154908060010160009054906101000a900473ffffffffffffffffffffffffffffffffffffffff16908060020154908060030154908060040154908060070160009054906101000a900460ff16908060070160019054906101000a900460ff16905087565b60026020528060005260406000206000915090508060000154908060010160009054906101000a900473ffffffffffffffffffffffffffffffffffffffff16908060020154908060030154908060040154908060050160009054906101000a900460ff16908060060154905087565b61105f612a32565b600460008373ffffffffffffffffffffffffffffffffffffffff1673ffffffffffffffffffffffffffffffffffffffff168152602001908152602001600020604051806080016040529081600082015481526020016001820160009054906101000a900473ffffffffffffffffffffffffffffffffffffffff1673ffffffffffffffffffffffffffffffffffffffff1673ffffffffffffffffffffffffffffffffffffffff1681526020016002820180548060200260200160405190810160405280929190818152602001828054801561115857602002820191906000526020600020905b815481526020019060010190808311611144575b505050505081526020016003820154815250509050919050565b6000600460003373ffffffffffffffffffffffffffffffffffffffff1673ffffffffffffffffffffffffffffffffffffffff16815260200190815260200160002060000154146111f7576040517f08c379a00000000000000000000000000000000000000000000000000000000081526004016111ee9061393d565b60405180910390fd5b600060405180608001604052806001600460003373ffffffffffffffffffffffffffffffffffffffff1673ffffffffffffffffffffffffffffffffffffffff1681526020019081526020016000206002018054905061125691906133c5565b81526020013373ffffffffffffffffffffffffffffffffffffffff168152602001600067ffffffffffffffff811115611292576112916133f9565b5b6040519080825280602002602001820160405280156112c05781602001602082028036833780820191505090505b5081526020016000815250905080600460003373ffffffffffffffffffffffffffffffffffffffff1673ffffffffffffffffffffffffffffffffffffffff1681526020019081526020016000206000820151816000015560208201518160010160006101000a81548173ffffffffffffffffffffffffffffffffffffffff021916908373ffffffffffffffffffffffffffffffffffffffff160217905550604082015181600201908051906020019061137a9291906129e5565b506060820151816003015590505050565b60008060009054906101000a900473ffffffffffffffffffffffffffffffffffffffff1673ffffffffffffffffffffffffffffffffffffffff163373ffffffffffffffffffffffffffffffffffffffff161461141c576040517f08c379a00000000000000000000000000000000000000000000000000000000081526004016114139061369e565b60405180910390fd5b600154905090565b60056020528060005260406000206000915090508060000154908060010160009054906101000a900473ffffffffffffffffffffffffffffffffffffffff16908060030154905083565b60008060009054906101000a900473ffffffffffffffffffffffffffffffffffffffff16905090565b600047905090565b6114a7612a70565b600260008381526020019081526020016000206040518060e0016040529081600082015481526020016001820160009054906101000a900473ffffffffffffffffffffffffffffffffffffffff1673ffffffffffffffffffffffffffffffffffffffff1673ffffffffffffffffffffffffffffffffffffffff1681526020016002820154815260200160038201548152602001600482015481526020016005820160009054906101000a900460ff161515151581526020016006820154815250509050919050565b60008054906101000a900473ffffffffffffffffffffffffffffffffffffffff1673ffffffffffffffffffffffffffffffffffffffff163373ffffffffffffffffffffffffffffffffffffffff16146115fd576040517f08c379a00000000000000000000000000000000000000000000000000000000081526004016115f49061369e565b60405180910390fd5b600060015411611642576040517f08c379a0000000000000000000000000000000000000000000000000000000008152600401611639906139a9565b60405180910390fd5b60008054906101000a900473ffffffffffffffffffffffffffffffffffffffff1673ffffffffffffffffffffffffffffffffffffffff166108fc6001549081150290604051600060405180830381858888f193505050501580156116aa573d6000803e3d6000fd5b507f7084f5476618d8e60b11ef0d7d3f06914655adb8793e28ff7f018d4c76d505d560008054906101000a900473ffffffffffffffffffffffffffffffffffffffff166001546040516116fe9291906138c8565b60405180910390a1565b60008054906101000a900473ffffffffffffffffffffffffffffffffffffffff1673ffffffffffffffffffffffffffffffffffffffff163373ffffffffffffffffffffffffffffffffffffffff1614611796576040517f08c379a000000000000000000000000000000000000000000000000000000000815260040161178d9061369e565b60405180910390fd5b600015156003600083815260200190815260200160002060070160019054906101000a900460ff16151514611800576040517f08c379a00000000000000000000000000000000000000000000000000000000081526004016117f79061370a565b60405180910390fd5b60016003600083815260200190815260200160002060070160016101000a81548160ff02191690831515021790555050565b600115156003600084815260200190815260200160002060070160009054906101000a900460ff1615151461189c576040517f08c379a000000000000000000000000000000000000000000000000000000000815260040161189390613a15565b60405180910390fd5b3373ffffffffffffffffffffffffffffffffffffffff166003600084815260200190815260200160002060010160009054906101000a900473ffffffffffffffffffffffffffffffffffffffff1673ffffffffffffffffffffffffffffffffffffffff1614611940576040517f08c379a000000000000000000000000000000000000000000000000000000000815260040161193790613a81565b60405180910390fd5b6000600360008481526020019081526020016000206006018054905090506000600360008581526020019081526020016000206004015490506000606460058361198a9190613aa1565b6119949190613b12565b905080826119a29190613894565b915080600160008282546119b691906133c5565b9250508190555060008054906101000a900473ffffffffffffffffffffffffffffffffffffffff1673ffffffffffffffffffffffffffffffffffffffff166108fc829081150290604051600060405180830381858888f19350505050158015611a23573d6000803e3d6000fd5b5060005b83811015611dbf578460026000600360008a81526020019081526020016000206006018481548110611a5c57611a5b6135b8565b5b906000526020600020015481526020019081526020016000206004015403611db2576000611aef600360008981526020019081526020016000206006018381548110611aab57611aaa6135b8565b5b906000526020600020015485600360008b81526020019081526020016000206005018981548110611adf57611ade6135b8565b5b906000526020600020015461296f565b905060026000600360008a81526020019081526020016000206006018481548110611b1d57611b1c6135b8565b5b9060005260206000200154815260200190815260200160002060010160009054906101000a900473ffffffffffffffffffffffffffffffffffffffff1673ffffffffffffffffffffffffffffffffffffffff166108fc829081150290604051600060405180830381858888f19350505050158015611b9f573d6000803e3d6000fd5b50600160026000600360008b81526020019081526020016000206006018581548110611bce57611bcd6135b8565b5b9060005260206000200154815260200190815260200160002060050160006101000a81548160ff0219169083151502179055508060026000600360008b81526020019081526020016000206006018581548110611c2e57611c2d6135b8565b5b9060005260206000200154815260200190815260200160002060060181905550806004600060026000600360008d81526020019081526020016000206006018781548110611c7f57611c7e6135b8565b5b9060005260206000200154815260200190815260200160002060010160009054906101000a900473ffffffffffffffffffffffffffffffffffffffff1673ffffffffffffffffffffffffffffffffffffffff1673ffffffffffffffffffffffffffffffffffffffff1681526020019081526020016000206003016000828254611d0891906133c5565b925050819055507f7084f5476618d8e60b11ef0d7d3f06914655adb8793e28ff7f018d4c76d505d560026000600360008b81526020019081526020016000206006018581548110611d5c57611d5b6135b8565b5b9060005260206000200154815260200190815260200160002060010160009054906101000a900473ffffffffffffffffffffffffffffffffffffffff1682604051611da89291906138c8565b60405180910390a1505b8080600101915050611a27565b505050505050565b60046020528060005260406000206000915090508060000154908060010160009054906101000a900473ffffffffffffffffffffffffffffffffffffffff16908060030154905083565b611e19612ac5565b600560008373ffffffffffffffffffffffffffffffffffffffff1673ffffffffffffffffffffffffffffffffffffffff168152602001908152602001600020604051806080016040529081600082015481526020016001820160009054906101000a900473ffffffffffffffffffffffffffffffffffffffff1673ffffffffffffffffffffffffffffffffffffffff1673ffffffffffffffffffffffffffffffffffffffff16815260200160028201805480602002602001604051908101604052809291908181526020018280548015611f1257602002820191906000526020600020905b815481526020019060010190808311611efe575b505050505081526020016003820154815250509050919050565b611f34612b03565b6003600083815260200190815260200160002060405180610120016040529081600082015481526020016001820160009054906101000a900473ffffffffffffffffffffffffffffffffffffffff1673ffffffffffffffffffffffffffffffffffffffff1673ffffffffffffffffffffffffffffffffffffffff1681526020016002820154815260200160038201548152602001600482015481526020016005820180548060200260200160405190810160405280929190818152602001828054801561202057602002820191906000526020600020905b81548152602001906001019080831161200c575b505050505081526020016006820180548060200260200160405190810160405280929190818152602001828054801561207857602002820191906000526020600020905b815481526020019060010190808311612064575b505050505081526020016007820160009054906101000a900460ff161515151581526020016007820160019054906101000a900460ff1615151515815250509050919050565b600080600360008681526020019081526020016000206000015411612118576040517f08c379a000000000000000000000000000000000000000000000000000000000815260040161210f90613b8f565b60405180910390fd5b600015156003600086815260200190815260200160002060070160009054906101000a900460ff16151514612182576040517f08c379a000000000000000000000000000000000000000000000000000000000815260040161217990613506565b60405180910390fd5b600360008581526020019081526020016000206002015482101580156121be575060036000858152602001908152602001600020600301548211155b6121fd576040517f08c379a00000000000000000000000000000000000000000000000000000000081526004016121f490613598565b60405180910390fd5b6000600360008681526020019081526020016000206004015490506000810361222a5760009150506122bf565b6000606460058361223b9190613aa1565b6122459190613b12565b905080826122539190613894565b91506000600360008881526020019081526020016000206005018660ff1681548110612282576122816135b8565b5b906000526020600020015490506000810361229c57600190505b60008382876122ab9190613b12565b6122b59190613aa1565b9050809450505050505b9392505050565b6000600560003373ffffffffffffffffffffffffffffffffffffffff1673ffffffffffffffffffffffffffffffffffffffff168152602001908152602001600020600001541161234b576040517f08c379a000000000000000000000000000000000000000000000000000000000815260040161234290613c21565b60405180910390fd5b3373ffffffffffffffffffffffffffffffffffffffff166003600084815260200190815260200160002060010160009054906101000a900473ffffffffffffffffffffffffffffffffffffffff1673ffffffffffffffffffffffffffffffffffffffff16146123ef576040517f08c379a00000000000000000000000000000000000000000000000000000000081526004016123e690613c8d565b60405180910390fd5b600015156003600084815260200190815260200160002060070160009054906101000a900460ff16151514612459576040517f08c379a000000000000000000000000000000000000000000000000000000000815260040161245090613506565b60405180910390fd5b60016003600084815260200190815260200160002060070160006101000a81548160ff0219169083151502179055506124928282611832565b7f56fe9aa41f0884b06717b271b0b1b2eedc26fe9341fb37ab44d43e1f4405c988823360036000868152602001908152602001600020600401546040516124db93929190612f3d565b60405180910390a15050565b6000600560003373ffffffffffffffffffffffffffffffffffffffff1673ffffffffffffffffffffffffffffffffffffffff168152602001908152602001600020600001541161256c576040517f08c379a000000000000000000000000000000000000000000000000000000000815260040161256390613c21565b60405180910390fd5b600084116125af576040517f08c379a00000000000000000000000000000000000000000000000000000000081526004016125a690613d1f565b60405180910390fd5b8383116125f1576040517f08c379a00000000000000000000000000000000000000000000000000000000081526004016125e890613db1565b60405180910390fd5b60006040518061012001604052808481526020013373ffffffffffffffffffffffffffffffffffffffff1681526020018681526020018581526020016000815260200160018461264191906133c5565b67ffffffffffffffff81111561265a576126596133f9565b5b6040519080825280602002602001820160405280156126885781602001602082028036833780820191505090505b508152602001600067ffffffffffffffff8111156126a9576126a86133f9565b5b6040519080825280602002602001820160405280156126d75781602001602082028036833780820191505090505b50815260200160001515815260200160001515815250905080600360008581526020019081526020016000206000820151816000015560208201518160010160006101000a81548173ffffffffffffffffffffffffffffffffffffffff021916908373ffffffffffffffffffffffffffffffffffffffff16021790555060408201518160020155606082015181600301556080820151816004015560a082015181600501908051906020019061278e9291906129e5565b5060c08201518160060190805190602001906127ab9291906129e5565b5060e08201518160070160006101000a81548160ff0219169083151502179055506101008201518160070160016101000a81548160ff021916908315150217905550905050600560003373ffffffffffffffffffffffffffffffffffffffff1673ffffffffffffffffffffffffffffffffffffffff1681526020019081526020016000206002018390806001815401808255809150506001900390600052602060002001600090919091909150557f4d946047a8fad903eae1a1ebbf75dc1667359f7ee49a61c577a4c6c70bdceb138333878760405161288e94939291906135e7565b60405180910390a15050505050565b600080600560008573ffffffffffffffffffffffffffffffffffffffff1673ffffffffffffffffffffffffffffffffffffffff168152602001908152602001600020600001541180156128f4575060001515821515145b1561290157829050612969565b6000600460008573ffffffffffffffffffffffffffffffffffffffff1673ffffffffffffffffffffffffffffffffffffffff16815260200190815260200160002060000154118015612957575060011515821515145b1561296457829050612969565b600090505b92915050565b600080820361298157600090506129de565b60006002600086815260200190815260200160002060020154036129a857600090506129de565b6000838360026000888152602001908152602001600020600201546129cd9190613b12565b6129d79190613aa1565b9050809150505b9392505050565b828054828255906000526020600020908101928215612a21579160200282015b82811115612a20578251825591602001919060010190612a05565b5b509050612a2e9190612b69565b5090565b604051806080016040528060008152602001600073ffffffffffffffffffffffffffffffffffffffff16815260200160608152602001600081525090565b6040518060e0016040528060008152602001600073ffffffffffffffffffffffffffffffffffffffff168152602001600081526020016000815260200160008152602001600015158152602001600081525090565b604051806080016040528060008152602001600073ffffffffffffffffffffffffffffffffffffffff16815260200160608152602001600081525090565b60405180610120016040528060008152602001600073ffffffffffffffffffffffffffffffffffffffff16815260200160008152602001600081526020016000815260200160608152602001606081526020016000151581526020016000151581525090565b5b80821115612b82576000816000905550600101612b6a565b5090565b600080fd5b6000819050919050565b612b9e81612b8b565b8114612ba957600080fd5b50565b600081359050612bbb81612b95565b92915050565b60008060408385031215612bd857612bd7612b86565b5b6000612be685828601612bac565b9250506020612bf785828601612bac565b9150509250929050565b612c0a81612b8b565b82525050565b6000602082019050612c256000830184612c01565b92915050565b600060208284031215612c4157612c40612b86565b5b6000612c4f84828501612bac565b91505092915050565b600073ffffffffffffffffffffffffffffffffffffffff82169050919050565b6000612c8382612c58565b9050919050565b612c9381612c78565b82525050565b60008115159050919050565b612cae81612c99565b82525050565b600060e082019050612cc9600083018a612c01565b612cd66020830189612c8a565b612ce36040830188612c01565b612cf06060830187612c01565b612cfd6080830186612c01565b612d0a60a0830185612ca5565b612d1760c0830184612ca5565b98975050505050505050565b600060e082019050612d38600083018a612c01565b612d456020830189612c8a565b612d526040830188612c01565b612d5f6060830187612c01565b612d6c6080830186612c01565b612d7960a0830185612ca5565b612d8660c0830184612c01565b98975050505050505050565b612d9b81612c78565b8114612da657600080fd5b50565b600081359050612db881612d92565b92915050565b600060208284031215612dd457612dd3612b86565b5b6000612de284828501612da9565b91505092915050565b612df481612b8b565b82525050565b612e0381612c78565b82525050565b600081519050919050565b600082825260208201905092915050565b6000819050602082019050919050565b6000612e418383612deb565b60208301905092915050565b6000602082019050919050565b6000612e6582612e09565b612e6f8185612e14565b9350612e7a83612e25565b8060005b83811015612eab578151612e928882612e35565b9750612e9d83612e4d565b925050600181019050612e7e565b5085935050505092915050565b6000608083016000830151612ed06000860182612deb565b506020830151612ee36020860182612dfa565b5060408301518482036040860152612efb8282612e5a565b9150506060830151612f106060860182612deb565b508091505092915050565b60006020820190508181036000830152612f358184612eb8565b905092915050565b6000606082019050612f526000830186612c01565b612f5f6020830185612c8a565b612f6c6040830184612c01565b949350505050565b6000602082019050612f896000830184612c8a565b92915050565b612f9881612c99565b82525050565b60e082016000820151612fb46000850182612deb565b506020820151612fc76020850182612dfa565b506040820151612fda6040850182612deb565b506060820151612fed6060850182612deb565b5060808201516130006080850182612deb565b5060a082015161301360a0850182612f8f565b5060c082015161302660c0850182612deb565b50505050565b600060e0820190506130416000830184612f9e565b92915050565b600060808301600083015161305f6000860182612deb565b5060208301516130726020860182612dfa565b506040830151848203604086015261308a8282612e5a565b915050606083015161309f6060860182612deb565b508091505092915050565b600060208201905081810360008301526130c48184613047565b905092915050565b6000610120830160008301516130e56000860182612deb565b5060208301516130f86020860182612dfa565b50604083015161310b6040860182612deb565b50606083015161311e6060860182612deb565b5060808301516131316080860182612deb565b5060a083015184820360a08601526131498282612e5a565b91505060c083015184820360c08601526131638282612e5a565b91505060e083015161317860e0860182612f8f565b5061010083015161318d610100860182612f8f565b508091505092915050565b600060208201905081810360008301526131b281846130cc565b905092915050565b600060ff82169050919050565b6131d0816131ba565b81146131db57600080fd5b50565b6000813590506131ed816131c7565b92915050565b60008060006060848603121561320c5761320b612b86565b5b600061321a86828701612bac565b935050602061322b868287016131de565b925050604061323c86828701612bac565b9150509250925092565b600080600080608085870312156132605761325f612b86565b5b600061326e87828801612bac565b945050602061327f87828801612bac565b935050604061329087828801612bac565b92505060606132a187828801612bac565b91505092959194509250565b6132b681612c99565b81146132c157600080fd5b50565b6000813590506132d3816132ad565b92915050565b600080604083850312156132f0576132ef612b86565b5b60006132fe85828601612da9565b925050602061330f858286016132c4565b9150509250929050565b600082825260208201905092915050565b7f416c726561647920726567697374657265642061732053656c6c657200000000600082015250565b6000613360601c83613319565b915061336b8261332a565b602082019050919050565b6000602082019050818103600083015261338f81613353565b9050919050565b7f4e487b7100000000000000000000000000000000000000000000000000000000600052601160045260246000fd5b60006133d082612b8b565b91506133db83612b8b565b92508282019050808211156133f3576133f2613396565b5b92915050565b7f4e487b7100000000000000000000000000000000000000000000000000000000600052604160045260246000fd5b7f4f6e6c792042757965722063616e2063616c6c20746869732066756e6374696f60008201527f6e00000000000000000000000000000000000000000000000000000000000000602082015250565b6000613484602183613319565b915061348f82613428565b604082019050919050565b600060208201905081810360008301526134b381613477565b9050919050565b7f5175697a20697320616c726561647920656e6465640000000000000000000000600082015250565b60006134f0601583613319565b91506134fb826134ba565b602082019050919050565b6000602082019050818103600083015261351f816134e3565b9050919050565b7f416d6f756e742073686f756c64206265206265747765656e206d696e20616e6460008201527f206d617820616d6f756e74000000000000000000000000000000000000000000602082015250565b6000613582602b83613319565b915061358d82613526565b604082019050919050565b600060208201905081810360008301526135b181613575565b9050919050565b7f4e487b7100000000000000000000000000000000000000000000000000000000600052603260045260246000fd5b60006080820190506135fc6000830187612c01565b6136096020830186612c8a565b6136166040830185612c01565b6136236060830184612c01565b95945050505050565b7f4f6e6c792041646d696e2063616e2063616c6c20746869732066756e6374696f60008201527f6e00000000000000000000000000000000000000000000000000000000000000602082015250565b6000613688602183613319565b91506136938261362c565b604082019050919050565b600060208201905081810360008301526136b78161367b565b9050919050565b7f5175697a20697320616c726561647920617070726f7665640000000000000000600082015250565b60006136f4601883613319565b91506136ff826136be565b602082019050919050565b60006020820190508181036000830152613723816136e7565b9050919050565b7f416d6f756e742073686f756c642062652067726561746572207468616e203000600082015250565b6000613760601f83613319565b915061376b8261372a565b602082019050919050565b6000602082019050818103600083015261378f81613753565b9050919050565b7f496e73756666696369656e742062616c616e6365000000000000000000000000600082015250565b60006137cc601483613319565b91506137d782613796565b602082019050919050565b600060208201905081810360008301526137fb816137bf565b9050919050565b7f416d6f756e742073686f756c64206265206c657373207468616e2070726f666960008201527f7400000000000000000000000000000000000000000000000000000000000000602082015250565b600061385e602183613319565b915061386982613802565b604082019050919050565b6000602082019050818103600083015261388d81613851565b9050919050565b600061389f82612b8b565b91506138aa83612b8b565b92508282039050818111156138c2576138c1613396565b5b92915050565b60006040820190506138dd6000830185612c8a565b6138ea6020830184612c01565b9392505050565b7f416c726561647920726567697374657265642061732042757965720000000000600082015250565b6000613927601b83613319565b9150613932826138f1565b602082019050919050565b600060208201905081810360008301526139568161391a565b9050919050565b7f4e6f2062616c616e636520746f20776974686472617700000000000000000000600082015250565b6000613993601683613319565b915061399e8261395d565b602082019050919050565b600060208201905081810360008301526139c281613986565b9050919050565b7f5175697a206973206e6f7420656e646564207965740000000000000000000000600082015250565b60006139ff601583613319565b9150613a0a826139c9565b602082019050919050565b60006020820190508181036000830152613a2e816139f2565b9050919050565b7f4f6e6c79206f776e65722063616e207472616e73666572207265776172647300600082015250565b6000613a6b601f83613319565b9150613a7682613a35565b602082019050919050565b60006020820190508181036000830152613a9a81613a5e565b9050919050565b6000613aac82612b8b565b9150613ab783612b8b565b9250828202613ac581612b8b565b91508282048414831517613adc57613adb613396565b5b5092915050565b7f4e487b7100000000000000000000000000000000000000000000000000000000600052601260045260246000fd5b6000613b1d82612b8b565b9150613b2883612b8b565b925082613b3857613b37613ae3565b5b828204905092915050565b7f5175697a20646f6573206e6f7420657869737400000000000000000000000000600082015250565b6000613b79601383613319565b9150613b8482613b43565b602082019050919050565b60006020820190508181036000830152613ba881613b6c565b9050919050565b7f4f6e6c792053656c6c65722063616e2063616c6c20746869732066756e63746960008201527f6f6e000000000000000000000000000000000000000000000000000000000000602082015250565b6000613c0b602283613319565b9150613c1682613baf565b604082019050919050565b60006020820190508181036000830152613c3a81613bfe565b9050919050565b7f4f6e6c79206f776e65722063616e20656e6420746865207175697a0000000000600082015250565b6000613c77601b83613319565b9150613c8282613c41565b602082019050919050565b60006020820190508181036000830152613ca681613c6a565b9050919050565b7f4d696e696d756d20616d6f756e742073686f756c64206265206772656174657260008201527f207468616e203000000000000000000000000000000000000000000000000000602082015250565b6000613d09602783613319565b9150613d1482613cad565b604082019050919050565b60006020820190508181036000830152613d3881613cfc565b9050919050565b7f4d6178696d756d20616d6f756e742073686f756c64206265206772656174657260008201527f207468616e206d696e696d756d20616d6f756e74000000000000000000000000602082015250565b6000613d9b603483613319565b9150613da682613d3f565b604082019050919050565b60006020820190508181036000830152613dca81613d8e565b905091905056fea2646970667358221220f01f312bf1b473c7b939119383161a80d15b005875420546f07d58fbc28d10c364736f6c634300081c0033",
  "linkReferences": {},
  "deployedLinkReferences": {}
}