{
  "_format": "hh-sol-artifact-1",
  "contractName": "MarketPlaceContract",
  "sourceName": "contracts/MarketPlaceContract.sol",
  "abi": [
    {
      "inputs": [],
      "stateMutability": "nonpayable",
      "type": "constructor"
    },
    {
      "anonymous": false,
      "inputs": [
        {
          "indexed": false,
          "internalType": "uint256",
          "name": "id",
          "type": "uint256"
        },
        {
          "indexed": false,
          "internalType": "address",
          "name": "owner",
          "type": "address"
        },
        {
          "indexed": false,
          "internalType": "uint256",
          "name": "minAmt",
          "type": "uint256"
        },
        {
          "indexed": false,
          "internalType": "uint256",
          "name": "maxAmt",
          "type": "uint256"
        }
      ],
      "name": "QuizCreated",
      "type": "event"
    },
    {
      "anonymous": false,
      "inputs": [
        {
          "indexed": false,
          "internalType": "uint256",
          "name": "id",
          "type": "uint256"
        },
        {
          "indexed": false,
          "internalType": "address",
          "name": "owner",
          "type": "address"
        },
        {
          "indexed": false,
          "internalType": "uint256",
          "name": "totalAmt",
          "type": "uint256"
        }
      ],
      "name": "QuizEnded",
      "type": "event"
    },
    {
      "anonymous": false,
      "inputs": [
        {
          "indexed": false,
          "internalType": "uint256",
          "name": "id",
          "type": "uint256"
        },
        {
          "indexed": false,
          "internalType": "address",
          "name": "owner",
          "type": "address"
        },
        {
          "indexed": false,
          "internalType": "uint256",
          "name": "amt",
          "type": "uint256"
        },
        {
          "indexed": false,
          "internalType": "uint256",
          "name": "quizId",
          "type": "uint256"
        }
      ],
      "name": "TicketBought",
      "type": "event"
    },
    {
      "anonymous": false,
      "inputs": [
        {
          "indexed": false,
          "internalType": "address",
          "name": "owner",
          "type": "address"
        },
        {
          "indexed": false,
          "internalType": "uint256",
          "name": "amt",
          "type": "uint256"
        }
      ],
      "name": "Withdrawn",
      "type": "event"
    },
    {
      "inputs": [
        {
          "internalType": "uint256",
          "name": "_QuizId",
          "type": "uint256"
        },
        {
          "internalType": "uint256",
          "name": "betIndex",
          "type": "uint256"
        }
      ],
      "name": "buyTicket",
      "outputs": [],
      "stateMutability": "payable",
      "type": "function"
    },
    {
      "inputs": [
        {
          "internalType": "address",
          "name": "",
          "type": "address"
        }
      ],
      "name": "buyerMap",
      "outputs": [
        {
          "internalType": "uint256",
          "name": "id",
          "type": "uint256"
        },
        {
          "internalType": "address",
          "name": "walletAdd",
          "type": "address"
        },
        {
          "internalType": "uint256",
          "name": "totalAmt",
          "type": "uint256"
        }
      ],
      "stateMutability": "view",
      "type": "function"
    },
    {
      "inputs": [
        {
          "internalType": "uint256",
          "name": "_minAmt",
          "type": "uint256"
        },
        {
          "internalType": "uint256",
          "name": "_maxAmt",
          "type": "uint256"
        },
        {
          "internalType": "uint256",
          "name": "_id",
          "type": "uint256"
        },
        {
          "internalType": "uint256",
          "name": "_numOfoptions",
          "type": "uint256"
        }
      ],
      "name": "createQuiz",
      "outputs": [],
      "stateMutability": "nonpayable",
      "type": "function"
    },
    {
      "inputs": [
        {
          "internalType": "uint256",
          "name": "_QuizId",
          "type": "uint256"
        },
        {
          "internalType": "uint256",
          "name": "_WinningInd",
          "type": "uint256"
        }
      ],
      "name": "endQuiz",
      "outputs": [],
      "stateMutability": "nonpayable",
      "type": "function"
    },
    {
      "inputs": [],
      "name": "getAdmin",
      "outputs": [
        {
          "internalType": "address",
          "name": "",
          "type": "address"
        }
      ],
      "stateMutability": "view",
      "type": "function"
    },
    {
      "inputs": [
        {
          "internalType": "address",
          "name": "_walletAdd",
          "type": "address"
        }
      ],
      "name": "getBuyer",
      "outputs": [
        {
          "components": [
            {
              "internalType": "uint256",
              "name": "id",
              "type": "uint256"
            },
            {
              "internalType": "address",
              "name": "walletAdd",
              "type": "address"
            },
            {
              "internalType": "uint256[]",
              "name": "tickets",
              "type": "uint256[]"
            },
            {
              "internalType": "uint256",
              "name": "totalAmt",
              "type": "uint256"
            }
          ],
          "internalType": "struct MarketPlaceContract.Buyer",
          "name": "",
          "type": "tuple"
        }
      ],
      "stateMutability": "view",
      "type": "function"
    },
    {
      "inputs": [
        {
          "internalType": "uint256",
          "name": "_QuizId",
          "type": "uint256"
        },
        {
          "internalType": "uint8",
          "name": "_betIndex",
          "type": "uint8"
        },
        {
          "internalType": "uint256",
          "name": "_amt",
          "type": "uint256"
        }
      ],
      "name": "getPredictedWinAmount",
      "outputs": [
        {
          "internalType": "uint256",
          "name": "",
          "type": "uint256"
        }
      ],
      "stateMutability": "view",
      "type": "function"
    },
    {
      "inputs": [
        {
          "internalType": "uint256",
          "name": "_id",
          "type": "uint256"
        }
      ],
      "name": "getQuiz",
      "outputs": [
        {
          "components": [
            {
              "internalType": "uint256",
              "name": "id",
              "type": "uint256"
            },
            {
              "internalType": "address",
              "name": "owner",
              "type": "address"
            },
            {
              "internalType": "uint256",
              "name": "minAmt",
              "type": "uint256"
            },
            {
              "internalType": "uint256",
              "name": "maxAmt",
              "type": "uint256"
            },
            {
              "internalType": "uint256",
              "name": "totalAmt",
              "type": "uint256"
            },
            {
              "internalType": "uint256[]",
              "name": "options",
              "type": "uint256[]"
            },
            {
              "internalType": "uint256[]",
              "name": "tickets",
              "type": "uint256[]"
            },
            {
              "internalType": "bool",
              "name": "isEnded",
              "type": "bool"
            }
          ],
          "internalType": "struct MarketPlaceContract.Quiz",
          "name": "",
          "type": "tuple"
        }
      ],
      "stateMutability": "view",
      "type": "function"
    },
    {
      "inputs": [
        {
          "internalType": "address",
          "name": "_walletAdd",
          "type": "address"
        }
      ],
      "name": "getSeller",
      "outputs": [
        {
          "components": [
            {
              "internalType": "uint256",
              "name": "id",
              "type": "uint256"
            },
            {
              "internalType": "address",
              "name": "walletAdd",
              "type": "address"
            },
            {
              "internalType": "uint256[]",
              "name": "quizzes",
              "type": "uint256[]"
            },
            {
              "internalType": "uint256",
              "name": "totalAmt",
              "type": "uint256"
            }
          ],
          "internalType": "struct MarketPlaceContract.Seller",
          "name": "",
          "type": "tuple"
        }
      ],
      "stateMutability": "view",
      "type": "function"
    },
    {
      "inputs": [
        {
          "internalType": "uint256",
          "name": "_id",
          "type": "uint256"
        }
      ],
      "name": "getTicket",
      "outputs": [
        {
          "components": [
            {
              "internalType": "uint256",
              "name": "id",
              "type": "uint256"
            },
            {
              "internalType": "address",
              "name": "owner",
              "type": "address"
            },
            {
              "internalType": "uint256",
              "name": "amt",
              "type": "uint256"
            },
            {
              "internalType": "uint256",
              "name": "quizId",
              "type": "uint256"
            },
            {
              "internalType": "uint256",
              "name": "betIndex",
              "type": "uint256"
            }
          ],
          "internalType": "struct MarketPlaceContract.Ticket",
          "name": "",
          "type": "tuple"
        }
      ],
      "stateMutability": "view",
      "type": "function"
    },
    {
      "inputs": [
        {
          "internalType": "address",
          "name": "_walletAdd",
          "type": "address"
        },
        {
          "internalType": "bool",
          "name": "isBuyer",
          "type": "bool"
        }
      ],
      "name": "login",
      "outputs": [
        {
          "internalType": "address",
          "name": "",
          "type": "address"
        }
      ],
      "stateMutability": "view",
      "type": "function"
    },
    {
      "inputs": [
        {
          "internalType": "uint256",
          "name": "",
          "type": "uint256"
        }
      ],
      "name": "quizMap",
      "outputs": [
        {
          "internalType": "uint256",
          "name": "id",
          "type": "uint256"
        },
        {
          "internalType": "address",
          "name": "owner",
          "type": "address"
        },
        {
          "internalType": "uint256",
          "name": "minAmt",
          "type": "uint256"
        },
        {
          "internalType": "uint256",
          "name": "maxAmt",
          "type": "uint256"
        },
        {
          "internalType": "uint256",
          "name": "totalAmt",
          "type": "uint256"
        },
        {
          "internalType": "bool",
          "name": "isEnded",
          "type": "bool"
        }
      ],
      "stateMutability": "view",
      "type": "function"
    },
    {
      "inputs": [],
      "name": "registerAsBuyer",
      "outputs": [],
      "stateMutability": "nonpayable",
      "type": "function"
    },
    {
      "inputs": [],
      "name": "registerAsSeller",
      "outputs": [],
      "stateMutability": "nonpayable",
      "type": "function"
    },
    {
      "inputs": [
        {
          "internalType": "address",
          "name": "",
          "type": "address"
        }
      ],
      "name": "sellerMap",
      "outputs": [
        {
          "internalType": "uint256",
          "name": "id",
          "type": "uint256"
        },
        {
          "internalType": "address",
          "name": "walletAdd",
          "type": "address"
        },
        {
          "internalType": "uint256",
          "name": "totalAmt",
          "type": "uint256"
        }
      ],
      "stateMutability": "view",
      "type": "function"
    },
    {
      "inputs": [
        {
          "internalType": "uint256",
          "name": "",
          "type": "uint256"
        }
      ],
      "name": "ticketMap",
      "outputs": [
        {
          "internalType": "uint256",
          "name": "id",
          "type": "uint256"
        },
        {
          "internalType": "address",
          "name": "owner",
          "type": "address"
        },
        {
          "internalType": "uint256",
          "name": "amt",
          "type": "uint256"
        },
        {
          "internalType": "uint256",
          "name": "quizId",
          "type": "uint256"
        },
        {
          "internalType": "uint256",
          "name": "betIndex",
          "type": "uint256"
        }
      ],
      "stateMutability": "view",
      "type": "function"
    },
    {
      "inputs": [
        {
          "internalType": "uint256",
          "name": "_QuizId",
          "type": "uint256"
        },
        {
          "internalType": "uint256",
          "name": "_WinningInd",
          "type": "uint256"
        }
      ],
      "name": "transferRewardsToWinner",
      "outputs": [],
      "stateMutability": "payable",
      "type": "function"
    }
  ],
  "bytecode": "0x6080604052348015600f57600080fd5b50336000806101000a81548173ffffffffffffffffffffffffffffffffffffffff021916908373ffffffffffffffffffffffffffffffffffffffff1602179055506135268061005f6000396000f3fe6080604052600436106100fe5760003560e01c80637dc379fa11610095578063a3f7e09611610064578063a3f7e0961461034c578063af4fc95514610389578063c694e33d146103c6578063d3ec0aae146103ef578063f728635a14610418576100fe565b80637dc379fa146102775780639af6a08a146102b45780639cdb1837146102d0578063a323d29e1461030f576100fe565b80635721e419116100d15780635721e419146101b95780635b4a5cf2146101f65780636e78c51f1461020d5780636e9960c31461024c576100fe565b8063128b853214610103578063298ec2081461011a578063490c369d14610136578063500e3cbd14610178575b600080fd5b34801561010f57600080fd5b50610118610455565b005b610134600480360381019061012f91906125ea565b61066e565b005b34801561014257600080fd5b5061015d6004803603810190610158919061262a565b610a8c565b60405161016f969594939291906126c2565b60405180910390f35b34801561018457600080fd5b5061019f600480360381019061019a919061262a565b610af5565b6040516101b0959493929190612723565b60405180910390f35b3480156101c557600080fd5b506101e060048036038101906101db91906127a2565b610b4b565b6040516101ed91906128ff565b60405180910390f35b34801561020257600080fd5b5061020b610c66565b005b34801561021957600080fd5b50610234600480360381019061022f91906127a2565b610e7f565b60405161024393929190612921565b60405180910390f35b34801561025857600080fd5b50610261610ec9565b60405161026e9190612958565b60405180910390f35b34801561028357600080fd5b5061029e6004803603810190610299919061262a565b610ef2565b6040516102ab91906129db565b60405180910390f35b6102ce60048036038101906102c991906125ea565b610f9d565b005b3480156102dc57600080fd5b506102f760048036038101906102f291906127a2565b61188e565b60405161030693929190612921565b60405180910390f35b34801561031b57600080fd5b50610336600480360381019061033191906127a2565b6118d8565b6040516103439190612a59565b60405180910390f35b34801561035857600080fd5b50610373600480360381019061036e919061262a565b6119f3565b6040516103809190612b41565b60405180910390f35b34801561039557600080fd5b506103b060048036038101906103ab9190612b9c565b611b6a565b6040516103bd9190612bef565b60405180910390f35b3480156103d257600080fd5b506103ed60048036038101906103e891906125ea565b611d6b565b005b3480156103fb57600080fd5b5061041660048036038101906104119190612c0a565b611f8c565b005b34801561042457600080fd5b5061043f600480360381019061043a9190612c9d565b612318565b60405161044c9190612958565b60405180910390f35b6000600460003373ffffffffffffffffffffffffffffffffffffffff1673ffffffffffffffffffffffffffffffffffffffff16815260200190815260200160002060000154146104da576040517f08c379a00000000000000000000000000000000000000000000000000000000081526004016104d190612d3a565b60405180910390fd5b600060405180608001604052806001600460003373ffffffffffffffffffffffffffffffffffffffff1673ffffffffffffffffffffffffffffffffffffffff168152602001908152602001600020600201805490506105399190612d89565b81526020013373ffffffffffffffffffffffffffffffffffffffff168152602001600067ffffffffffffffff81111561057557610574612dbd565b5b6040519080825280602002602001820160405280156105a35781602001602082028036833780820191505090505b5081526020016000815250905080600460003373ffffffffffffffffffffffffffffffffffffffff1673ffffffffffffffffffffffffffffffffffffffff1681526020019081526020016000206000820151816000015560208201518160010160006101000a81548173ffffffffffffffffffffffffffffffffffffffff021916908373ffffffffffffffffffffffffffffffffffffffff160217905550604082015181600201908051906020019061065d929190612427565b506060820151816003015590505050565b6000600360003373ffffffffffffffffffffffffffffffffffffffff1673ffffffffffffffffffffffffffffffffffffffff16815260200190815260200160002060000154116106f3576040517f08c379a00000000000000000000000000000000000000000000000000000000081526004016106ea90612e5e565b60405180910390fd5b600015156002600084815260200190815260200160002060070160009054906101000a900460ff1615151461075d576040517f08c379a000000000000000000000000000000000000000000000000000000000815260040161075490612eca565b60405180910390fd5b60026000838152602001908152602001600020600201543410158015610799575060026000838152602001908152602001600020600301543411155b6107d8576040517f08c379a00000000000000000000000000000000000000000000000000000000081526004016107cf90612f5c565b60405180910390fd5b6000600260008481526020019081526020016000206006018054905090506000429050600082826108099190612d89565b905060006040518060a001604052808381526020013373ffffffffffffffffffffffffffffffffffffffff16815260200134815260200187815260200186815250905080600160008481526020019081526020016000206000820151816000015560208201518160010160006101000a81548173ffffffffffffffffffffffffffffffffffffffff021916908373ffffffffffffffffffffffffffffffffffffffff16021790555060408201518160020155606082015181600301556080820151816004015590505060026000878152602001908152602001600020600601829080600181540180825580915050600190039060005260206000200160009091909190915055600360003373ffffffffffffffffffffffffffffffffffffffff1673ffffffffffffffffffffffffffffffffffffffff16815260200190815260200160002060020182908060018154018082558091505060019003906000526020600020016000909190919091505534600360003373ffffffffffffffffffffffffffffffffffffffff1673ffffffffffffffffffffffffffffffffffffffff16815260200190815260200160002060030160008282546109ca9190612d89565b92505081905550346002600088815260200190815260200160002060040160008282546109f79190612d89565b9250508190555034600260008881526020019081526020016000206005018681548110610a2757610a26612f7c565b5b906000526020600020016000828254610a409190612d89565b925050819055507fa38a8990067bfd128af9e1c8e749a6940ee00f3621f6f6c8a9c93783a0b9dffe82333489604051610a7c9493929190612fab565b60405180910390a1505050505050565b60026020528060005260406000206000915090508060000154908060010160009054906101000a900473ffffffffffffffffffffffffffffffffffffffff16908060020154908060030154908060040154908060070160009054906101000a900460ff16905086565b60016020528060005260406000206000915090508060000154908060010160009054906101000a900473ffffffffffffffffffffffffffffffffffffffff16908060020154908060030154908060040154905085565b610b53612474565b600360008373ffffffffffffffffffffffffffffffffffffffff1673ffffffffffffffffffffffffffffffffffffffff168152602001908152602001600020604051806080016040529081600082015481526020016001820160009054906101000a900473ffffffffffffffffffffffffffffffffffffffff1673ffffffffffffffffffffffffffffffffffffffff1673ffffffffffffffffffffffffffffffffffffffff16815260200160028201805480602002602001604051908101604052809291908181526020018280548015610c4c57602002820191906000526020600020905b815481526020019060010190808311610c38575b505050505081526020016003820154815250509050919050565b6000600360003373ffffffffffffffffffffffffffffffffffffffff1673ffffffffffffffffffffffffffffffffffffffff1681526020019081526020016000206000015414610ceb576040517f08c379a0000000000000000000000000000000000000000000000000000000008152600401610ce29061303c565b60405180910390fd5b600060405180608001604052806001600360003373ffffffffffffffffffffffffffffffffffffffff1673ffffffffffffffffffffffffffffffffffffffff16815260200190815260200160002060020180549050610d4a9190612d89565b81526020013373ffffffffffffffffffffffffffffffffffffffff168152602001600067ffffffffffffffff811115610d8657610d85612dbd565b5b604051908082528060200260200182016040528015610db45781602001602082028036833780820191505090505b5081526020016000815250905080600360003373ffffffffffffffffffffffffffffffffffffffff1673ffffffffffffffffffffffffffffffffffffffff1681526020019081526020016000206000820151816000015560208201518160010160006101000a81548173ffffffffffffffffffffffffffffffffffffffff021916908373ffffffffffffffffffffffffffffffffffffffff1602179055506040820151816002019080519060200190610e6e929190612427565b506060820151816003015590505050565b60046020528060005260406000206000915090508060000154908060010160009054906101000a900473ffffffffffffffffffffffffffffffffffffffff16908060030154905083565b60008060009054906101000a900473ffffffffffffffffffffffffffffffffffffffff16905090565b610efa6124b2565b600160008381526020019081526020016000206040518060a0016040529081600082015481526020016001820160009054906101000a900473ffffffffffffffffffffffffffffffffffffffff1673ffffffffffffffffffffffffffffffffffffffff1673ffffffffffffffffffffffffffffffffffffffff16815260200160028201548152602001600382015481526020016004820154815250509050919050565b600115156002600084815260200190815260200160002060070160009054906101000a900460ff16151514611007576040517f08c379a0000000000000000000000000000000000000000000000000000000008152600401610ffe906130a8565b60405180910390fd5b3373ffffffffffffffffffffffffffffffffffffffff166002600084815260200190815260200160002060010160009054906101000a900473ffffffffffffffffffffffffffffffffffffffff1673ffffffffffffffffffffffffffffffffffffffff16146110ab576040517f08c379a00000000000000000000000000000000000000000000000000000000081526004016110a290613114565b60405180910390fd5b600060026000848152602001908152602001600020600601805490509050600060026000858152602001908152602001600020600401549050600060646005836110f59190613134565b6110ff91906131a5565b9050808261110d91906131d6565b915060008054906101000a900473ffffffffffffffffffffffffffffffffffffffff1673ffffffffffffffffffffffffffffffffffffffff166108fc829081150290604051600060405180830381858888f19350505050158015611175573d6000803e3d6000fd5b5060005b83811015611886578460016000600260008a815260200190815260200160002060060184815481106111ae576111ad612f7c565b5b9060005260206000200154815260200190815260200160002060040154036113955760006112416002600089815260200190815260200160002060060183815481106111fd576111fc612f7c565b5b906000526020600020015485600260008b8152602001908152602001600020600501898154811061123157611230612f7c565b5b90600052602060002001546123ea565b905060016000600260008a8152602001908152602001600020600601848154811061126f5761126e612f7c565b5b9060005260206000200154815260200190815260200160002060010160009054906101000a900473ffffffffffffffffffffffffffffffffffffffff1673ffffffffffffffffffffffffffffffffffffffff166108fc829081150290604051600060405180830381858888f193505050501580156112f1573d6000803e3d6000fd5b507f7084f5476618d8e60b11ef0d7d3f06914655adb8793e28ff7f018d4c76d505d560016000600260008b8152602001908152602001600020600601858154811061133f5761133e612f7c565b5b9060005260206000200154815260200190815260200160002060010160009054906101000a900473ffffffffffffffffffffffffffffffffffffffff168260405161138b92919061320a565b60405180910390a1505b60005b6003600060016000600260008c815260200190815260200160002060060186815481106113c8576113c7612f7c565b5b9060005260206000200154815260200190815260200160002060010160009054906101000a900473ffffffffffffffffffffffffffffffffffffffff1673ffffffffffffffffffffffffffffffffffffffff1673ffffffffffffffffffffffffffffffffffffffff168152602001908152602001600020600201805490508110156118785760026000888152602001908152602001600020600601828154811061147557611474612f7c565b5b90600052602060002001546003600060016000600260008d815260200190815260200160002060060187815481106114b0576114af612f7c565b5b9060005260206000200154815260200190815260200160002060010160009054906101000a900473ffffffffffffffffffffffffffffffffffffffff1673ffffffffffffffffffffffffffffffffffffffff1673ffffffffffffffffffffffffffffffffffffffff168152602001908152602001600020600201828154811061153c5761153b612f7c565b5b90600052602060002001540361186b576003600060016000600260008c8152602001908152602001600020600601868154811061157c5761157b612f7c565b5b9060005260206000200154815260200190815260200160002060010160009054906101000a900473ffffffffffffffffffffffffffffffffffffffff1673ffffffffffffffffffffffffffffffffffffffff1673ffffffffffffffffffffffffffffffffffffffff16815260200190815260200160002060020160016003600060016000600260008e8152602001908152602001600020600601888154811061162857611627612f7c565b5b9060005260206000200154815260200190815260200160002060010160009054906101000a900473ffffffffffffffffffffffffffffffffffffffff1673ffffffffffffffffffffffffffffffffffffffff1673ffffffffffffffffffffffffffffffffffffffff168152602001908152602001600020600201805490506116b091906131d6565b815481106116c1576116c0612f7c565b5b90600052602060002001546003600060016000600260008d815260200190815260200160002060060187815481106116fc576116fb612f7c565b5b9060005260206000200154815260200190815260200160002060010160009054906101000a900473ffffffffffffffffffffffffffffffffffffffff1673ffffffffffffffffffffffffffffffffffffffff1673ffffffffffffffffffffffffffffffffffffffff168152602001908152602001600020600201828154811061178857611787612f7c565b5b90600052602060002001819055506003600060016000600260008c815260200190815260200160002060060186815481106117c6576117c5612f7c565b5b9060005260206000200154815260200190815260200160002060010160009054906101000a900473ffffffffffffffffffffffffffffffffffffffff1673ffffffffffffffffffffffffffffffffffffffff1673ffffffffffffffffffffffffffffffffffffffff1681526020019081526020016000206002018054806118505761184f613233565b5b60019003818190600052602060002001600090559055611878565b8080600101915050611398565b508080600101915050611179565b505050505050565b60036020528060005260406000206000915090508060000154908060010160009054906101000a900473ffffffffffffffffffffffffffffffffffffffff16908060030154905083565b6118e06124f7565b600460008373ffffffffffffffffffffffffffffffffffffffff1673ffffffffffffffffffffffffffffffffffffffff168152602001908152602001600020604051806080016040529081600082015481526020016001820160009054906101000a900473ffffffffffffffffffffffffffffffffffffffff1673ffffffffffffffffffffffffffffffffffffffff1673ffffffffffffffffffffffffffffffffffffffff168152602001600282018054806020026020016040519081016040528092919081815260200182805480156119d957602002820191906000526020600020905b8154815260200190600101908083116119c5575b505050505081526020016003820154815250509050919050565b6119fb612535565b6002600083815260200190815260200160002060405180610100016040529081600082015481526020016001820160009054906101000a900473ffffffffffffffffffffffffffffffffffffffff1673ffffffffffffffffffffffffffffffffffffffff1673ffffffffffffffffffffffffffffffffffffffff16815260200160028201548152602001600382015481526020016004820154815260200160058201805480602002602001604051908101604052809291908181526020018280548015611ae757602002820191906000526020600020905b815481526020019060010190808311611ad3575b5050505050815260200160068201805480602002602001604051908101604052809291908181526020018280548015611b3f57602002820191906000526020600020905b815481526020019060010190808311611b2b575b505050505081526020016007820160009054906101000a900460ff1615151515815250509050919050565b600080600260008681526020019081526020016000206000015411611bc4576040517f08c379a0000000000000000000000000000000000000000000000000000000008152600401611bbb906132ae565b60405180910390fd5b600015156002600086815260200190815260200160002060070160009054906101000a900460ff16151514611c2e576040517f08c379a0000000000000000000000000000000000000000000000000000000008152600401611c2590612eca565b60405180910390fd5b60026000858152602001908152602001600020600201548210158015611c6a575060026000858152602001908152602001600020600301548211155b611ca9576040517f08c379a0000000000000000000000000000000000000000000000000000000008152600401611ca090612f5c565b60405180910390fd5b60006002600086815260200190815260200160002060060180549050905060006002600087815260200190815260200160002060040154905060006064600583611cf39190613134565b611cfd91906131a5565b90508082611d0b91906131d6565b9150600082600260008a81526020019081526020016000206005018860ff1681548110611d3b57611d3a612f7c565b5b906000526020600020015487611d5191906131a5565b611d5b9190613134565b9050809450505050509392505050565b6000600460003373ffffffffffffffffffffffffffffffffffffffff1673ffffffffffffffffffffffffffffffffffffffff1681526020019081526020016000206000015411611df0576040517f08c379a0000000000000000000000000000000000000000000000000000000008152600401611de790613340565b60405180910390fd5b3373ffffffffffffffffffffffffffffffffffffffff166002600084815260200190815260200160002060010160009054906101000a900473ffffffffffffffffffffffffffffffffffffffff1673ffffffffffffffffffffffffffffffffffffffff1614611e94576040517f08c379a0000000000000000000000000000000000000000000000000000000008152600401611e8b906133ac565b60405180910390fd5b600015156002600084815260200190815260200160002060070160009054906101000a900460ff16151514611efe576040517f08c379a0000000000000000000000000000000000000000000000000000000008152600401611ef590612eca565b60405180910390fd5b60016002600084815260200190815260200160002060070160006101000a81548160ff021916908315150217905550611f378282610f9d565b7f56fe9aa41f0884b06717b271b0b1b2eedc26fe9341fb37ab44d43e1f4405c98882336002600086815260200190815260200160002060040154604051611f8093929190612921565b60405180910390a15050565b6000600460003373ffffffffffffffffffffffffffffffffffffffff1673ffffffffffffffffffffffffffffffffffffffff1681526020019081526020016000206000015411612011576040517f08c379a000000000000000000000000000000000000000000000000000000000815260040161200890613340565b60405180910390fd5b60008411612054576040517f08c379a000000000000000000000000000000000000000000000000000000000815260040161204b9061343e565b60405180910390fd5b838311612096576040517f08c379a000000000000000000000000000000000000000000000000000000000815260040161208d906134d0565b60405180910390fd5b60006040518061010001604052808481526020013373ffffffffffffffffffffffffffffffffffffffff168152602001868152602001858152602001600081526020016001846120e69190612d89565b67ffffffffffffffff8111156120ff576120fe612dbd565b5b60405190808252806020026020018201604052801561212d5781602001602082028036833780820191505090505b508152602001600067ffffffffffffffff81111561214e5761214d612dbd565b5b60405190808252806020026020018201604052801561217c5781602001602082028036833780820191505090505b50815260200160001515815250905080600260008581526020019081526020016000206000820151816000015560208201518160010160006101000a81548173ffffffffffffffffffffffffffffffffffffffff021916908373ffffffffffffffffffffffffffffffffffffffff16021790555060408201518160020155606082015181600301556080820151816004015560a082015181600501908051906020019061222a929190612427565b5060c0820151816006019080519060200190612247929190612427565b5060e08201518160070160006101000a81548160ff021916908315150217905550905050600460003373ffffffffffffffffffffffffffffffffffffffff1673ffffffffffffffffffffffffffffffffffffffff1681526020019081526020016000206002018390806001815401808255809150506001900390600052602060002001600090919091909150557f4d946047a8fad903eae1a1ebbf75dc1667359f7ee49a61c577a4c6c70bdceb13833387876040516123099493929190612fab565b60405180910390a15050505050565b600080600460008573ffffffffffffffffffffffffffffffffffffffff1673ffffffffffffffffffffffffffffffffffffffff1681526020019081526020016000206000015411801561236f575060001515821515145b1561237c578290506123e4565b6000600360008573ffffffffffffffffffffffffffffffffffffffff1673ffffffffffffffffffffffffffffffffffffffff168152602001908152602001600020600001541180156123d2575060011515821515145b156123df578290506123e4565b600090505b92915050565b6000808383600160008881526020019081526020016000206002015461241091906131a5565b61241a9190613134565b9050809150509392505050565b828054828255906000526020600020908101928215612463579160200282015b82811115612462578251825591602001919060010190612447565b5b5090506124709190612592565b5090565b604051806080016040528060008152602001600073ffffffffffffffffffffffffffffffffffffffff16815260200160608152602001600081525090565b6040518060a0016040528060008152602001600073ffffffffffffffffffffffffffffffffffffffff1681526020016000815260200160008152602001600081525090565b604051806080016040528060008152602001600073ffffffffffffffffffffffffffffffffffffffff16815260200160608152602001600081525090565b60405180610100016040528060008152602001600073ffffffffffffffffffffffffffffffffffffffff16815260200160008152602001600081526020016000815260200160608152602001606081526020016000151581525090565b5b808211156125ab576000816000905550600101612593565b5090565b600080fd5b6000819050919050565b6125c7816125b4565b81146125d257600080fd5b50565b6000813590506125e4816125be565b92915050565b60008060408385031215612601576126006125af565b5b600061260f858286016125d5565b9250506020612620858286016125d5565b9150509250929050565b6000602082840312156126405761263f6125af565b5b600061264e848285016125d5565b91505092915050565b612660816125b4565b82525050565b600073ffffffffffffffffffffffffffffffffffffffff82169050919050565b600061269182612666565b9050919050565b6126a181612686565b82525050565b60008115159050919050565b6126bc816126a7565b82525050565b600060c0820190506126d76000830189612657565b6126e46020830188612698565b6126f16040830187612657565b6126fe6060830186612657565b61270b6080830185612657565b61271860a08301846126b3565b979650505050505050565b600060a0820190506127386000830188612657565b6127456020830187612698565b6127526040830186612657565b61275f6060830185612657565b61276c6080830184612657565b9695505050505050565b61277f81612686565b811461278a57600080fd5b50565b60008135905061279c81612776565b92915050565b6000602082840312156127b8576127b76125af565b5b60006127c68482850161278d565b91505092915050565b6127d8816125b4565b82525050565b6127e781612686565b82525050565b600081519050919050565b600082825260208201905092915050565b6000819050602082019050919050565b600061282583836127cf565b60208301905092915050565b6000602082019050919050565b6000612849826127ed565b61285381856127f8565b935061285e83612809565b8060005b8381101561288f5781516128768882612819565b975061288183612831565b925050600181019050612862565b5085935050505092915050565b60006080830160008301516128b460008601826127cf565b5060208301516128c760208601826127de565b50604083015184820360408601526128df828261283e565b91505060608301516128f460608601826127cf565b508091505092915050565b60006020820190508181036000830152612919818461289c565b905092915050565b60006060820190506129366000830186612657565b6129436020830185612698565b6129506040830184612657565b949350505050565b600060208201905061296d6000830184612698565b92915050565b60a08201600082015161298960008501826127cf565b50602082015161299c60208501826127de565b5060408201516129af60408501826127cf565b5060608201516129c260608501826127cf565b5060808201516129d560808501826127cf565b50505050565b600060a0820190506129f06000830184612973565b92915050565b6000608083016000830151612a0e60008601826127cf565b506020830151612a2160208601826127de565b5060408301518482036040860152612a39828261283e565b9150506060830151612a4e60608601826127cf565b508091505092915050565b60006020820190508181036000830152612a7381846129f6565b905092915050565b612a84816126a7565b82525050565b600061010083016000830151612aa360008601826127cf565b506020830151612ab660208601826127de565b506040830151612ac960408601826127cf565b506060830151612adc60608601826127cf565b506080830151612aef60808601826127cf565b5060a083015184820360a0860152612b07828261283e565b91505060c083015184820360c0860152612b21828261283e565b91505060e0830151612b3660e0860182612a7b565b508091505092915050565b60006020820190508181036000830152612b5b8184612a8a565b905092915050565b600060ff82169050919050565b612b7981612b63565b8114612b8457600080fd5b50565b600081359050612b9681612b70565b92915050565b600080600060608486031215612bb557612bb46125af565b5b6000612bc3868287016125d5565b9350506020612bd486828701612b87565b9250506040612be5868287016125d5565b9150509250925092565b6000602082019050612c046000830184612657565b92915050565b60008060008060808587031215612c2457612c236125af565b5b6000612c32878288016125d5565b9450506020612c43878288016125d5565b9350506040612c54878288016125d5565b9250506060612c65878288016125d5565b91505092959194509250565b612c7a816126a7565b8114612c8557600080fd5b50565b600081359050612c9781612c71565b92915050565b60008060408385031215612cb457612cb36125af565b5b6000612cc28582860161278d565b9250506020612cd385828601612c88565b9150509250929050565b600082825260208201905092915050565b7f416c726561647920726567697374657265642061732053656c6c657200000000600082015250565b6000612d24601c83612cdd565b9150612d2f82612cee565b602082019050919050565b60006020820190508181036000830152612d5381612d17565b9050919050565b7f4e487b7100000000000000000000000000000000000000000000000000000000600052601160045260246000fd5b6000612d94826125b4565b9150612d9f836125b4565b9250828201905080821115612db757612db6612d5a565b5b92915050565b7f4e487b7100000000000000000000000000000000000000000000000000000000600052604160045260246000fd5b7f4f6e6c792042757965722063616e2063616c6c20746869732066756e6374696f60008201527f6e00000000000000000000000000000000000000000000000000000000000000602082015250565b6000612e48602183612cdd565b9150612e5382612dec565b604082019050919050565b60006020820190508181036000830152612e7781612e3b565b9050919050565b7f5175697a20697320616c726561647920656e6465640000000000000000000000600082015250565b6000612eb4601583612cdd565b9150612ebf82612e7e565b602082019050919050565b60006020820190508181036000830152612ee381612ea7565b9050919050565b7f416d6f756e742073686f756c64206265206265747765656e206d696e20616e6460008201527f206d617820616d6f756e74000000000000000000000000000000000000000000602082015250565b6000612f46602b83612cdd565b9150612f5182612eea565b604082019050919050565b60006020820190508181036000830152612f7581612f39565b9050919050565b7f4e487b7100000000000000000000000000000000000000000000000000000000600052603260045260246000fd5b6000608082019050612fc06000830187612657565b612fcd6020830186612698565b612fda6040830185612657565b612fe76060830184612657565b95945050505050565b7f416c726561647920726567697374657265642061732042757965720000000000600082015250565b6000613026601b83612cdd565b915061303182612ff0565b602082019050919050565b6000602082019050818103600083015261305581613019565b9050919050565b7f5175697a206973206e6f7420656e646564207965740000000000000000000000600082015250565b6000613092601583612cdd565b915061309d8261305c565b602082019050919050565b600060208201905081810360008301526130c181613085565b9050919050565b7f4f6e6c79206f776e65722063616e207472616e73666572207265776172647300600082015250565b60006130fe601f83612cdd565b9150613109826130c8565b602082019050919050565b6000602082019050818103600083015261312d816130f1565b9050919050565b600061313f826125b4565b915061314a836125b4565b9250828202613158816125b4565b9150828204841483151761316f5761316e612d5a565b5b5092915050565b7f4e487b7100000000000000000000000000000000000000000000000000000000600052601260045260246000fd5b60006131b0826125b4565b91506131bb836125b4565b9250826131cb576131ca613176565b5b828204905092915050565b60006131e1826125b4565b91506131ec836125b4565b925082820390508181111561320457613203612d5a565b5b92915050565b600060408201905061321f6000830185612698565b61322c6020830184612657565b9392505050565b7f4e487b7100000000000000000000000000000000000000000000000000000000600052603160045260246000fd5b7f5175697a20646f6573206e6f7420657869737400000000000000000000000000600082015250565b6000613298601383612cdd565b91506132a382613262565b602082019050919050565b600060208201905081810360008301526132c78161328b565b9050919050565b7f4f6e6c792053656c6c65722063616e2063616c6c20746869732066756e63746960008201527f6f6e000000000000000000000000000000000000000000000000000000000000602082015250565b600061332a602283612cdd565b9150613335826132ce565b604082019050919050565b600060208201905081810360008301526133598161331d565b9050919050565b7f4f6e6c79206f776e65722063616e20656e6420746865207175697a0000000000600082015250565b6000613396601b83612cdd565b91506133a182613360565b602082019050919050565b600060208201905081810360008301526133c581613389565b9050919050565b7f4d696e696d756d20616d6f756e742073686f756c64206265206772656174657260008201527f207468616e203000000000000000000000000000000000000000000000000000602082015250565b6000613428602783612cdd565b9150613433826133cc565b604082019050919050565b600060208201905081810360008301526134578161341b565b9050919050565b7f4d6178696d756d20616d6f756e742073686f756c64206265206772656174657260008201527f207468616e206d696e696d756d20616d6f756e74000000000000000000000000602082015250565b60006134ba603483612cdd565b91506134c58261345e565b604082019050919050565b600060208201905081810360008301526134e9816134ad565b905091905056fea264697066735822122000868dddb4588c2d88a080d05c62dd4f40e9bb7576da81d3e40a5ce03a6df1dd64736f6c634300081c0033",
  "linkReferences": {},
  "deployedLinkReferences": {}
}