{
  "_format": "hh-sol-artifact-1",
  "contractName": "MarketPlaceContract",
  "sourceName": "contracts/MarketPlaceContract.sol",
  "abi": [
    {
      "inputs": [],
      "stateMutability": "nonpayable",
      "type": "constructor"
    },
    {
      "anonymous": false,
      "inputs": [
        {
          "indexed": false,
          "internalType": "uint256",
          "name": "id",
          "type": "uint256"
        },
        {
          "indexed": false,
          "internalType": "address",
          "name": "owner",
          "type": "address"
        },
        {
          "indexed": false,
          "internalType": "uint256",
          "name": "minAmt",
          "type": "uint256"
        },
        {
          "indexed": false,
          "internalType": "uint256",
          "name": "maxAmt",
          "type": "uint256"
        }
      ],
      "name": "QuizCreated",
      "type": "event"
    },
    {
      "anonymous": false,
      "inputs": [
        {
          "indexed": false,
          "internalType": "uint256",
          "name": "id",
          "type": "uint256"
        },
        {
          "indexed": false,
          "internalType": "address",
          "name": "owner",
          "type": "address"
        },
        {
          "indexed": false,
          "internalType": "uint256",
          "name": "totalAmt",
          "type": "uint256"
        }
      ],
      "name": "QuizEnded",
      "type": "event"
    },
    {
      "anonymous": false,
      "inputs": [
        {
          "indexed": false,
          "internalType": "uint256",
          "name": "id",
          "type": "uint256"
        },
        {
          "indexed": false,
          "internalType": "address",
          "name": "owner",
          "type": "address"
        },
        {
          "indexed": false,
          "internalType": "uint256",
          "name": "amt",
          "type": "uint256"
        },
        {
          "indexed": false,
          "internalType": "uint256",
          "name": "quizId",
          "type": "uint256"
        }
      ],
      "name": "TicketBought",
      "type": "event"
    },
    {
      "anonymous": false,
      "inputs": [
        {
          "indexed": false,
          "internalType": "address",
          "name": "owner",
          "type": "address"
        },
        {
          "indexed": false,
          "internalType": "uint256",
          "name": "amt",
          "type": "uint256"
        }
      ],
      "name": "Withdrawn",
      "type": "event"
    },
    {
      "inputs": [
        {
          "internalType": "uint256",
          "name": "_QuizId",
          "type": "uint256"
        }
      ],
      "name": "appvoreRequest",
      "outputs": [],
      "stateMutability": "nonpayable",
      "type": "function"
    },
    {
      "inputs": [
        {
          "internalType": "uint256",
          "name": "_QuizId",
          "type": "uint256"
        },
        {
          "internalType": "uint256",
          "name": "betIndex",
          "type": "uint256"
        }
      ],
      "name": "buyTicket",
      "outputs": [],
      "stateMutability": "payable",
      "type": "function"
    },
    {
      "inputs": [
        {
          "internalType": "address",
          "name": "",
          "type": "address"
        }
      ],
      "name": "buyerMap",
      "outputs": [
        {
          "internalType": "uint256",
          "name": "id",
          "type": "uint256"
        },
        {
          "internalType": "address",
          "name": "walletAdd",
          "type": "address"
        },
        {
          "internalType": "uint256",
          "name": "totalAmt",
          "type": "uint256"
        }
      ],
      "stateMutability": "view",
      "type": "function"
    },
    {
      "inputs": [
        {
          "internalType": "uint256",
          "name": "_minAmt",
          "type": "uint256"
        },
        {
          "internalType": "uint256",
          "name": "_maxAmt",
          "type": "uint256"
        },
        {
          "internalType": "uint256",
          "name": "_id",
          "type": "uint256"
        },
        {
          "internalType": "uint256",
          "name": "_numOfoptions",
          "type": "uint256"
        },
        {
          "internalType": "uint256",
          "name": "_seller_inv",
          "type": "uint256"
        }
      ],
      "name": "createQuiz",
      "outputs": [],
      "stateMutability": "payable",
      "type": "function"
    },
    {
      "inputs": [
        {
          "internalType": "uint256",
          "name": "_QuizId",
          "type": "uint256"
        },
        {
          "internalType": "uint256",
          "name": "_WinningInd",
          "type": "uint256"
        }
      ],
      "name": "endQuiz",
      "outputs": [],
      "stateMutability": "nonpayable",
      "type": "function"
    },
    {
      "inputs": [],
      "name": "getAdmin",
      "outputs": [
        {
          "internalType": "address",
          "name": "",
          "type": "address"
        }
      ],
      "stateMutability": "view",
      "type": "function"
    },
    {
      "inputs": [
        {
          "internalType": "address",
          "name": "_walletAdd",
          "type": "address"
        }
      ],
      "name": "getBuyer",
      "outputs": [
        {
          "components": [
            {
              "internalType": "uint256",
              "name": "id",
              "type": "uint256"
            },
            {
              "internalType": "address",
              "name": "walletAdd",
              "type": "address"
            },
            {
              "internalType": "uint256[]",
              "name": "tickets",
              "type": "uint256[]"
            },
            {
              "internalType": "uint256",
              "name": "totalAmt",
              "type": "uint256"
            }
          ],
          "internalType": "struct MarketPlaceContract.Buyer",
          "name": "",
          "type": "tuple"
        }
      ],
      "stateMutability": "view",
      "type": "function"
    },
    {
      "inputs": [
        {
          "internalType": "uint256",
          "name": "_QuizId",
          "type": "uint256"
        },
        {
          "internalType": "uint8",
          "name": "_betIndex",
          "type": "uint8"
        },
        {
          "internalType": "uint256",
          "name": "_amt",
          "type": "uint256"
        }
      ],
      "name": "getPredictedWinAmount",
      "outputs": [
        {
          "internalType": "uint256",
          "name": "",
          "type": "uint256"
        }
      ],
      "stateMutability": "view",
      "type": "function"
    },
    {
      "inputs": [],
      "name": "getProfit",
      "outputs": [
        {
          "internalType": "uint256",
          "name": "",
          "type": "uint256"
        }
      ],
      "stateMutability": "view",
      "type": "function"
    },
    {
      "inputs": [
        {
          "internalType": "uint256",
          "name": "_id",
          "type": "uint256"
        }
      ],
      "name": "getQuiz",
      "outputs": [
        {
          "components": [
            {
              "internalType": "uint256",
              "name": "id",
              "type": "uint256"
            },
            {
              "internalType": "address",
              "name": "owner",
              "type": "address"
            },
            {
              "internalType": "uint256",
              "name": "minAmt",
              "type": "uint256"
            },
            {
              "internalType": "uint256",
              "name": "maxAmt",
              "type": "uint256"
            },
            {
              "internalType": "uint256",
              "name": "seller_invested",
              "type": "uint256"
            },
            {
              "internalType": "uint256",
              "name": "totalAmt",
              "type": "uint256"
            },
            {
              "internalType": "uint256[]",
              "name": "options",
              "type": "uint256[]"
            },
            {
              "internalType": "uint256[]",
              "name": "tickets",
              "type": "uint256[]"
            },
            {
              "internalType": "bool",
              "name": "isEnded",
              "type": "bool"
            },
            {
              "internalType": "bool",
              "name": "isApproved",
              "type": "bool"
            }
          ],
          "internalType": "struct MarketPlaceContract.Quiz",
          "name": "",
          "type": "tuple"
        }
      ],
      "stateMutability": "view",
      "type": "function"
    },
    {
      "inputs": [
        {
          "internalType": "address",
          "name": "_walletAdd",
          "type": "address"
        }
      ],
      "name": "getSeller",
      "outputs": [
        {
          "components": [
            {
              "internalType": "uint256",
              "name": "id",
              "type": "uint256"
            },
            {
              "internalType": "address",
              "name": "walletAdd",
              "type": "address"
            },
            {
              "internalType": "uint256[]",
              "name": "quizzes",
              "type": "uint256[]"
            },
            {
              "internalType": "uint256",
              "name": "totalAmt",
              "type": "uint256"
            },
            {
              "internalType": "uint256",
              "name": "profit",
              "type": "uint256"
            }
          ],
          "internalType": "struct MarketPlaceContract.Seller",
          "name": "",
          "type": "tuple"
        }
      ],
      "stateMutability": "view",
      "type": "function"
    },
    {
      "inputs": [
        {
          "internalType": "uint256",
          "name": "_id",
          "type": "uint256"
        }
      ],
      "name": "getTicket",
      "outputs": [
        {
          "components": [
            {
              "internalType": "uint256",
              "name": "id",
              "type": "uint256"
            },
            {
              "internalType": "address",
              "name": "owner",
              "type": "address"
            },
            {
              "internalType": "uint256",
              "name": "amt",
              "type": "uint256"
            },
            {
              "internalType": "uint256",
              "name": "quizId",
              "type": "uint256"
            },
            {
              "internalType": "uint256",
              "name": "betIndex",
              "type": "uint256"
            },
            {
              "internalType": "bool",
              "name": "isWithdrawn",
              "type": "bool"
            },
            {
              "internalType": "uint256",
              "name": "winAmt",
              "type": "uint256"
            }
          ],
          "internalType": "struct MarketPlaceContract.Ticket",
          "name": "",
          "type": "tuple"
        }
      ],
      "stateMutability": "view",
      "type": "function"
    },
    {
      "inputs": [
        {
          "internalType": "address",
          "name": "",
          "type": "address"
        }
      ],
      "name": "isAdminMap",
      "outputs": [
        {
          "internalType": "bool",
          "name": "",
          "type": "bool"
        }
      ],
      "stateMutability": "view",
      "type": "function"
    },
    {
      "inputs": [
        {
          "internalType": "address",
          "name": "_walletAdd",
          "type": "address"
        },
        {
          "internalType": "bool",
          "name": "isBuyer",
          "type": "bool"
        }
      ],
      "name": "login",
      "outputs": [
        {
          "internalType": "address",
          "name": "",
          "type": "address"
        }
      ],
      "stateMutability": "view",
      "type": "function"
    },
    {
      "inputs": [
        {
          "internalType": "uint256",
          "name": "",
          "type": "uint256"
        }
      ],
      "name": "quizMap",
      "outputs": [
        {
          "internalType": "uint256",
          "name": "id",
          "type": "uint256"
        },
        {
          "internalType": "address",
          "name": "owner",
          "type": "address"
        },
        {
          "internalType": "uint256",
          "name": "minAmt",
          "type": "uint256"
        },
        {
          "internalType": "uint256",
          "name": "maxAmt",
          "type": "uint256"
        },
        {
          "internalType": "uint256",
          "name": "seller_invested",
          "type": "uint256"
        },
        {
          "internalType": "uint256",
          "name": "totalAmt",
          "type": "uint256"
        },
        {
          "internalType": "bool",
          "name": "isEnded",
          "type": "bool"
        },
        {
          "internalType": "bool",
          "name": "isApproved",
          "type": "bool"
        }
      ],
      "stateMutability": "view",
      "type": "function"
    },
    {
      "inputs": [],
      "name": "registerAsAdmin",
      "outputs": [],
      "stateMutability": "nonpayable",
      "type": "function"
    },
    {
      "inputs": [],
      "name": "registerAsBuyer",
      "outputs": [],
      "stateMutability": "nonpayable",
      "type": "function"
    },
    {
      "inputs": [],
      "name": "registerAsSeller",
      "outputs": [],
      "stateMutability": "nonpayable",
      "type": "function"
    },
    {
      "inputs": [
        {
          "internalType": "uint256",
          "name": "_QuizId",
          "type": "uint256"
        }
      ],
      "name": "rejectRequest",
      "outputs": [],
      "stateMutability": "nonpayable",
      "type": "function"
    },
    {
      "inputs": [
        {
          "internalType": "address",
          "name": "",
          "type": "address"
        }
      ],
      "name": "sellerMap",
      "outputs": [
        {
          "internalType": "uint256",
          "name": "id",
          "type": "uint256"
        },
        {
          "internalType": "address",
          "name": "walletAdd",
          "type": "address"
        },
        {
          "internalType": "uint256",
          "name": "totalAmt",
          "type": "uint256"
        },
        {
          "internalType": "uint256",
          "name": "profit",
          "type": "uint256"
        }
      ],
      "stateMutability": "view",
      "type": "function"
    },
    {
      "inputs": [
        {
          "internalType": "uint256",
          "name": "",
          "type": "uint256"
        }
      ],
      "name": "ticketMap",
      "outputs": [
        {
          "internalType": "uint256",
          "name": "id",
          "type": "uint256"
        },
        {
          "internalType": "address",
          "name": "owner",
          "type": "address"
        },
        {
          "internalType": "uint256",
          "name": "amt",
          "type": "uint256"
        },
        {
          "internalType": "uint256",
          "name": "quizId",
          "type": "uint256"
        },
        {
          "internalType": "uint256",
          "name": "betIndex",
          "type": "uint256"
        },
        {
          "internalType": "bool",
          "name": "isWithdrawn",
          "type": "bool"
        },
        {
          "internalType": "uint256",
          "name": "winAmt",
          "type": "uint256"
        }
      ],
      "stateMutability": "view",
      "type": "function"
    },
    {
      "inputs": [
        {
          "internalType": "uint256",
          "name": "_QuizId",
          "type": "uint256"
        },
        {
          "internalType": "uint256",
          "name": "_WinningInd",
          "type": "uint256"
        }
      ],
      "name": "transferRewardsToWinner",
      "outputs": [],
      "stateMutability": "payable",
      "type": "function"
    },
    {
      "inputs": [
        {
          "internalType": "uint256",
          "name": "_amt",
          "type": "uint256"
        }
      ],
      "name": "withdraw",
      "outputs": [],
      "stateMutability": "nonpayable",
      "type": "function"
    },
    {
      "inputs": [],
      "name": "withdrawAll",
      "outputs": [],
      "stateMutability": "nonpayable",
      "type": "function"
    }
  ],
  "bytecode": "0x60806040526000600155348015601457600080fd5b50336000806101000a81548173ffffffffffffffffffffffffffffffffffffffff021916908373ffffffffffffffffffffffffffffffffffffffff1602179055506001600260008060009054906101000a900473ffffffffffffffffffffffffffffffffffffffff1673ffffffffffffffffffffffffffffffffffffffff1673ffffffffffffffffffffffffffffffffffffffff16815260200190815260200160002060006101000a81548160ff021916908315150217905550613eb9806100dd6000396000f3fe60806040526004361061014b5760003560e01c80637dc379fa116100b6578063a323d29e1161006f578063a323d29e14610472578063a3f7e096146104af578063af4fc955146104ec578063c694e33d14610529578063d4a5c1c214610552578063f728635a1461056e5761014b565b80637dc379fa1461035d578063853828b61461039a5780638b7068bf146103b15780638e9a4c34146103da5780639af6a08a146104175780639cdb1837146104335761014b565b8063500e3cbd11610108578063500e3cbd146102305780635721e419146102735780635b4a5cf2146102b0578063679dffb4146102c75780636e78c51f146102f25780636e9960c3146103325761014b565b8063128b853214610150578063298ec208146101675780632d7788db146101835780632e1a7d4d146101ac578063490c369d146101d5578063498d55b814610219575b600080fd5b34801561015c57600080fd5b506101656105ab565b005b610181600480360381019061017c9190612ba1565b6107d5565b005b34801561018f57600080fd5b506101aa60048036038101906101a59190612be1565b610d53565b005b3480156101b857600080fd5b506101d360048036038101906101ce9190612be1565b610e7b565b005b3480156101e157600080fd5b506101fc60048036038101906101f79190612be1565b6110b0565b604051610210989796959493929190612c79565b60405180910390f35b34801561022557600080fd5b5061022e611132565b005b34801561023c57600080fd5b5061025760048036038101906102529190612be1565b611219565b60405161026a9796959493929190612cf7565b60405180910390f35b34801561027f57600080fd5b5061029a60048036038101906102959190612d92565b611288565b6040516102a79190612eef565b60405180910390f35b3480156102bc57600080fd5b506102c56113a3565b005b3480156102d357600080fd5b506102dc6115bc565b6040516102e99190612f11565b60405180910390f35b3480156102fe57600080fd5b5061031960048036038101906103149190612d92565b611652565b6040516103299493929190612f2c565b60405180910390f35b34801561033e57600080fd5b506103476116a2565b6040516103549190612f71565b60405180910390f35b34801561036957600080fd5b50610384600480360381019061037f9190612be1565b6116cb565b6040516103919190613029565b60405180910390f35b3480156103a657600080fd5b506103af61179b565b005b3480156103bd57600080fd5b506103d860048036038101906103d39190612be1565b611934565b005b3480156103e657600080fd5b5061040160048036038101906103fc9190612d92565b611a5c565b60405161040e9190613044565b60405180910390f35b610431600480360381019061042c9190612ba1565b611a7c565b005b34801561043f57600080fd5b5061045a60048036038101906104559190612d92565b611dbb565b6040516104699392919061305f565b60405180910390f35b34801561047e57600080fd5b5061049960048036038101906104949190612d92565b611e05565b6040516104a6919061310c565b60405180910390f35b3480156104bb57600080fd5b506104d660048036038101906104d19190612be1565b611f2a565b6040516104e3919061320f565b60405180910390f35b3480156104f857600080fd5b50610513600480360381019061050e919061326a565b6120c6565b6040516105209190612f11565b60405180910390f35b34801561053557600080fd5b50610550600480360381019061054b9190612ba1565b6122a3565b005b61056c600480360381019061056791906132bd565b6124c4565b005b34801561057a57600080fd5b5061059560048036038101906105909190613364565b6128e5565b6040516105a29190612f71565b60405180910390f35b6000600660003373ffffffffffffffffffffffffffffffffffffffff1673ffffffffffffffffffffffffffffffffffffffff1681526020019081526020016000206000015414610630576040517f08c379a000000000000000000000000000000000000000000000000000000000815260040161062790613401565b60405180910390fd5b60006040518060a001604052806001600660003373ffffffffffffffffffffffffffffffffffffffff1673ffffffffffffffffffffffffffffffffffffffff1681526020019081526020016000206002018054905061068f9190613450565b81526020013373ffffffffffffffffffffffffffffffffffffffff168152602001600067ffffffffffffffff8111156106cb576106ca613484565b5b6040519080825280602002602001820160405280156106f95781602001602082028036833780820191505090505b508152602001600081526020016000815250905080600660003373ffffffffffffffffffffffffffffffffffffffff1673ffffffffffffffffffffffffffffffffffffffff1681526020019081526020016000206000820151816000015560208201518160010160006101000a81548173ffffffffffffffffffffffffffffffffffffffff021916908373ffffffffffffffffffffffffffffffffffffffff16021790555060408201518160020190805190602001906107ba9291906129b7565b50606082015181600301556080820151816004015590505050565b6000600560003373ffffffffffffffffffffffffffffffffffffffff1673ffffffffffffffffffffffffffffffffffffffff168152602001908152602001600020600001541161085a576040517f08c379a000000000000000000000000000000000000000000000000000000000815260040161085190613525565b60405180910390fd5b600015156004600084815260200190815260200160002060080160009054906101000a900460ff161515146108c4576040517f08c379a00000000000000000000000000000000000000000000000000000000081526004016108bb90613591565b60405180910390fd5b60046000838152602001908152602001600020600201543410158015610900575060046000838152602001908152602001600020600301543411155b61093f576040517f08c379a000000000000000000000000000000000000000000000000000000000815260040161093690613623565b60405180910390fd5b6000600460008481526020019081526020016000206007018054905090506000429050600082826109709190613450565b905060006040518060e001604052808381526020013373ffffffffffffffffffffffffffffffffffffffff1681526020013481526020018781526020018681526020016000151581526020016000815250905080600360008481526020019081526020016000206000820151816000015560208201518160010160006101000a81548173ffffffffffffffffffffffffffffffffffffffff021916908373ffffffffffffffffffffffffffffffffffffffff16021790555060408201518160020155606082015181600301556080820151816004015560a08201518160050160006101000a81548160ff02191690831515021790555060c0820151816006015590505060046000878152602001908152602001600020600701829080600181540180825580915050600190039060005260206000200160009091909190915055600560003373ffffffffffffffffffffffffffffffffffffffff1673ffffffffffffffffffffffffffffffffffffffff16815260200190815260200160002060020182908060018154018082558091505060019003906000526020600020016000909190919091505560006064600534610b2a9190613643565b610b3491906136b4565b905060006064600534610b479190613643565b610b5191906136b4565b90508160016000828254610b659190613450565b925050819055508060066000600460008c815260200190815260200160002060010160009054906101000a900473ffffffffffffffffffffffffffffffffffffffff1673ffffffffffffffffffffffffffffffffffffffff1673ffffffffffffffffffffffffffffffffffffffff1681526020019081526020016000206004016000828254610bf49190613450565b92505081905550808234610c0891906136e5565b610c1291906136e5565b600560003373ffffffffffffffffffffffffffffffffffffffff1673ffffffffffffffffffffffffffffffffffffffff1681526020019081526020016000206003016000828254610c639190613450565b92505081905550808234610c7791906136e5565b610c8191906136e5565b600460008a81526020019081526020016000206005016000828254610ca69190613450565b92505081905550808234610cba91906136e5565b610cc491906136e5565b600460008a81526020019081526020016000206006018881548110610cec57610ceb613719565b5b906000526020600020016000828254610d059190613450565b925050819055507fa38a8990067bfd128af9e1c8e749a6940ee00f3621f6f6c8a9c93783a0b9dffe8433348b604051610d419493929190612f2c565b60405180910390a15050505050505050565b600260003373ffffffffffffffffffffffffffffffffffffffff1673ffffffffffffffffffffffffffffffffffffffff16815260200190815260200160002060009054906101000a900460ff16610ddf576040517f08c379a0000000000000000000000000000000000000000000000000000000008152600401610dd6906137ba565b60405180910390fd5b600015156004600083815260200190815260200160002060080160019054906101000a900460ff16151514610e49576040517f08c379a0000000000000000000000000000000000000000000000000000000008152600401610e4090613826565b60405180910390fd5b60006004600083815260200190815260200160002060080160016101000a81548160ff02191690831515021790555050565b60008054906101000a900473ffffffffffffffffffffffffffffffffffffffff1673ffffffffffffffffffffffffffffffffffffffff163373ffffffffffffffffffffffffffffffffffffffff1614610f09576040517f08c379a0000000000000000000000000000000000000000000000000000000008152600401610f00906137ba565b60405180910390fd5b60008111610f4c576040517f08c379a0000000000000000000000000000000000000000000000000000000008152600401610f4390613892565b60405180910390fd5b47811115610f8f576040517f08c379a0000000000000000000000000000000000000000000000000000000008152600401610f86906138fe565b60405180910390fd5b600154811115610fd4576040517f08c379a0000000000000000000000000000000000000000000000000000000008152600401610fcb90613990565b60405180910390fd5b60008054906101000a900473ffffffffffffffffffffffffffffffffffffffff1673ffffffffffffffffffffffffffffffffffffffff166108fc829081150290604051600060405180830381858888f1935050505015801561103a573d6000803e3d6000fd5b50806001600082825461104d91906136e5565b925050819055507f7084f5476618d8e60b11ef0d7d3f06914655adb8793e28ff7f018d4c76d505d560008054906101000a900473ffffffffffffffffffffffffffffffffffffffff16826040516110a59291906139b0565b60405180910390a150565b60046020528060005260406000206000915090508060000154908060010160009054906101000a900473ffffffffffffffffffffffffffffffffffffffff16908060020154908060030154908060040154908060050154908060080160009054906101000a900460ff16908060080160019054906101000a900460ff16905088565b600260003373ffffffffffffffffffffffffffffffffffffffff1673ffffffffffffffffffffffffffffffffffffffff16815260200190815260200160002060009054906101000a900460ff16156111bf576040517f08c379a00000000000000000000000000000000000000000000000000000000081526004016111b690613a25565b60405180910390fd5b6001600260003373ffffffffffffffffffffffffffffffffffffffff1673ffffffffffffffffffffffffffffffffffffffff16815260200190815260200160002060006101000a81548160ff021916908315150217905550565b60036020528060005260406000206000915090508060000154908060010160009054906101000a900473ffffffffffffffffffffffffffffffffffffffff16908060020154908060030154908060040154908060050160009054906101000a900460ff16908060060154905087565b611290612a04565b600560008373ffffffffffffffffffffffffffffffffffffffff1673ffffffffffffffffffffffffffffffffffffffff168152602001908152602001600020604051806080016040529081600082015481526020016001820160009054906101000a900473ffffffffffffffffffffffffffffffffffffffff1673ffffffffffffffffffffffffffffffffffffffff1673ffffffffffffffffffffffffffffffffffffffff1681526020016002820180548060200260200160405190810160405280929190818152602001828054801561138957602002820191906000526020600020905b815481526020019060010190808311611375575b505050505081526020016003820154815250509050919050565b6000600560003373ffffffffffffffffffffffffffffffffffffffff1673ffffffffffffffffffffffffffffffffffffffff1681526020019081526020016000206000015414611428576040517f08c379a000000000000000000000000000000000000000000000000000000000815260040161141f90613a91565b60405180910390fd5b600060405180608001604052806001600560003373ffffffffffffffffffffffffffffffffffffffff1673ffffffffffffffffffffffffffffffffffffffff168152602001908152602001600020600201805490506114879190613450565b81526020013373ffffffffffffffffffffffffffffffffffffffff168152602001600067ffffffffffffffff8111156114c3576114c2613484565b5b6040519080825280602002602001820160405280156114f15781602001602082028036833780820191505090505b5081526020016000815250905080600560003373ffffffffffffffffffffffffffffffffffffffff1673ffffffffffffffffffffffffffffffffffffffff1681526020019081526020016000206000820151816000015560208201518160010160006101000a81548173ffffffffffffffffffffffffffffffffffffffff021916908373ffffffffffffffffffffffffffffffffffffffff16021790555060408201518160020190805190602001906115ab9291906129b7565b506060820151816003015590505050565b6000600260003373ffffffffffffffffffffffffffffffffffffffff1673ffffffffffffffffffffffffffffffffffffffff16815260200190815260200160002060009054906101000a900460ff1661164a576040517f08c379a0000000000000000000000000000000000000000000000000000000008152600401611641906137ba565b60405180910390fd5b600154905090565b60066020528060005260406000206000915090508060000154908060010160009054906101000a900473ffffffffffffffffffffffffffffffffffffffff16908060030154908060040154905084565b60008060009054906101000a900473ffffffffffffffffffffffffffffffffffffffff16905090565b6116d3612a42565b600360008381526020019081526020016000206040518060e0016040529081600082015481526020016001820160009054906101000a900473ffffffffffffffffffffffffffffffffffffffff1673ffffffffffffffffffffffffffffffffffffffff1673ffffffffffffffffffffffffffffffffffffffff1681526020016002820154815260200160038201548152602001600482015481526020016005820160009054906101000a900460ff161515151581526020016006820154815250509050919050565b60008054906101000a900473ffffffffffffffffffffffffffffffffffffffff1673ffffffffffffffffffffffffffffffffffffffff163373ffffffffffffffffffffffffffffffffffffffff1614611829576040517f08c379a0000000000000000000000000000000000000000000000000000000008152600401611820906137ba565b60405180910390fd5b60006001541161186e576040517f08c379a000000000000000000000000000000000000000000000000000000000815260040161186590613afd565b60405180910390fd5b60008054906101000a900473ffffffffffffffffffffffffffffffffffffffff1673ffffffffffffffffffffffffffffffffffffffff166108fc6001549081150290604051600060405180830381858888f193505050501580156118d6573d6000803e3d6000fd5b507f7084f5476618d8e60b11ef0d7d3f06914655adb8793e28ff7f018d4c76d505d560008054906101000a900473ffffffffffffffffffffffffffffffffffffffff1660015460405161192a9291906139b0565b60405180910390a1565b600260003373ffffffffffffffffffffffffffffffffffffffff1673ffffffffffffffffffffffffffffffffffffffff16815260200190815260200160002060009054906101000a900460ff166119c0576040517f08c379a00000000000000000000000000000000000000000000000000000000081526004016119b7906137ba565b60405180910390fd5b600015156004600083815260200190815260200160002060080160019054906101000a900460ff16151514611a2a576040517f08c379a0000000000000000000000000000000000000000000000000000000008152600401611a2190613826565b60405180910390fd5b60016004600083815260200190815260200160002060080160016101000a81548160ff02191690831515021790555050565b60026020528060005260406000206000915054906101000a900460ff1681565b600115156004600084815260200190815260200160002060080160009054906101000a900460ff16151514611ae6576040517f08c379a0000000000000000000000000000000000000000000000000000000008152600401611add90613b69565b60405180910390fd5b3373ffffffffffffffffffffffffffffffffffffffff166004600084815260200190815260200160002060010160009054906101000a900473ffffffffffffffffffffffffffffffffffffffff1673ffffffffffffffffffffffffffffffffffffffff1614611b8a576040517f08c379a0000000000000000000000000000000000000000000000000000000008152600401611b8190613bd5565b60405180910390fd5b60005b6004600084815260200190815260200160002060070180549050811015611db6576000600460008581526020019081526020016000206007018281548110611bd857611bd7613719565b5b906000526020600020015490506000600360008381526020019081526020016000209050838160040154148015611c1e57508060050160009054906101000a900460ff16155b15611da7576000600460008781526020019081526020016000206005015490506000826002015490506000600460008981526020019081526020016000206006018781548110611c7157611c70613719565b5b9060005260206000200154600460008a81526020019081526020016000206004015484611c9e9190613450565b83611ca99190613643565b611cb391906136b4565b905080846006018190555060018460050160006101000a81548160ff0219169083151502179055508360010160009054906101000a900473ffffffffffffffffffffffffffffffffffffffff1673ffffffffffffffffffffffffffffffffffffffff166108fc829081150290604051600060405180830381858888f19350505050158015611d45573d6000803e3d6000fd5b507f7084f5476618d8e60b11ef0d7d3f06914655adb8793e28ff7f018d4c76d505d58460010160009054906101000a900473ffffffffffffffffffffffffffffffffffffffff1682604051611d9b9291906139b0565b60405180910390a15050505b50508080600101915050611b8d565b505050565b60056020528060005260406000206000915090508060000154908060010160009054906101000a900473ffffffffffffffffffffffffffffffffffffffff16908060030154905083565b611e0d612a97565b600660008373ffffffffffffffffffffffffffffffffffffffff1673ffffffffffffffffffffffffffffffffffffffff1681526020019081526020016000206040518060a0016040529081600082015481526020016001820160009054906101000a900473ffffffffffffffffffffffffffffffffffffffff1673ffffffffffffffffffffffffffffffffffffffff1673ffffffffffffffffffffffffffffffffffffffff16815260200160028201805480602002602001604051908101604052809291908181526020018280548015611f0657602002820191906000526020600020905b815481526020019060010190808311611ef2575b50505050508152602001600382015481526020016004820154815250509050919050565b611f32612adc565b6004600083815260200190815260200160002060405180610140016040529081600082015481526020016001820160009054906101000a900473ffffffffffffffffffffffffffffffffffffffff1673ffffffffffffffffffffffffffffffffffffffff1673ffffffffffffffffffffffffffffffffffffffff168152602001600282015481526020016003820154815260200160048201548152602001600582015481526020016006820180548060200260200160405190810160405280929190818152602001828054801561202857602002820191906000526020600020905b815481526020019060010190808311612014575b505050505081526020016007820180548060200260200160405190810160405280929190818152602001828054801561208057602002820191906000526020600020905b81548152602001906001019080831161206c575b505050505081526020016008820160009054906101000a900460ff161515151581526020016008820160019054906101000a900460ff1615151515815250509050919050565b600080600460008681526020019081526020016000206000015411612120576040517f08c379a000000000000000000000000000000000000000000000000000000000815260040161211790613c41565b60405180910390fd5b600015156004600086815260200190815260200160002060080160009054906101000a900460ff1615151461218a576040517f08c379a000000000000000000000000000000000000000000000000000000000815260040161218190613591565b60405180910390fd5b600460008581526020019081526020016000206002015482101580156121c6575060046000858152602001908152602001600020600301548211155b612205576040517f08c379a00000000000000000000000000000000000000000000000000000000081526004016121fc90613623565b60405180910390fd5b60006004600086815260200190815260200160002060050154905060008390506000600460008881526020019081526020016000206006018660ff168154811061225257612251613719565b5b906000526020600020015460046000898152602001908152602001600020600401548461227f9190613450565b8361228a9190613643565b61229491906136b4565b90508093505050509392505050565b6000600660003373ffffffffffffffffffffffffffffffffffffffff1673ffffffffffffffffffffffffffffffffffffffff1681526020019081526020016000206000015411612328576040517f08c379a000000000000000000000000000000000000000000000000000000000815260040161231f90613cd3565b60405180910390fd5b3373ffffffffffffffffffffffffffffffffffffffff166004600084815260200190815260200160002060010160009054906101000a900473ffffffffffffffffffffffffffffffffffffffff1673ffffffffffffffffffffffffffffffffffffffff16146123cc576040517f08c379a00000000000000000000000000000000000000000000000000000000081526004016123c390613d3f565b60405180910390fd5b600015156004600084815260200190815260200160002060080160009054906101000a900460ff16151514612436576040517f08c379a000000000000000000000000000000000000000000000000000000000815260040161242d90613591565b60405180910390fd5b60016004600084815260200190815260200160002060080160006101000a81548160ff02191690831515021790555061246f8282611a7c565b7f56fe9aa41f0884b06717b271b0b1b2eedc26fe9341fb37ab44d43e1f4405c988823360046000868152602001908152602001600020600501546040516124b89392919061305f565b60405180910390a15050565b6000600660003373ffffffffffffffffffffffffffffffffffffffff1673ffffffffffffffffffffffffffffffffffffffff1681526020019081526020016000206000015411612549576040517f08c379a000000000000000000000000000000000000000000000000000000000815260040161254090613cd3565b60405180910390fd5b6000851161258c576040517f08c379a000000000000000000000000000000000000000000000000000000000815260040161258390613dd1565b60405180910390fd5b8484116125ce576040517f08c379a00000000000000000000000000000000000000000000000000000000081526004016125c590613e63565b60405180910390fd5b60006040518061014001604052808581526020013373ffffffffffffffffffffffffffffffffffffffff168152602001878152602001868152602001348152602001600081526020016001856126249190613450565b67ffffffffffffffff81111561263d5761263c613484565b5b60405190808252806020026020018201604052801561266b5781602001602082028036833780820191505090505b508152602001600067ffffffffffffffff81111561268c5761268b613484565b5b6040519080825280602002602001820160405280156126ba5781602001602082028036833780820191505090505b50815260200160001515815260200160001515815250905034600660003373ffffffffffffffffffffffffffffffffffffffff1673ffffffffffffffffffffffffffffffffffffffff16815260200190815260200160002060030160008282546127249190613450565b9250508190555080600460008681526020019081526020016000206000820151816000015560208201518160010160006101000a81548173ffffffffffffffffffffffffffffffffffffffff021916908373ffffffffffffffffffffffffffffffffffffffff16021790555060408201518160020155606082015181600301556080820151816004015560a0820151816005015560c08201518160060190805190602001906127d49291906129b7565b5060e08201518160070190805190602001906127f19291906129b7565b506101008201518160080160006101000a81548160ff0219169083151502179055506101208201518160080160016101000a81548160ff021916908315150217905550905050600660003373ffffffffffffffffffffffffffffffffffffffff1673ffffffffffffffffffffffffffffffffffffffff1681526020019081526020016000206002018490806001815401808255809150506001900390600052602060002001600090919091909150557f4d946047a8fad903eae1a1ebbf75dc1667359f7ee49a61c577a4c6c70bdceb13843388886040516128d59493929190612f2c565b60405180910390a1505050505050565b600080600660008573ffffffffffffffffffffffffffffffffffffffff1673ffffffffffffffffffffffffffffffffffffffff1681526020019081526020016000206000015411801561293c575060001515821515145b15612949578290506129b1565b6000600560008573ffffffffffffffffffffffffffffffffffffffff1673ffffffffffffffffffffffffffffffffffffffff1681526020019081526020016000206000015411801561299f575060011515821515145b156129ac578290506129b1565b600090505b92915050565b8280548282559060005260206000209081019282156129f3579160200282015b828111156129f25782518255916020019190600101906129d7565b5b509050612a009190612b49565b5090565b604051806080016040528060008152602001600073ffffffffffffffffffffffffffffffffffffffff16815260200160608152602001600081525090565b6040518060e0016040528060008152602001600073ffffffffffffffffffffffffffffffffffffffff168152602001600081526020016000815260200160008152602001600015158152602001600081525090565b6040518060a0016040528060008152602001600073ffffffffffffffffffffffffffffffffffffffff1681526020016060815260200160008152602001600081525090565b60405180610140016040528060008152602001600073ffffffffffffffffffffffffffffffffffffffff1681526020016000815260200160008152602001600081526020016000815260200160608152602001606081526020016000151581526020016000151581525090565b5b80821115612b62576000816000905550600101612b4a565b5090565b600080fd5b6000819050919050565b612b7e81612b6b565b8114612b8957600080fd5b50565b600081359050612b9b81612b75565b92915050565b60008060408385031215612bb857612bb7612b66565b5b6000612bc685828601612b8c565b9250506020612bd785828601612b8c565b9150509250929050565b600060208284031215612bf757612bf6612b66565b5b6000612c0584828501612b8c565b91505092915050565b612c1781612b6b565b82525050565b600073ffffffffffffffffffffffffffffffffffffffff82169050919050565b6000612c4882612c1d565b9050919050565b612c5881612c3d565b82525050565b60008115159050919050565b612c7381612c5e565b82525050565b600061010082019050612c8f600083018b612c0e565b612c9c602083018a612c4f565b612ca96040830189612c0e565b612cb66060830188612c0e565b612cc36080830187612c0e565b612cd060a0830186612c0e565b612cdd60c0830185612c6a565b612cea60e0830184612c6a565b9998505050505050505050565b600060e082019050612d0c600083018a612c0e565b612d196020830189612c4f565b612d266040830188612c0e565b612d336060830187612c0e565b612d406080830186612c0e565b612d4d60a0830185612c6a565b612d5a60c0830184612c0e565b98975050505050505050565b612d6f81612c3d565b8114612d7a57600080fd5b50565b600081359050612d8c81612d66565b92915050565b600060208284031215612da857612da7612b66565b5b6000612db684828501612d7d565b91505092915050565b612dc881612b6b565b82525050565b612dd781612c3d565b82525050565b600081519050919050565b600082825260208201905092915050565b6000819050602082019050919050565b6000612e158383612dbf565b60208301905092915050565b6000602082019050919050565b6000612e3982612ddd565b612e438185612de8565b9350612e4e83612df9565b8060005b83811015612e7f578151612e668882612e09565b9750612e7183612e21565b925050600181019050612e52565b5085935050505092915050565b6000608083016000830151612ea46000860182612dbf565b506020830151612eb76020860182612dce565b5060408301518482036040860152612ecf8282612e2e565b9150506060830151612ee46060860182612dbf565b508091505092915050565b60006020820190508181036000830152612f098184612e8c565b905092915050565b6000602082019050612f266000830184612c0e565b92915050565b6000608082019050612f416000830187612c0e565b612f4e6020830186612c4f565b612f5b6040830185612c0e565b612f686060830184612c0e565b95945050505050565b6000602082019050612f866000830184612c4f565b92915050565b612f9581612c5e565b82525050565b60e082016000820151612fb16000850182612dbf565b506020820151612fc46020850182612dce565b506040820151612fd76040850182612dbf565b506060820151612fea6060850182612dbf565b506080820151612ffd6080850182612dbf565b5060a082015161301060a0850182612f8c565b5060c082015161302360c0850182612dbf565b50505050565b600060e08201905061303e6000830184612f9b565b92915050565b60006020820190506130596000830184612c6a565b92915050565b60006060820190506130746000830186612c0e565b6130816020830185612c4f565b61308e6040830184612c0e565b949350505050565b600060a0830160008301516130ae6000860182612dbf565b5060208301516130c16020860182612dce565b50604083015184820360408601526130d98282612e2e565b91505060608301516130ee6060860182612dbf565b5060808301516131016080860182612dbf565b508091505092915050565b600060208201905081810360008301526131268184613096565b905092915050565b6000610140830160008301516131476000860182612dbf565b50602083015161315a6020860182612dce565b50604083015161316d6040860182612dbf565b5060608301516131806060860182612dbf565b5060808301516131936080860182612dbf565b5060a08301516131a660a0860182612dbf565b5060c083015184820360c08601526131be8282612e2e565b91505060e083015184820360e08601526131d88282612e2e565b9150506101008301516131ef610100860182612f8c565b50610120830151613204610120860182612f8c565b508091505092915050565b60006020820190508181036000830152613229818461312e565b905092915050565b600060ff82169050919050565b61324781613231565b811461325257600080fd5b50565b6000813590506132648161323e565b92915050565b60008060006060848603121561328357613282612b66565b5b600061329186828701612b8c565b93505060206132a286828701613255565b92505060406132b386828701612b8c565b9150509250925092565b600080600080600060a086880312156132d9576132d8612b66565b5b60006132e788828901612b8c565b95505060206132f888828901612b8c565b945050604061330988828901612b8c565b935050606061331a88828901612b8c565b925050608061332b88828901612b8c565b9150509295509295909350565b61334181612c5e565b811461334c57600080fd5b50565b60008135905061335e81613338565b92915050565b6000806040838503121561337b5761337a612b66565b5b600061338985828601612d7d565b925050602061339a8582860161334f565b9150509250929050565b600082825260208201905092915050565b7f416c726561647920726567697374657265642061732053656c6c657200000000600082015250565b60006133eb601c836133a4565b91506133f6826133b5565b602082019050919050565b6000602082019050818103600083015261341a816133de565b9050919050565b7f4e487b7100000000000000000000000000000000000000000000000000000000600052601160045260246000fd5b600061345b82612b6b565b915061346683612b6b565b925082820190508082111561347e5761347d613421565b5b92915050565b7f4e487b7100000000000000000000000000000000000000000000000000000000600052604160045260246000fd5b7f4f6e6c792042757965722063616e2063616c6c20746869732066756e6374696f60008201527f6e00000000000000000000000000000000000000000000000000000000000000602082015250565b600061350f6021836133a4565b915061351a826134b3565b604082019050919050565b6000602082019050818103600083015261353e81613502565b9050919050565b7f5175697a20697320616c726561647920656e6465640000000000000000000000600082015250565b600061357b6015836133a4565b915061358682613545565b602082019050919050565b600060208201905081810360008301526135aa8161356e565b9050919050565b7f416d6f756e742073686f756c64206265206265747765656e206d696e20616e6460008201527f206d617820616d6f756e74000000000000000000000000000000000000000000602082015250565b600061360d602b836133a4565b9150613618826135b1565b604082019050919050565b6000602082019050818103600083015261363c81613600565b9050919050565b600061364e82612b6b565b915061365983612b6b565b925082820261366781612b6b565b9150828204841483151761367e5761367d613421565b5b5092915050565b7f4e487b7100000000000000000000000000000000000000000000000000000000600052601260045260246000fd5b60006136bf82612b6b565b91506136ca83612b6b565b9250826136da576136d9613685565b5b828204905092915050565b60006136f082612b6b565b91506136fb83612b6b565b925082820390508181111561371357613712613421565b5b92915050565b7f4e487b7100000000000000000000000000000000000000000000000000000000600052603260045260246000fd5b7f4f6e6c792041646d696e2063616e2063616c6c20746869732066756e6374696f60008201527f6e00000000000000000000000000000000000000000000000000000000000000602082015250565b60006137a46021836133a4565b91506137af82613748565b604082019050919050565b600060208201905081810360008301526137d381613797565b9050919050565b7f5175697a20697320616c726561647920617070726f7665640000000000000000600082015250565b60006138106018836133a4565b915061381b826137da565b602082019050919050565b6000602082019050818103600083015261383f81613803565b9050919050565b7f416d6f756e742073686f756c642062652067726561746572207468616e203000600082015250565b600061387c601f836133a4565b915061388782613846565b602082019050919050565b600060208201905081810360008301526138ab8161386f565b9050919050565b7f496e73756666696369656e742062616c616e6365000000000000000000000000600082015250565b60006138e86014836133a4565b91506138f3826138b2565b602082019050919050565b60006020820190508181036000830152613917816138db565b9050919050565b7f416d6f756e742073686f756c64206265206c657373207468616e2070726f666960008201527f7400000000000000000000000000000000000000000000000000000000000000602082015250565b600061397a6021836133a4565b91506139858261391e565b604082019050919050565b600060208201905081810360008301526139a98161396d565b9050919050565b60006040820190506139c56000830185612c4f565b6139d26020830184612c0e565b9392505050565b7f416c726561647920726567697374657265642061732041646d696e0000000000600082015250565b6000613a0f601b836133a4565b9150613a1a826139d9565b602082019050919050565b60006020820190508181036000830152613a3e81613a02565b9050919050565b7f416c726561647920726567697374657265642061732042757965720000000000600082015250565b6000613a7b601b836133a4565b9150613a8682613a45565b602082019050919050565b60006020820190508181036000830152613aaa81613a6e565b9050919050565b7f4e6f2062616c616e636520746f20776974686472617700000000000000000000600082015250565b6000613ae76016836133a4565b9150613af282613ab1565b602082019050919050565b60006020820190508181036000830152613b1681613ada565b9050919050565b7f5175697a206973206e6f7420656e646564207965740000000000000000000000600082015250565b6000613b536015836133a4565b9150613b5e82613b1d565b602082019050919050565b60006020820190508181036000830152613b8281613b46565b9050919050565b7f4f6e6c79206f776e65722063616e207472616e73666572207265776172647300600082015250565b6000613bbf601f836133a4565b9150613bca82613b89565b602082019050919050565b60006020820190508181036000830152613bee81613bb2565b9050919050565b7f5175697a20646f6573206e6f7420657869737400000000000000000000000000600082015250565b6000613c2b6013836133a4565b9150613c3682613bf5565b602082019050919050565b60006020820190508181036000830152613c5a81613c1e565b9050919050565b7f4f6e6c792053656c6c65722063616e2063616c6c20746869732066756e63746960008201527f6f6e000000000000000000000000000000000000000000000000000000000000602082015250565b6000613cbd6022836133a4565b9150613cc882613c61565b604082019050919050565b60006020820190508181036000830152613cec81613cb0565b9050919050565b7f4f6e6c79206f776e65722063616e20656e6420746865207175697a0000000000600082015250565b6000613d29601b836133a4565b9150613d3482613cf3565b602082019050919050565b60006020820190508181036000830152613d5881613d1c565b9050919050565b7f4d696e696d756d20616d6f756e742073686f756c64206265206772656174657260008201527f207468616e203000000000000000000000000000000000000000000000000000602082015250565b6000613dbb6027836133a4565b9150613dc682613d5f565b604082019050919050565b60006020820190508181036000830152613dea81613dae565b9050919050565b7f4d6178696d756d20616d6f756e742073686f756c64206265206772656174657260008201527f207468616e206d696e696d756d20616d6f756e74000000000000000000000000602082015250565b6000613e4d6034836133a4565b9150613e5882613df1565b604082019050919050565b60006020820190508181036000830152613e7c81613e40565b905091905056fea264697066735822122034ac16eb4295159d6d16d94b48c38c9d4192ae782b7316a03a87fb6e40b7e59664736f6c634300081c0033",
  "linkReferences": {},
  "deployedLinkReferences": {}
}