{
  "_format": "hh-sol-artifact-1",
  "contractName": "MarketPlaceContract",
  "sourceName": "contracts/MarketPlaceContract.sol",
  "abi": [
    {
      "inputs": [],
      "stateMutability": "nonpayable",
      "type": "constructor"
    },
    {
      "anonymous": false,
      "inputs": [
        {
          "indexed": false,
          "internalType": "uint256",
          "name": "id",
          "type": "uint256"
        },
        {
          "indexed": false,
          "internalType": "address",
          "name": "owner",
          "type": "address"
        },
        {
          "indexed": false,
          "internalType": "uint256",
          "name": "minAmt",
          "type": "uint256"
        },
        {
          "indexed": false,
          "internalType": "uint256",
          "name": "maxAmt",
          "type": "uint256"
        }
      ],
      "name": "QuizCreated",
      "type": "event"
    },
    {
      "anonymous": false,
      "inputs": [
        {
          "indexed": false,
          "internalType": "uint256",
          "name": "id",
          "type": "uint256"
        },
        {
          "indexed": false,
          "internalType": "address",
          "name": "owner",
          "type": "address"
        },
        {
          "indexed": false,
          "internalType": "uint256",
          "name": "totalAmt",
          "type": "uint256"
        }
      ],
      "name": "QuizEnded",
      "type": "event"
    },
    {
      "anonymous": false,
      "inputs": [
        {
          "indexed": false,
          "internalType": "uint256",
          "name": "id",
          "type": "uint256"
        },
        {
          "indexed": false,
          "internalType": "address",
          "name": "owner",
          "type": "address"
        },
        {
          "indexed": false,
          "internalType": "uint256",
          "name": "amt",
          "type": "uint256"
        },
        {
          "indexed": false,
          "internalType": "uint256",
          "name": "quizId",
          "type": "uint256"
        }
      ],
      "name": "TicketBought",
      "type": "event"
    },
    {
      "anonymous": false,
      "inputs": [
        {
          "indexed": false,
          "internalType": "address",
          "name": "owner",
          "type": "address"
        },
        {
          "indexed": false,
          "internalType": "uint256",
          "name": "amt",
          "type": "uint256"
        }
      ],
      "name": "Withdrawn",
      "type": "event"
    },
    {
      "inputs": [
        {
          "internalType": "uint256",
          "name": "_QuizId",
          "type": "uint256"
        }
      ],
      "name": "appvoreRequest",
      "outputs": [],
      "stateMutability": "nonpayable",
      "type": "function"
    },
    {
      "inputs": [
        {
          "internalType": "uint256",
          "name": "_QuizId",
          "type": "uint256"
        },
        {
          "internalType": "uint256",
          "name": "betIndex",
          "type": "uint256"
        }
      ],
      "name": "buyTicket",
      "outputs": [],
      "stateMutability": "payable",
      "type": "function"
    },
    {
      "inputs": [
        {
          "internalType": "address",
          "name": "",
          "type": "address"
        }
      ],
      "name": "buyerMap",
      "outputs": [
        {
          "internalType": "uint256",
          "name": "id",
          "type": "uint256"
        },
        {
          "internalType": "address",
          "name": "walletAdd",
          "type": "address"
        },
        {
          "internalType": "uint256",
          "name": "totalAmt",
          "type": "uint256"
        }
      ],
      "stateMutability": "view",
      "type": "function"
    },
    {
      "inputs": [
        {
          "internalType": "uint256",
          "name": "_minAmt",
          "type": "uint256"
        },
        {
          "internalType": "uint256",
          "name": "_maxAmt",
          "type": "uint256"
        },
        {
          "internalType": "uint256",
          "name": "_id",
          "type": "uint256"
        },
        {
          "internalType": "uint256",
          "name": "_numOfoptions",
          "type": "uint256"
        },
        {
          "internalType": "uint256",
          "name": "_seller_inv",
          "type": "uint256"
        }
      ],
      "name": "createQuiz",
      "outputs": [],
      "stateMutability": "payable",
      "type": "function"
    },
    {
      "inputs": [
        {
          "internalType": "uint256",
          "name": "_QuizId",
          "type": "uint256"
        },
        {
          "internalType": "uint256",
          "name": "_WinningInd",
          "type": "uint256"
        }
      ],
      "name": "endQuiz",
      "outputs": [],
      "stateMutability": "nonpayable",
      "type": "function"
    },
    {
      "inputs": [],
      "name": "getAdmin",
      "outputs": [
        {
          "internalType": "address",
          "name": "",
          "type": "address"
        }
      ],
      "stateMutability": "view",
      "type": "function"
    },
    {
      "inputs": [
        {
          "internalType": "address",
          "name": "_walletAdd",
          "type": "address"
        }
      ],
      "name": "getBuyer",
      "outputs": [
        {
          "components": [
            {
              "internalType": "uint256",
              "name": "id",
              "type": "uint256"
            },
            {
              "internalType": "address",
              "name": "walletAdd",
              "type": "address"
            },
            {
              "internalType": "uint256[]",
              "name": "tickets",
              "type": "uint256[]"
            },
            {
              "internalType": "uint256",
              "name": "totalAmt",
              "type": "uint256"
            }
          ],
          "internalType": "struct MarketPlaceContract.Buyer",
          "name": "",
          "type": "tuple"
        }
      ],
      "stateMutability": "view",
      "type": "function"
    },
    {
      "inputs": [
        {
          "internalType": "uint256",
          "name": "_QuizId",
          "type": "uint256"
        },
        {
          "internalType": "uint8",
          "name": "_betIndex",
          "type": "uint8"
        },
        {
          "internalType": "uint256",
          "name": "_amt",
          "type": "uint256"
        }
      ],
      "name": "getPredictedWinAmount",
      "outputs": [
        {
          "internalType": "uint256",
          "name": "",
          "type": "uint256"
        }
      ],
      "stateMutability": "view",
      "type": "function"
    },
    {
      "inputs": [],
      "name": "getProfit",
      "outputs": [
        {
          "internalType": "uint256",
          "name": "",
          "type": "uint256"
        }
      ],
      "stateMutability": "view",
      "type": "function"
    },
    {
      "inputs": [
        {
          "internalType": "uint256",
          "name": "_id",
          "type": "uint256"
        }
      ],
      "name": "getQuiz",
      "outputs": [
        {
          "components": [
            {
              "internalType": "uint256",
              "name": "id",
              "type": "uint256"
            },
            {
              "internalType": "address",
              "name": "owner",
              "type": "address"
            },
            {
              "internalType": "uint256",
              "name": "minAmt",
              "type": "uint256"
            },
            {
              "internalType": "uint256",
              "name": "maxAmt",
              "type": "uint256"
            },
            {
              "internalType": "uint256",
              "name": "seller_invested",
              "type": "uint256"
            },
            {
              "internalType": "uint256",
              "name": "totalAmt",
              "type": "uint256"
            },
            {
              "internalType": "uint256[]",
              "name": "options",
              "type": "uint256[]"
            },
            {
              "internalType": "uint256[]",
              "name": "tickets",
              "type": "uint256[]"
            },
            {
              "internalType": "bool",
              "name": "isEnded",
              "type": "bool"
            },
            {
              "internalType": "bool",
              "name": "isApproved",
              "type": "bool"
            }
          ],
          "internalType": "struct MarketPlaceContract.Quiz",
          "name": "",
          "type": "tuple"
        }
      ],
      "stateMutability": "view",
      "type": "function"
    },
    {
      "inputs": [
        {
          "internalType": "address",
          "name": "_walletAdd",
          "type": "address"
        }
      ],
      "name": "getSeller",
      "outputs": [
        {
          "components": [
            {
              "internalType": "uint256",
              "name": "id",
              "type": "uint256"
            },
            {
              "internalType": "address",
              "name": "walletAdd",
              "type": "address"
            },
            {
              "internalType": "uint256[]",
              "name": "quizzes",
              "type": "uint256[]"
            },
            {
              "internalType": "uint256",
              "name": "totalAmt",
              "type": "uint256"
            },
            {
              "internalType": "uint256",
              "name": "profit",
              "type": "uint256"
            }
          ],
          "internalType": "struct MarketPlaceContract.Seller",
          "name": "",
          "type": "tuple"
        }
      ],
      "stateMutability": "view",
      "type": "function"
    },
    {
      "inputs": [
        {
          "internalType": "uint256",
          "name": "_id",
          "type": "uint256"
        }
      ],
      "name": "getTicket",
      "outputs": [
        {
          "components": [
            {
              "internalType": "uint256",
              "name": "id",
              "type": "uint256"
            },
            {
              "internalType": "address",
              "name": "owner",
              "type": "address"
            },
            {
              "internalType": "uint256",
              "name": "amt",
              "type": "uint256"
            },
            {
              "internalType": "uint256",
              "name": "quizId",
              "type": "uint256"
            },
            {
              "internalType": "uint256",
              "name": "betIndex",
              "type": "uint256"
            },
            {
              "internalType": "bool",
              "name": "isWithdrawn",
              "type": "bool"
            },
            {
              "internalType": "uint256",
              "name": "winAmt",
              "type": "uint256"
            }
          ],
          "internalType": "struct MarketPlaceContract.Ticket",
          "name": "",
          "type": "tuple"
        }
      ],
      "stateMutability": "view",
      "type": "function"
    },
    {
      "inputs": [
        {
          "internalType": "address",
          "name": "",
          "type": "address"
        }
      ],
      "name": "isAdminMap",
      "outputs": [
        {
          "internalType": "bool",
          "name": "",
          "type": "bool"
        }
      ],
      "stateMutability": "view",
      "type": "function"
    },
    {
      "inputs": [
        {
          "internalType": "address",
          "name": "_walletAdd",
          "type": "address"
        },
        {
          "internalType": "bool",
          "name": "isBuyer",
          "type": "bool"
        }
      ],
      "name": "login",
      "outputs": [
        {
          "internalType": "address",
          "name": "",
          "type": "address"
        }
      ],
      "stateMutability": "view",
      "type": "function"
    },
    {
      "inputs": [
        {
          "internalType": "uint256",
          "name": "",
          "type": "uint256"
        }
      ],
      "name": "quizMap",
      "outputs": [
        {
          "internalType": "uint256",
          "name": "id",
          "type": "uint256"
        },
        {
          "internalType": "address",
          "name": "owner",
          "type": "address"
        },
        {
          "internalType": "uint256",
          "name": "minAmt",
          "type": "uint256"
        },
        {
          "internalType": "uint256",
          "name": "maxAmt",
          "type": "uint256"
        },
        {
          "internalType": "uint256",
          "name": "seller_invested",
          "type": "uint256"
        },
        {
          "internalType": "uint256",
          "name": "totalAmt",
          "type": "uint256"
        },
        {
          "internalType": "bool",
          "name": "isEnded",
          "type": "bool"
        },
        {
          "internalType": "bool",
          "name": "isApproved",
          "type": "bool"
        }
      ],
      "stateMutability": "view",
      "type": "function"
    },
    {
      "inputs": [],
      "name": "registerAsAdmin",
      "outputs": [],
      "stateMutability": "nonpayable",
      "type": "function"
    },
    {
      "inputs": [],
      "name": "registerAsBuyer",
      "outputs": [],
      "stateMutability": "nonpayable",
      "type": "function"
    },
    {
      "inputs": [],
      "name": "registerAsSeller",
      "outputs": [],
      "stateMutability": "nonpayable",
      "type": "function"
    },
    {
      "inputs": [
        {
          "internalType": "uint256",
          "name": "_QuizId",
          "type": "uint256"
        }
      ],
      "name": "rejectRequest",
      "outputs": [],
      "stateMutability": "nonpayable",
      "type": "function"
    },
    {
      "inputs": [
        {
          "internalType": "address",
          "name": "",
          "type": "address"
        }
      ],
      "name": "sellerMap",
      "outputs": [
        {
          "internalType": "uint256",
          "name": "id",
          "type": "uint256"
        },
        {
          "internalType": "address",
          "name": "walletAdd",
          "type": "address"
        },
        {
          "internalType": "uint256",
          "name": "totalAmt",
          "type": "uint256"
        },
        {
          "internalType": "uint256",
          "name": "profit",
          "type": "uint256"
        }
      ],
      "stateMutability": "view",
      "type": "function"
    },
    {
      "inputs": [
        {
          "internalType": "uint256",
          "name": "",
          "type": "uint256"
        }
      ],
      "name": "ticketMap",
      "outputs": [
        {
          "internalType": "uint256",
          "name": "id",
          "type": "uint256"
        },
        {
          "internalType": "address",
          "name": "owner",
          "type": "address"
        },
        {
          "internalType": "uint256",
          "name": "amt",
          "type": "uint256"
        },
        {
          "internalType": "uint256",
          "name": "quizId",
          "type": "uint256"
        },
        {
          "internalType": "uint256",
          "name": "betIndex",
          "type": "uint256"
        },
        {
          "internalType": "bool",
          "name": "isWithdrawn",
          "type": "bool"
        },
        {
          "internalType": "uint256",
          "name": "winAmt",
          "type": "uint256"
        }
      ],
      "stateMutability": "view",
      "type": "function"
    },
    {
      "inputs": [
        {
          "internalType": "uint256",
          "name": "_QuizId",
          "type": "uint256"
        },
        {
          "internalType": "uint256",
          "name": "_WinningInd",
          "type": "uint256"
        }
      ],
      "name": "transferRewardsToWinner",
      "outputs": [],
      "stateMutability": "payable",
      "type": "function"
    },
    {
      "inputs": [
        {
          "internalType": "uint256",
          "name": "_amt",
          "type": "uint256"
        }
      ],
      "name": "withdraw",
      "outputs": [],
      "stateMutability": "nonpayable",
      "type": "function"
    },
    {
      "inputs": [],
      "name": "withdrawAll",
      "outputs": [],
      "stateMutability": "nonpayable",
      "type": "function"
    }
  ],
  "bytecode": "0x60806040526000600155348015601457600080fd5b50336000806101000a81548173ffffffffffffffffffffffffffffffffffffffff021916908373ffffffffffffffffffffffffffffffffffffffff1602179055506001600260008060009054906101000a900473ffffffffffffffffffffffffffffffffffffffff1673ffffffffffffffffffffffffffffffffffffffff1673ffffffffffffffffffffffffffffffffffffffff16815260200190815260200160002060006101000a81548160ff021916908315150217905550613ec4806100dd6000396000f3fe60806040526004361061014b5760003560e01c80637dc379fa116100b6578063a323d29e1161006f578063a323d29e14610472578063a3f7e096146104af578063af4fc955146104ec578063c694e33d14610529578063d4a5c1c214610552578063f728635a1461056e5761014b565b80637dc379fa1461035d578063853828b61461039a5780638b7068bf146103b15780638e9a4c34146103da5780639af6a08a146104175780639cdb1837146104335761014b565b8063500e3cbd11610108578063500e3cbd146102305780635721e419146102735780635b4a5cf2146102b0578063679dffb4146102c75780636e78c51f146102f25780636e9960c3146103325761014b565b8063128b853214610150578063298ec208146101675780632d7788db146101835780632e1a7d4d146101ac578063490c369d146101d5578063498d55b814610219575b600080fd5b34801561015c57600080fd5b506101656105ab565b005b610181600480360381019061017c9190612bac565b6107d5565b005b34801561018f57600080fd5b506101aa60048036038101906101a59190612bec565b610d53565b005b3480156101b857600080fd5b506101d360048036038101906101ce9190612bec565b610e7b565b005b3480156101e157600080fd5b506101fc60048036038101906101f79190612bec565b6110b0565b604051610210989796959493929190612c84565b60405180910390f35b34801561022557600080fd5b5061022e611132565b005b34801561023c57600080fd5b5061025760048036038101906102529190612bec565b611219565b60405161026a9796959493929190612d02565b60405180910390f35b34801561027f57600080fd5b5061029a60048036038101906102959190612d9d565b611288565b6040516102a79190612efa565b60405180910390f35b3480156102bc57600080fd5b506102c56113a3565b005b3480156102d357600080fd5b506102dc6115bc565b6040516102e99190612f1c565b60405180910390f35b3480156102fe57600080fd5b5061031960048036038101906103149190612d9d565b611652565b6040516103299493929190612f37565b60405180910390f35b34801561033e57600080fd5b506103476116a2565b6040516103549190612f7c565b60405180910390f35b34801561036957600080fd5b50610384600480360381019061037f9190612bec565b6116cb565b6040516103919190613034565b60405180910390f35b3480156103a657600080fd5b506103af61179b565b005b3480156103bd57600080fd5b506103d860048036038101906103d39190612bec565b611934565b005b3480156103e657600080fd5b5061040160048036038101906103fc9190612d9d565b611a5c565b60405161040e919061304f565b60405180910390f35b610431600480360381019061042c9190612bac565b611a7c565b005b34801561043f57600080fd5b5061045a60048036038101906104559190612d9d565b611dbb565b6040516104699392919061306a565b60405180910390f35b34801561047e57600080fd5b5061049960048036038101906104949190612d9d565b611e05565b6040516104a69190613117565b60405180910390f35b3480156104bb57600080fd5b506104d660048036038101906104d19190612bec565b611f2a565b6040516104e3919061321a565b60405180910390f35b3480156104f857600080fd5b50610513600480360381019061050e9190613275565b6120c6565b6040516105209190612f1c565b60405180910390f35b34801561053557600080fd5b50610550600480360381019061054b9190612bac565b6122ae565b005b61056c600480360381019061056791906132c8565b6124cf565b005b34801561057a57600080fd5b506105956004803603810190610590919061336f565b6128f0565b6040516105a29190612f7c565b60405180910390f35b6000600660003373ffffffffffffffffffffffffffffffffffffffff1673ffffffffffffffffffffffffffffffffffffffff1681526020019081526020016000206000015414610630576040517f08c379a00000000000000000000000000000000000000000000000000000000081526004016106279061340c565b60405180910390fd5b60006040518060a001604052806001600660003373ffffffffffffffffffffffffffffffffffffffff1673ffffffffffffffffffffffffffffffffffffffff1681526020019081526020016000206002018054905061068f919061345b565b81526020013373ffffffffffffffffffffffffffffffffffffffff168152602001600067ffffffffffffffff8111156106cb576106ca61348f565b5b6040519080825280602002602001820160405280156106f95781602001602082028036833780820191505090505b508152602001600081526020016000815250905080600660003373ffffffffffffffffffffffffffffffffffffffff1673ffffffffffffffffffffffffffffffffffffffff1681526020019081526020016000206000820151816000015560208201518160010160006101000a81548173ffffffffffffffffffffffffffffffffffffffff021916908373ffffffffffffffffffffffffffffffffffffffff16021790555060408201518160020190805190602001906107ba9291906129c2565b50606082015181600301556080820151816004015590505050565b6000600560003373ffffffffffffffffffffffffffffffffffffffff1673ffffffffffffffffffffffffffffffffffffffff168152602001908152602001600020600001541161085a576040517f08c379a000000000000000000000000000000000000000000000000000000000815260040161085190613530565b60405180910390fd5b600015156004600084815260200190815260200160002060080160009054906101000a900460ff161515146108c4576040517f08c379a00000000000000000000000000000000000000000000000000000000081526004016108bb9061359c565b60405180910390fd5b60046000838152602001908152602001600020600201543410158015610900575060046000838152602001908152602001600020600301543411155b61093f576040517f08c379a00000000000000000000000000000000000000000000000000000000081526004016109369061362e565b60405180910390fd5b600060046000848152602001908152602001600020600701805490509050600042905060008282610970919061345b565b905060006040518060e001604052808381526020013373ffffffffffffffffffffffffffffffffffffffff1681526020013481526020018781526020018681526020016000151581526020016000815250905080600360008481526020019081526020016000206000820151816000015560208201518160010160006101000a81548173ffffffffffffffffffffffffffffffffffffffff021916908373ffffffffffffffffffffffffffffffffffffffff16021790555060408201518160020155606082015181600301556080820151816004015560a08201518160050160006101000a81548160ff02191690831515021790555060c0820151816006015590505060046000878152602001908152602001600020600701829080600181540180825580915050600190039060005260206000200160009091909190915055600560003373ffffffffffffffffffffffffffffffffffffffff1673ffffffffffffffffffffffffffffffffffffffff16815260200190815260200160002060020182908060018154018082558091505060019003906000526020600020016000909190919091505560006064600534610b2a919061364e565b610b3491906136bf565b905060006064600534610b47919061364e565b610b5191906136bf565b90508160016000828254610b65919061345b565b925050819055508060066000600460008c815260200190815260200160002060010160009054906101000a900473ffffffffffffffffffffffffffffffffffffffff1673ffffffffffffffffffffffffffffffffffffffff1673ffffffffffffffffffffffffffffffffffffffff1681526020019081526020016000206004016000828254610bf4919061345b565b92505081905550808234610c0891906136f0565b610c1291906136f0565b600560003373ffffffffffffffffffffffffffffffffffffffff1673ffffffffffffffffffffffffffffffffffffffff1681526020019081526020016000206003016000828254610c63919061345b565b92505081905550808234610c7791906136f0565b610c8191906136f0565b600460008a81526020019081526020016000206005016000828254610ca6919061345b565b92505081905550808234610cba91906136f0565b610cc491906136f0565b600460008a81526020019081526020016000206006018881548110610cec57610ceb613724565b5b906000526020600020016000828254610d05919061345b565b925050819055507fa38a8990067bfd128af9e1c8e749a6940ee00f3621f6f6c8a9c93783a0b9dffe8433348b604051610d419493929190612f37565b60405180910390a15050505050505050565b600260003373ffffffffffffffffffffffffffffffffffffffff1673ffffffffffffffffffffffffffffffffffffffff16815260200190815260200160002060009054906101000a900460ff16610ddf576040517f08c379a0000000000000000000000000000000000000000000000000000000008152600401610dd6906137c5565b60405180910390fd5b600015156004600083815260200190815260200160002060080160019054906101000a900460ff16151514610e49576040517f08c379a0000000000000000000000000000000000000000000000000000000008152600401610e4090613831565b60405180910390fd5b60006004600083815260200190815260200160002060080160016101000a81548160ff02191690831515021790555050565b60008054906101000a900473ffffffffffffffffffffffffffffffffffffffff1673ffffffffffffffffffffffffffffffffffffffff163373ffffffffffffffffffffffffffffffffffffffff1614610f09576040517f08c379a0000000000000000000000000000000000000000000000000000000008152600401610f00906137c5565b60405180910390fd5b60008111610f4c576040517f08c379a0000000000000000000000000000000000000000000000000000000008152600401610f439061389d565b60405180910390fd5b47811115610f8f576040517f08c379a0000000000000000000000000000000000000000000000000000000008152600401610f8690613909565b60405180910390fd5b600154811115610fd4576040517f08c379a0000000000000000000000000000000000000000000000000000000008152600401610fcb9061399b565b60405180910390fd5b60008054906101000a900473ffffffffffffffffffffffffffffffffffffffff1673ffffffffffffffffffffffffffffffffffffffff166108fc829081150290604051600060405180830381858888f1935050505015801561103a573d6000803e3d6000fd5b50806001600082825461104d91906136f0565b925050819055507f7084f5476618d8e60b11ef0d7d3f06914655adb8793e28ff7f018d4c76d505d560008054906101000a900473ffffffffffffffffffffffffffffffffffffffff16826040516110a59291906139bb565b60405180910390a150565b60046020528060005260406000206000915090508060000154908060010160009054906101000a900473ffffffffffffffffffffffffffffffffffffffff16908060020154908060030154908060040154908060050154908060080160009054906101000a900460ff16908060080160019054906101000a900460ff16905088565b600260003373ffffffffffffffffffffffffffffffffffffffff1673ffffffffffffffffffffffffffffffffffffffff16815260200190815260200160002060009054906101000a900460ff16156111bf576040517f08c379a00000000000000000000000000000000000000000000000000000000081526004016111b690613a30565b60405180910390fd5b6001600260003373ffffffffffffffffffffffffffffffffffffffff1673ffffffffffffffffffffffffffffffffffffffff16815260200190815260200160002060006101000a81548160ff021916908315150217905550565b60036020528060005260406000206000915090508060000154908060010160009054906101000a900473ffffffffffffffffffffffffffffffffffffffff16908060020154908060030154908060040154908060050160009054906101000a900460ff16908060060154905087565b611290612a0f565b600560008373ffffffffffffffffffffffffffffffffffffffff1673ffffffffffffffffffffffffffffffffffffffff168152602001908152602001600020604051806080016040529081600082015481526020016001820160009054906101000a900473ffffffffffffffffffffffffffffffffffffffff1673ffffffffffffffffffffffffffffffffffffffff1673ffffffffffffffffffffffffffffffffffffffff1681526020016002820180548060200260200160405190810160405280929190818152602001828054801561138957602002820191906000526020600020905b815481526020019060010190808311611375575b505050505081526020016003820154815250509050919050565b6000600560003373ffffffffffffffffffffffffffffffffffffffff1673ffffffffffffffffffffffffffffffffffffffff1681526020019081526020016000206000015414611428576040517f08c379a000000000000000000000000000000000000000000000000000000000815260040161141f90613a9c565b60405180910390fd5b600060405180608001604052806001600560003373ffffffffffffffffffffffffffffffffffffffff1673ffffffffffffffffffffffffffffffffffffffff16815260200190815260200160002060020180549050611487919061345b565b81526020013373ffffffffffffffffffffffffffffffffffffffff168152602001600067ffffffffffffffff8111156114c3576114c261348f565b5b6040519080825280602002602001820160405280156114f15781602001602082028036833780820191505090505b5081526020016000815250905080600560003373ffffffffffffffffffffffffffffffffffffffff1673ffffffffffffffffffffffffffffffffffffffff1681526020019081526020016000206000820151816000015560208201518160010160006101000a81548173ffffffffffffffffffffffffffffffffffffffff021916908373ffffffffffffffffffffffffffffffffffffffff16021790555060408201518160020190805190602001906115ab9291906129c2565b506060820151816003015590505050565b6000600260003373ffffffffffffffffffffffffffffffffffffffff1673ffffffffffffffffffffffffffffffffffffffff16815260200190815260200160002060009054906101000a900460ff1661164a576040517f08c379a0000000000000000000000000000000000000000000000000000000008152600401611641906137c5565b60405180910390fd5b600154905090565b60066020528060005260406000206000915090508060000154908060010160009054906101000a900473ffffffffffffffffffffffffffffffffffffffff16908060030154908060040154905084565b60008060009054906101000a900473ffffffffffffffffffffffffffffffffffffffff16905090565b6116d3612a4d565b600360008381526020019081526020016000206040518060e0016040529081600082015481526020016001820160009054906101000a900473ffffffffffffffffffffffffffffffffffffffff1673ffffffffffffffffffffffffffffffffffffffff1673ffffffffffffffffffffffffffffffffffffffff1681526020016002820154815260200160038201548152602001600482015481526020016005820160009054906101000a900460ff161515151581526020016006820154815250509050919050565b60008054906101000a900473ffffffffffffffffffffffffffffffffffffffff1673ffffffffffffffffffffffffffffffffffffffff163373ffffffffffffffffffffffffffffffffffffffff1614611829576040517f08c379a0000000000000000000000000000000000000000000000000000000008152600401611820906137c5565b60405180910390fd5b60006001541161186e576040517f08c379a000000000000000000000000000000000000000000000000000000000815260040161186590613b08565b60405180910390fd5b60008054906101000a900473ffffffffffffffffffffffffffffffffffffffff1673ffffffffffffffffffffffffffffffffffffffff166108fc6001549081150290604051600060405180830381858888f193505050501580156118d6573d6000803e3d6000fd5b507f7084f5476618d8e60b11ef0d7d3f06914655adb8793e28ff7f018d4c76d505d560008054906101000a900473ffffffffffffffffffffffffffffffffffffffff1660015460405161192a9291906139bb565b60405180910390a1565b600260003373ffffffffffffffffffffffffffffffffffffffff1673ffffffffffffffffffffffffffffffffffffffff16815260200190815260200160002060009054906101000a900460ff166119c0576040517f08c379a00000000000000000000000000000000000000000000000000000000081526004016119b7906137c5565b60405180910390fd5b600015156004600083815260200190815260200160002060080160019054906101000a900460ff16151514611a2a576040517f08c379a0000000000000000000000000000000000000000000000000000000008152600401611a2190613831565b60405180910390fd5b60016004600083815260200190815260200160002060080160016101000a81548160ff02191690831515021790555050565b60026020528060005260406000206000915054906101000a900460ff1681565b600115156004600084815260200190815260200160002060080160009054906101000a900460ff16151514611ae6576040517f08c379a0000000000000000000000000000000000000000000000000000000008152600401611add90613b74565b60405180910390fd5b3373ffffffffffffffffffffffffffffffffffffffff166004600084815260200190815260200160002060010160009054906101000a900473ffffffffffffffffffffffffffffffffffffffff1673ffffffffffffffffffffffffffffffffffffffff1614611b8a576040517f08c379a0000000000000000000000000000000000000000000000000000000008152600401611b8190613be0565b60405180910390fd5b60005b6004600084815260200190815260200160002060070180549050811015611db6576000600460008581526020019081526020016000206007018281548110611bd857611bd7613724565b5b906000526020600020015490506000600360008381526020019081526020016000209050838160040154148015611c1e57508060050160009054906101000a900460ff16155b15611da7576000600460008781526020019081526020016000206005015490506000826002015490506000600460008981526020019081526020016000206006018781548110611c7157611c70613724565b5b9060005260206000200154600460008a81526020019081526020016000206004015484611c9e919061345b565b83611ca9919061364e565b611cb391906136bf565b905080846006018190555060018460050160006101000a81548160ff0219169083151502179055508360010160009054906101000a900473ffffffffffffffffffffffffffffffffffffffff1673ffffffffffffffffffffffffffffffffffffffff166108fc829081150290604051600060405180830381858888f19350505050158015611d45573d6000803e3d6000fd5b507f7084f5476618d8e60b11ef0d7d3f06914655adb8793e28ff7f018d4c76d505d58460010160009054906101000a900473ffffffffffffffffffffffffffffffffffffffff1682604051611d9b9291906139bb565b60405180910390a15050505b50508080600101915050611b8d565b505050565b60056020528060005260406000206000915090508060000154908060010160009054906101000a900473ffffffffffffffffffffffffffffffffffffffff16908060030154905083565b611e0d612aa2565b600660008373ffffffffffffffffffffffffffffffffffffffff1673ffffffffffffffffffffffffffffffffffffffff1681526020019081526020016000206040518060a0016040529081600082015481526020016001820160009054906101000a900473ffffffffffffffffffffffffffffffffffffffff1673ffffffffffffffffffffffffffffffffffffffff1673ffffffffffffffffffffffffffffffffffffffff16815260200160028201805480602002602001604051908101604052809291908181526020018280548015611f0657602002820191906000526020600020905b815481526020019060010190808311611ef2575b50505050508152602001600382015481526020016004820154815250509050919050565b611f32612ae7565b6004600083815260200190815260200160002060405180610140016040529081600082015481526020016001820160009054906101000a900473ffffffffffffffffffffffffffffffffffffffff1673ffffffffffffffffffffffffffffffffffffffff1673ffffffffffffffffffffffffffffffffffffffff168152602001600282015481526020016003820154815260200160048201548152602001600582015481526020016006820180548060200260200160405190810160405280929190818152602001828054801561202857602002820191906000526020600020905b815481526020019060010190808311612014575b505050505081526020016007820180548060200260200160405190810160405280929190818152602001828054801561208057602002820191906000526020600020905b81548152602001906001019080831161206c575b505050505081526020016008820160009054906101000a900460ff161515151581526020016008820160019054906101000a900460ff1615151515815250509050919050565b600080600460008681526020019081526020016000206000015411612120576040517f08c379a000000000000000000000000000000000000000000000000000000000815260040161211790613c4c565b60405180910390fd5b600015156004600086815260200190815260200160002060080160009054906101000a900460ff1615151461218a576040517f08c379a00000000000000000000000000000000000000000000000000000000081526004016121819061359c565b60405180910390fd5b600460008581526020019081526020016000206002015482101580156121c6575060046000858152602001908152602001600020600301548211155b612205576040517f08c379a00000000000000000000000000000000000000000000000000000000081526004016121fc9061362e565b60405180910390fd5b6000600460008681526020019081526020016000206005015490506000839050600084600460008981526020019081526020016000206006018760ff168154811061225357612252613724565b5b9060005260206000200154612268919061345b565b60046000898152602001908152602001600020600401548461228a919061345b565b83612295919061364e565b61229f91906136bf565b90508093505050509392505050565b6000600660003373ffffffffffffffffffffffffffffffffffffffff1673ffffffffffffffffffffffffffffffffffffffff1681526020019081526020016000206000015411612333576040517f08c379a000000000000000000000000000000000000000000000000000000000815260040161232a90613cde565b60405180910390fd5b3373ffffffffffffffffffffffffffffffffffffffff166004600084815260200190815260200160002060010160009054906101000a900473ffffffffffffffffffffffffffffffffffffffff1673ffffffffffffffffffffffffffffffffffffffff16146123d7576040517f08c379a00000000000000000000000000000000000000000000000000000000081526004016123ce90613d4a565b60405180910390fd5b600015156004600084815260200190815260200160002060080160009054906101000a900460ff16151514612441576040517f08c379a00000000000000000000000000000000000000000000000000000000081526004016124389061359c565b60405180910390fd5b60016004600084815260200190815260200160002060080160006101000a81548160ff02191690831515021790555061247a8282611a7c565b7f56fe9aa41f0884b06717b271b0b1b2eedc26fe9341fb37ab44d43e1f4405c988823360046000868152602001908152602001600020600501546040516124c39392919061306a565b60405180910390a15050565b6000600660003373ffffffffffffffffffffffffffffffffffffffff1673ffffffffffffffffffffffffffffffffffffffff1681526020019081526020016000206000015411612554576040517f08c379a000000000000000000000000000000000000000000000000000000000815260040161254b90613cde565b60405180910390fd5b60008511612597576040517f08c379a000000000000000000000000000000000000000000000000000000000815260040161258e90613ddc565b60405180910390fd5b8484116125d9576040517f08c379a00000000000000000000000000000000000000000000000000000000081526004016125d090613e6e565b60405180910390fd5b60006040518061014001604052808581526020013373ffffffffffffffffffffffffffffffffffffffff1681526020018781526020018681526020013481526020016000815260200160018561262f919061345b565b67ffffffffffffffff8111156126485761264761348f565b5b6040519080825280602002602001820160405280156126765781602001602082028036833780820191505090505b508152602001600067ffffffffffffffff8111156126975761269661348f565b5b6040519080825280602002602001820160405280156126c55781602001602082028036833780820191505090505b50815260200160001515815260200160001515815250905034600660003373ffffffffffffffffffffffffffffffffffffffff1673ffffffffffffffffffffffffffffffffffffffff168152602001908152602001600020600301600082825461272f919061345b565b9250508190555080600460008681526020019081526020016000206000820151816000015560208201518160010160006101000a81548173ffffffffffffffffffffffffffffffffffffffff021916908373ffffffffffffffffffffffffffffffffffffffff16021790555060408201518160020155606082015181600301556080820151816004015560a0820151816005015560c08201518160060190805190602001906127df9291906129c2565b5060e08201518160070190805190602001906127fc9291906129c2565b506101008201518160080160006101000a81548160ff0219169083151502179055506101208201518160080160016101000a81548160ff021916908315150217905550905050600660003373ffffffffffffffffffffffffffffffffffffffff1673ffffffffffffffffffffffffffffffffffffffff1681526020019081526020016000206002018490806001815401808255809150506001900390600052602060002001600090919091909150557f4d946047a8fad903eae1a1ebbf75dc1667359f7ee49a61c577a4c6c70bdceb13843388886040516128e09493929190612f37565b60405180910390a1505050505050565b600080600660008573ffffffffffffffffffffffffffffffffffffffff1673ffffffffffffffffffffffffffffffffffffffff16815260200190815260200160002060000154118015612947575060001515821515145b15612954578290506129bc565b6000600560008573ffffffffffffffffffffffffffffffffffffffff1673ffffffffffffffffffffffffffffffffffffffff168152602001908152602001600020600001541180156129aa575060011515821515145b156129b7578290506129bc565b600090505b92915050565b8280548282559060005260206000209081019282156129fe579160200282015b828111156129fd5782518255916020019190600101906129e2565b5b509050612a0b9190612b54565b5090565b604051806080016040528060008152602001600073ffffffffffffffffffffffffffffffffffffffff16815260200160608152602001600081525090565b6040518060e0016040528060008152602001600073ffffffffffffffffffffffffffffffffffffffff168152602001600081526020016000815260200160008152602001600015158152602001600081525090565b6040518060a0016040528060008152602001600073ffffffffffffffffffffffffffffffffffffffff1681526020016060815260200160008152602001600081525090565b60405180610140016040528060008152602001600073ffffffffffffffffffffffffffffffffffffffff1681526020016000815260200160008152602001600081526020016000815260200160608152602001606081526020016000151581526020016000151581525090565b5b80821115612b6d576000816000905550600101612b55565b5090565b600080fd5b6000819050919050565b612b8981612b76565b8114612b9457600080fd5b50565b600081359050612ba681612b80565b92915050565b60008060408385031215612bc357612bc2612b71565b5b6000612bd185828601612b97565b9250506020612be285828601612b97565b9150509250929050565b600060208284031215612c0257612c01612b71565b5b6000612c1084828501612b97565b91505092915050565b612c2281612b76565b82525050565b600073ffffffffffffffffffffffffffffffffffffffff82169050919050565b6000612c5382612c28565b9050919050565b612c6381612c48565b82525050565b60008115159050919050565b612c7e81612c69565b82525050565b600061010082019050612c9a600083018b612c19565b612ca7602083018a612c5a565b612cb46040830189612c19565b612cc16060830188612c19565b612cce6080830187612c19565b612cdb60a0830186612c19565b612ce860c0830185612c75565b612cf560e0830184612c75565b9998505050505050505050565b600060e082019050612d17600083018a612c19565b612d246020830189612c5a565b612d316040830188612c19565b612d3e6060830187612c19565b612d4b6080830186612c19565b612d5860a0830185612c75565b612d6560c0830184612c19565b98975050505050505050565b612d7a81612c48565b8114612d8557600080fd5b50565b600081359050612d9781612d71565b92915050565b600060208284031215612db357612db2612b71565b5b6000612dc184828501612d88565b91505092915050565b612dd381612b76565b82525050565b612de281612c48565b82525050565b600081519050919050565b600082825260208201905092915050565b6000819050602082019050919050565b6000612e208383612dca565b60208301905092915050565b6000602082019050919050565b6000612e4482612de8565b612e4e8185612df3565b9350612e5983612e04565b8060005b83811015612e8a578151612e718882612e14565b9750612e7c83612e2c565b925050600181019050612e5d565b5085935050505092915050565b6000608083016000830151612eaf6000860182612dca565b506020830151612ec26020860182612dd9565b5060408301518482036040860152612eda8282612e39565b9150506060830151612eef6060860182612dca565b508091505092915050565b60006020820190508181036000830152612f148184612e97565b905092915050565b6000602082019050612f316000830184612c19565b92915050565b6000608082019050612f4c6000830187612c19565b612f596020830186612c5a565b612f666040830185612c19565b612f736060830184612c19565b95945050505050565b6000602082019050612f916000830184612c5a565b92915050565b612fa081612c69565b82525050565b60e082016000820151612fbc6000850182612dca565b506020820151612fcf6020850182612dd9565b506040820151612fe26040850182612dca565b506060820151612ff56060850182612dca565b5060808201516130086080850182612dca565b5060a082015161301b60a0850182612f97565b5060c082015161302e60c0850182612dca565b50505050565b600060e0820190506130496000830184612fa6565b92915050565b60006020820190506130646000830184612c75565b92915050565b600060608201905061307f6000830186612c19565b61308c6020830185612c5a565b6130996040830184612c19565b949350505050565b600060a0830160008301516130b96000860182612dca565b5060208301516130cc6020860182612dd9565b50604083015184820360408601526130e48282612e39565b91505060608301516130f96060860182612dca565b50608083015161310c6080860182612dca565b508091505092915050565b6000602082019050818103600083015261313181846130a1565b905092915050565b6000610140830160008301516131526000860182612dca565b5060208301516131656020860182612dd9565b5060408301516131786040860182612dca565b50606083015161318b6060860182612dca565b50608083015161319e6080860182612dca565b5060a08301516131b160a0860182612dca565b5060c083015184820360c08601526131c98282612e39565b91505060e083015184820360e08601526131e38282612e39565b9150506101008301516131fa610100860182612f97565b5061012083015161320f610120860182612f97565b508091505092915050565b600060208201905081810360008301526132348184613139565b905092915050565b600060ff82169050919050565b6132528161323c565b811461325d57600080fd5b50565b60008135905061326f81613249565b92915050565b60008060006060848603121561328e5761328d612b71565b5b600061329c86828701612b97565b93505060206132ad86828701613260565b92505060406132be86828701612b97565b9150509250925092565b600080600080600060a086880312156132e4576132e3612b71565b5b60006132f288828901612b97565b955050602061330388828901612b97565b945050604061331488828901612b97565b935050606061332588828901612b97565b925050608061333688828901612b97565b9150509295509295909350565b61334c81612c69565b811461335757600080fd5b50565b60008135905061336981613343565b92915050565b6000806040838503121561338657613385612b71565b5b600061339485828601612d88565b92505060206133a58582860161335a565b9150509250929050565b600082825260208201905092915050565b7f416c726561647920726567697374657265642061732053656c6c657200000000600082015250565b60006133f6601c836133af565b9150613401826133c0565b602082019050919050565b60006020820190508181036000830152613425816133e9565b9050919050565b7f4e487b7100000000000000000000000000000000000000000000000000000000600052601160045260246000fd5b600061346682612b76565b915061347183612b76565b92508282019050808211156134895761348861342c565b5b92915050565b7f4e487b7100000000000000000000000000000000000000000000000000000000600052604160045260246000fd5b7f4f6e6c792042757965722063616e2063616c6c20746869732066756e6374696f60008201527f6e00000000000000000000000000000000000000000000000000000000000000602082015250565b600061351a6021836133af565b9150613525826134be565b604082019050919050565b600060208201905081810360008301526135498161350d565b9050919050565b7f5175697a20697320616c726561647920656e6465640000000000000000000000600082015250565b60006135866015836133af565b915061359182613550565b602082019050919050565b600060208201905081810360008301526135b581613579565b9050919050565b7f416d6f756e742073686f756c64206265206265747765656e206d696e20616e6460008201527f206d617820616d6f756e74000000000000000000000000000000000000000000602082015250565b6000613618602b836133af565b9150613623826135bc565b604082019050919050565b600060208201905081810360008301526136478161360b565b9050919050565b600061365982612b76565b915061366483612b76565b925082820261367281612b76565b915082820484148315176136895761368861342c565b5b5092915050565b7f4e487b7100000000000000000000000000000000000000000000000000000000600052601260045260246000fd5b60006136ca82612b76565b91506136d583612b76565b9250826136e5576136e4613690565b5b828204905092915050565b60006136fb82612b76565b915061370683612b76565b925082820390508181111561371e5761371d61342c565b5b92915050565b7f4e487b7100000000000000000000000000000000000000000000000000000000600052603260045260246000fd5b7f4f6e6c792041646d696e2063616e2063616c6c20746869732066756e6374696f60008201527f6e00000000000000000000000000000000000000000000000000000000000000602082015250565b60006137af6021836133af565b91506137ba82613753565b604082019050919050565b600060208201905081810360008301526137de816137a2565b9050919050565b7f5175697a20697320616c726561647920617070726f7665640000000000000000600082015250565b600061381b6018836133af565b9150613826826137e5565b602082019050919050565b6000602082019050818103600083015261384a8161380e565b9050919050565b7f416d6f756e742073686f756c642062652067726561746572207468616e203000600082015250565b6000613887601f836133af565b915061389282613851565b602082019050919050565b600060208201905081810360008301526138b68161387a565b9050919050565b7f496e73756666696369656e742062616c616e6365000000000000000000000000600082015250565b60006138f36014836133af565b91506138fe826138bd565b602082019050919050565b60006020820190508181036000830152613922816138e6565b9050919050565b7f416d6f756e742073686f756c64206265206c657373207468616e2070726f666960008201527f7400000000000000000000000000000000000000000000000000000000000000602082015250565b60006139856021836133af565b915061399082613929565b604082019050919050565b600060208201905081810360008301526139b481613978565b9050919050565b60006040820190506139d06000830185612c5a565b6139dd6020830184612c19565b9392505050565b7f416c726561647920726567697374657265642061732041646d696e0000000000600082015250565b6000613a1a601b836133af565b9150613a25826139e4565b602082019050919050565b60006020820190508181036000830152613a4981613a0d565b9050919050565b7f416c726561647920726567697374657265642061732042757965720000000000600082015250565b6000613a86601b836133af565b9150613a9182613a50565b602082019050919050565b60006020820190508181036000830152613ab581613a79565b9050919050565b7f4e6f2062616c616e636520746f20776974686472617700000000000000000000600082015250565b6000613af26016836133af565b9150613afd82613abc565b602082019050919050565b60006020820190508181036000830152613b2181613ae5565b9050919050565b7f5175697a206973206e6f7420656e646564207965740000000000000000000000600082015250565b6000613b5e6015836133af565b9150613b6982613b28565b602082019050919050565b60006020820190508181036000830152613b8d81613b51565b9050919050565b7f4f6e6c79206f776e65722063616e207472616e73666572207265776172647300600082015250565b6000613bca601f836133af565b9150613bd582613b94565b602082019050919050565b60006020820190508181036000830152613bf981613bbd565b9050919050565b7f5175697a20646f6573206e6f7420657869737400000000000000000000000000600082015250565b6000613c366013836133af565b9150613c4182613c00565b602082019050919050565b60006020820190508181036000830152613c6581613c29565b9050919050565b7f4f6e6c792053656c6c65722063616e2063616c6c20746869732066756e63746960008201527f6f6e000000000000000000000000000000000000000000000000000000000000602082015250565b6000613cc86022836133af565b9150613cd382613c6c565b604082019050919050565b60006020820190508181036000830152613cf781613cbb565b9050919050565b7f4f6e6c79206f776e65722063616e20656e6420746865207175697a0000000000600082015250565b6000613d34601b836133af565b9150613d3f82613cfe565b602082019050919050565b60006020820190508181036000830152613d6381613d27565b9050919050565b7f4d696e696d756d20616d6f756e742073686f756c64206265206772656174657260008201527f207468616e203000000000000000000000000000000000000000000000000000602082015250565b6000613dc66027836133af565b9150613dd182613d6a565b604082019050919050565b60006020820190508181036000830152613df581613db9565b9050919050565b7f4d6178696d756d20616d6f756e742073686f756c64206265206772656174657260008201527f207468616e206d696e696d756d20616d6f756e74000000000000000000000000602082015250565b6000613e586034836133af565b9150613e6382613dfc565b604082019050919050565b60006020820190508181036000830152613e8781613e4b565b905091905056fea2646970667358221220a3d4db9e6d2b99cc92fad229015a6cbc9fdbc45cf5ba55515becb5fd47f98f1a64736f6c634300081c0033",
  "linkReferences": {},
  "deployedLinkReferences": {}
}