{
  "_format": "hh-sol-artifact-1",
  "contractName": "MarketPlaceContract",
  "sourceName": "contracts/MarketPlaceContract.sol",
  "abi": [
    {
      "inputs": [],
      "stateMutability": "nonpayable",
      "type": "constructor"
    },
    {
      "anonymous": false,
      "inputs": [
        {
          "indexed": false,
          "internalType": "uint256",
          "name": "id",
          "type": "uint256"
        },
        {
          "indexed": false,
          "internalType": "address",
          "name": "owner",
          "type": "address"
        },
        {
          "indexed": false,
          "internalType": "uint256",
          "name": "minAmt",
          "type": "uint256"
        },
        {
          "indexed": false,
          "internalType": "uint256",
          "name": "maxAmt",
          "type": "uint256"
        }
      ],
      "name": "QuizCreated",
      "type": "event"
    },
    {
      "anonymous": false,
      "inputs": [
        {
          "indexed": false,
          "internalType": "uint256",
          "name": "id",
          "type": "uint256"
        },
        {
          "indexed": false,
          "internalType": "address",
          "name": "owner",
          "type": "address"
        },
        {
          "indexed": false,
          "internalType": "uint256",
          "name": "totalAmt",
          "type": "uint256"
        }
      ],
      "name": "QuizEnded",
      "type": "event"
    },
    {
      "anonymous": false,
      "inputs": [
        {
          "indexed": false,
          "internalType": "uint256",
          "name": "id",
          "type": "uint256"
        },
        {
          "indexed": false,
          "internalType": "address",
          "name": "owner",
          "type": "address"
        },
        {
          "indexed": false,
          "internalType": "uint256",
          "name": "amt",
          "type": "uint256"
        },
        {
          "indexed": false,
          "internalType": "uint256",
          "name": "quizId",
          "type": "uint256"
        }
      ],
      "name": "TicketBought",
      "type": "event"
    },
    {
      "anonymous": false,
      "inputs": [
        {
          "indexed": false,
          "internalType": "address",
          "name": "owner",
          "type": "address"
        },
        {
          "indexed": false,
          "internalType": "uint256",
          "name": "amt",
          "type": "uint256"
        }
      ],
      "name": "Withdrawn",
      "type": "event"
    },
    {
      "inputs": [
        {
          "internalType": "uint256",
          "name": "_QuizId",
          "type": "uint256"
        }
      ],
      "name": "appvoreRequest",
      "outputs": [],
      "stateMutability": "nonpayable",
      "type": "function"
    },
    {
      "inputs": [
        {
          "internalType": "uint256",
          "name": "_QuizId",
          "type": "uint256"
        },
        {
          "internalType": "uint256",
          "name": "betIndex",
          "type": "uint256"
        }
      ],
      "name": "buyTicket",
      "outputs": [],
      "stateMutability": "payable",
      "type": "function"
    },
    {
      "inputs": [
        {
          "internalType": "address",
          "name": "",
          "type": "address"
        }
      ],
      "name": "buyerMap",
      "outputs": [
        {
          "internalType": "uint256",
          "name": "id",
          "type": "uint256"
        },
        {
          "internalType": "address",
          "name": "walletAdd",
          "type": "address"
        },
        {
          "internalType": "uint256",
          "name": "totalAmt",
          "type": "uint256"
        }
      ],
      "stateMutability": "view",
      "type": "function"
    },
    {
      "inputs": [
        {
          "internalType": "uint256",
          "name": "_minAmt",
          "type": "uint256"
        },
        {
          "internalType": "uint256",
          "name": "_maxAmt",
          "type": "uint256"
        },
        {
          "internalType": "uint256",
          "name": "_id",
          "type": "uint256"
        },
        {
          "internalType": "uint256",
          "name": "_numOfoptions",
          "type": "uint256"
        }
      ],
      "name": "createQuiz",
      "outputs": [],
      "stateMutability": "nonpayable",
      "type": "function"
    },
    {
      "inputs": [
        {
          "internalType": "uint256",
          "name": "_QuizId",
          "type": "uint256"
        },
        {
          "internalType": "uint256",
          "name": "_WinningInd",
          "type": "uint256"
        }
      ],
      "name": "endQuiz",
      "outputs": [],
      "stateMutability": "nonpayable",
      "type": "function"
    },
    {
      "inputs": [],
      "name": "getAdmin",
      "outputs": [
        {
          "internalType": "address",
          "name": "",
          "type": "address"
        }
      ],
      "stateMutability": "view",
      "type": "function"
    },
    {
      "inputs": [
        {
          "internalType": "address",
          "name": "_walletAdd",
          "type": "address"
        }
      ],
      "name": "getBuyer",
      "outputs": [
        {
          "components": [
            {
              "internalType": "uint256",
              "name": "id",
              "type": "uint256"
            },
            {
              "internalType": "address",
              "name": "walletAdd",
              "type": "address"
            },
            {
              "internalType": "uint256[]",
              "name": "tickets",
              "type": "uint256[]"
            },
            {
              "internalType": "uint256",
              "name": "totalAmt",
              "type": "uint256"
            }
          ],
          "internalType": "struct MarketPlaceContract.Buyer",
          "name": "",
          "type": "tuple"
        }
      ],
      "stateMutability": "view",
      "type": "function"
    },
    {
      "inputs": [
        {
          "internalType": "uint256",
          "name": "_QuizId",
          "type": "uint256"
        },
        {
          "internalType": "uint8",
          "name": "_betIndex",
          "type": "uint8"
        },
        {
          "internalType": "uint256",
          "name": "_amt",
          "type": "uint256"
        }
      ],
      "name": "getPredictedWinAmount",
      "outputs": [
        {
          "internalType": "uint256",
          "name": "",
          "type": "uint256"
        }
      ],
      "stateMutability": "view",
      "type": "function"
    },
    {
      "inputs": [],
      "name": "getProfit",
      "outputs": [
        {
          "internalType": "uint256",
          "name": "",
          "type": "uint256"
        }
      ],
      "stateMutability": "view",
      "type": "function"
    },
    {
      "inputs": [
        {
          "internalType": "uint256",
          "name": "_id",
          "type": "uint256"
        }
      ],
      "name": "getQuiz",
      "outputs": [
        {
          "components": [
            {
              "internalType": "uint256",
              "name": "id",
              "type": "uint256"
            },
            {
              "internalType": "address",
              "name": "owner",
              "type": "address"
            },
            {
              "internalType": "uint256",
              "name": "minAmt",
              "type": "uint256"
            },
            {
              "internalType": "uint256",
              "name": "maxAmt",
              "type": "uint256"
            },
            {
              "internalType": "uint256",
              "name": "totalAmt",
              "type": "uint256"
            },
            {
              "internalType": "uint256[]",
              "name": "options",
              "type": "uint256[]"
            },
            {
              "internalType": "uint256[]",
              "name": "tickets",
              "type": "uint256[]"
            },
            {
              "internalType": "bool",
              "name": "isEnded",
              "type": "bool"
            },
            {
              "internalType": "bool",
              "name": "isApproved",
              "type": "bool"
            }
          ],
          "internalType": "struct MarketPlaceContract.Quiz",
          "name": "",
          "type": "tuple"
        }
      ],
      "stateMutability": "view",
      "type": "function"
    },
    {
      "inputs": [
        {
          "internalType": "address",
          "name": "_walletAdd",
          "type": "address"
        }
      ],
      "name": "getSeller",
      "outputs": [
        {
          "components": [
            {
              "internalType": "uint256",
              "name": "id",
              "type": "uint256"
            },
            {
              "internalType": "address",
              "name": "walletAdd",
              "type": "address"
            },
            {
              "internalType": "uint256[]",
              "name": "quizzes",
              "type": "uint256[]"
            },
            {
              "internalType": "uint256",
              "name": "totalAmt",
              "type": "uint256"
            }
          ],
          "internalType": "struct MarketPlaceContract.Seller",
          "name": "",
          "type": "tuple"
        }
      ],
      "stateMutability": "view",
      "type": "function"
    },
    {
      "inputs": [
        {
          "internalType": "uint256",
          "name": "_id",
          "type": "uint256"
        }
      ],
      "name": "getTicket",
      "outputs": [
        {
          "components": [
            {
              "internalType": "uint256",
              "name": "id",
              "type": "uint256"
            },
            {
              "internalType": "address",
              "name": "owner",
              "type": "address"
            },
            {
              "internalType": "uint256",
              "name": "amt",
              "type": "uint256"
            },
            {
              "internalType": "uint256",
              "name": "quizId",
              "type": "uint256"
            },
            {
              "internalType": "uint256",
              "name": "betIndex",
              "type": "uint256"
            },
            {
              "internalType": "bool",
              "name": "isWithdrawn",
              "type": "bool"
            },
            {
              "internalType": "uint256",
              "name": "winAmt",
              "type": "uint256"
            }
          ],
          "internalType": "struct MarketPlaceContract.Ticket",
          "name": "",
          "type": "tuple"
        }
      ],
      "stateMutability": "view",
      "type": "function"
    },
    {
      "inputs": [
        {
          "internalType": "address",
          "name": "",
          "type": "address"
        }
      ],
      "name": "isAdminMap",
      "outputs": [
        {
          "internalType": "bool",
          "name": "",
          "type": "bool"
        }
      ],
      "stateMutability": "view",
      "type": "function"
    },
    {
      "inputs": [
        {
          "internalType": "address",
          "name": "_walletAdd",
          "type": "address"
        },
        {
          "internalType": "bool",
          "name": "isBuyer",
          "type": "bool"
        }
      ],
      "name": "login",
      "outputs": [
        {
          "internalType": "address",
          "name": "",
          "type": "address"
        }
      ],
      "stateMutability": "view",
      "type": "function"
    },
    {
      "inputs": [
        {
          "internalType": "uint256",
          "name": "",
          "type": "uint256"
        }
      ],
      "name": "quizMap",
      "outputs": [
        {
          "internalType": "uint256",
          "name": "id",
          "type": "uint256"
        },
        {
          "internalType": "address",
          "name": "owner",
          "type": "address"
        },
        {
          "internalType": "uint256",
          "name": "minAmt",
          "type": "uint256"
        },
        {
          "internalType": "uint256",
          "name": "maxAmt",
          "type": "uint256"
        },
        {
          "internalType": "uint256",
          "name": "totalAmt",
          "type": "uint256"
        },
        {
          "internalType": "bool",
          "name": "isEnded",
          "type": "bool"
        },
        {
          "internalType": "bool",
          "name": "isApproved",
          "type": "bool"
        }
      ],
      "stateMutability": "view",
      "type": "function"
    },
    {
      "inputs": [],
      "name": "registerAsAdmin",
      "outputs": [],
      "stateMutability": "nonpayable",
      "type": "function"
    },
    {
      "inputs": [],
      "name": "registerAsBuyer",
      "outputs": [],
      "stateMutability": "nonpayable",
      "type": "function"
    },
    {
      "inputs": [],
      "name": "registerAsSeller",
      "outputs": [],
      "stateMutability": "nonpayable",
      "type": "function"
    },
    {
      "inputs": [
        {
          "internalType": "uint256",
          "name": "_QuizId",
          "type": "uint256"
        }
      ],
      "name": "rejectRequest",
      "outputs": [],
      "stateMutability": "nonpayable",
      "type": "function"
    },
    {
      "inputs": [
        {
          "internalType": "address",
          "name": "",
          "type": "address"
        }
      ],
      "name": "sellerMap",
      "outputs": [
        {
          "internalType": "uint256",
          "name": "id",
          "type": "uint256"
        },
        {
          "internalType": "address",
          "name": "walletAdd",
          "type": "address"
        },
        {
          "internalType": "uint256",
          "name": "totalAmt",
          "type": "uint256"
        }
      ],
      "stateMutability": "view",
      "type": "function"
    },
    {
      "inputs": [
        {
          "internalType": "uint256",
          "name": "",
          "type": "uint256"
        }
      ],
      "name": "ticketMap",
      "outputs": [
        {
          "internalType": "uint256",
          "name": "id",
          "type": "uint256"
        },
        {
          "internalType": "address",
          "name": "owner",
          "type": "address"
        },
        {
          "internalType": "uint256",
          "name": "amt",
          "type": "uint256"
        },
        {
          "internalType": "uint256",
          "name": "quizId",
          "type": "uint256"
        },
        {
          "internalType": "uint256",
          "name": "betIndex",
          "type": "uint256"
        },
        {
          "internalType": "bool",
          "name": "isWithdrawn",
          "type": "bool"
        },
        {
          "internalType": "uint256",
          "name": "winAmt",
          "type": "uint256"
        }
      ],
      "stateMutability": "view",
      "type": "function"
    },
    {
      "inputs": [
        {
          "internalType": "uint256",
          "name": "_QuizId",
          "type": "uint256"
        },
        {
          "internalType": "uint256",
          "name": "_WinningInd",
          "type": "uint256"
        }
      ],
      "name": "transferRewardsToWinner",
      "outputs": [],
      "stateMutability": "payable",
      "type": "function"
    },
    {
      "inputs": [
        {
          "internalType": "uint256",
          "name": "_amt",
          "type": "uint256"
        }
      ],
      "name": "withdraw",
      "outputs": [],
      "stateMutability": "nonpayable",
      "type": "function"
    },
    {
      "inputs": [],
      "name": "withdrawAll",
      "outputs": [],
      "stateMutability": "nonpayable",
      "type": "function"
    }
  ],
  "bytecode": "0x60806040526000600155348015601457600080fd5b50336000806101000a81548173ffffffffffffffffffffffffffffffffffffffff021916908373ffffffffffffffffffffffffffffffffffffffff1602179055506001600260008060009054906101000a900473ffffffffffffffffffffffffffffffffffffffff1673ffffffffffffffffffffffffffffffffffffffff1673ffffffffffffffffffffffffffffffffffffffff16815260200190815260200160002060006101000a81548160ff021916908315150217905550613fa0806100dd6000396000f3fe60806040526004361061014b5760003560e01c80637dc379fa116100b6578063a323d29e1161006f578063a323d29e14610470578063a3f7e096146104ad578063af4fc955146104ea578063c694e33d14610527578063d3ec0aae14610550578063f728635a146105795761014b565b80637dc379fa1461035b578063853828b6146103985780638b7068bf146103af5780638e9a4c34146103d85780639af6a08a146104155780639cdb1837146104315761014b565b8063500e3cbd11610108578063500e3cbd1461022f5780635721e419146102725780635b4a5cf2146102af578063679dffb4146102c65780636e78c51f146102f15780636e9960c3146103305761014b565b8063128b853214610150578063298ec208146101675780632d7788db146101835780632e1a7d4d146101ac578063490c369d146101d5578063498d55b814610218575b600080fd5b34801561015c57600080fd5b506101656105b6565b005b610181600480360381019061017c9190612cd3565b6107cf565b005b34801561018f57600080fd5b506101aa60048036038101906101a59190612d13565b610c27565b005b3480156101b857600080fd5b506101d360048036038101906101ce9190612d13565b610d4f565b005b3480156101e157600080fd5b506101fc60048036038101906101f79190612d13565b610f84565b60405161020f9796959493929190612dab565b60405180910390f35b34801561022457600080fd5b5061022d611000565b005b34801561023b57600080fd5b5061025660048036038101906102519190612d13565b6110e7565b6040516102699796959493929190612e1a565b60405180910390f35b34801561027e57600080fd5b5061029960048036038101906102949190612eb5565b611156565b6040516102a69190613012565b60405180910390f35b3480156102bb57600080fd5b506102c4611271565b005b3480156102d257600080fd5b506102db61148a565b6040516102e89190613034565b60405180910390f35b3480156102fd57600080fd5b5061031860048036038101906103139190612eb5565b611520565b6040516103279392919061304f565b60405180910390f35b34801561033c57600080fd5b5061034561156a565b6040516103529190613086565b60405180910390f35b34801561036757600080fd5b50610382600480360381019061037d9190612d13565b611593565b60405161038f919061313e565b60405180910390f35b3480156103a457600080fd5b506103ad611663565b005b3480156103bb57600080fd5b506103d660048036038101906103d19190612d13565b6117fc565b005b3480156103e457600080fd5b506103ff60048036038101906103fa9190612eb5565b611924565b60405161040c9190613159565b60405180910390f35b61042f600480360381019061042a9190612cd3565b611944565b005b34801561043d57600080fd5b5061045860048036038101906104539190612eb5565b611ed9565b6040516104679392919061304f565b60405180910390f35b34801561047c57600080fd5b5061049760048036038101906104929190612eb5565b611f23565b6040516104a491906131d7565b60405180910390f35b3480156104b957600080fd5b506104d460048036038101906104cf9190612d13565b61203e565b6040516104e191906132c5565b60405180910390f35b3480156104f657600080fd5b50610511600480360381019061050c9190613320565b6121d0565b60405161051e9190613034565b60405180910390f35b34801561053357600080fd5b5061054e60048036038101906105499190612cd3565b6123d8565b005b34801561055c57600080fd5b5061057760048036038101906105729190613373565b6125f9565b005b34801561058557600080fd5b506105a0600480360381019061059b9190613406565b6129af565b6040516105ad9190613086565b60405180910390f35b6000600660003373ffffffffffffffffffffffffffffffffffffffff1673ffffffffffffffffffffffffffffffffffffffff168152602001908152602001600020600001541461063b576040517f08c379a0000000000000000000000000000000000000000000000000000000008152600401610632906134a3565b60405180910390fd5b600060405180608001604052806001600660003373ffffffffffffffffffffffffffffffffffffffff1673ffffffffffffffffffffffffffffffffffffffff1681526020019081526020016000206002018054905061069a91906134f2565b81526020013373ffffffffffffffffffffffffffffffffffffffff168152602001600067ffffffffffffffff8111156106d6576106d5613526565b5b6040519080825280602002602001820160405280156107045781602001602082028036833780820191505090505b5081526020016000815250905080600660003373ffffffffffffffffffffffffffffffffffffffff1673ffffffffffffffffffffffffffffffffffffffff1681526020019081526020016000206000820151816000015560208201518160010160006101000a81548173ffffffffffffffffffffffffffffffffffffffff021916908373ffffffffffffffffffffffffffffffffffffffff16021790555060408201518160020190805190602001906107be929190612af7565b506060820151816003015590505050565b6000600560003373ffffffffffffffffffffffffffffffffffffffff1673ffffffffffffffffffffffffffffffffffffffff1681526020019081526020016000206000015411610854576040517f08c379a000000000000000000000000000000000000000000000000000000000815260040161084b906135c7565b60405180910390fd5b600015156004600084815260200190815260200160002060070160009054906101000a900460ff161515146108be576040517f08c379a00000000000000000000000000000000000000000000000000000000081526004016108b590613633565b60405180910390fd5b600460008381526020019081526020016000206002015434101580156108fa575060046000838152602001908152602001600020600301543411155b610939576040517f08c379a0000000000000000000000000000000000000000000000000000000008152600401610930906136c5565b60405180910390fd5b60006004600084815260200190815260200160002060060180549050905060004290506000828261096a91906134f2565b905060006040518060e001604052808381526020013373ffffffffffffffffffffffffffffffffffffffff1681526020013481526020018781526020018681526020016000151581526020016000815250905080600360008481526020019081526020016000206000820151816000015560208201518160010160006101000a81548173ffffffffffffffffffffffffffffffffffffffff021916908373ffffffffffffffffffffffffffffffffffffffff16021790555060408201518160020155606082015181600301556080820151816004015560a08201518160050160006101000a81548160ff02191690831515021790555060c0820151816006015590505060046000878152602001908152602001600020600601829080600181540180825580915050600190039060005260206000200160009091909190915055600560003373ffffffffffffffffffffffffffffffffffffffff1673ffffffffffffffffffffffffffffffffffffffff16815260200190815260200160002060020182908060018154018082558091505060019003906000526020600020016000909190919091505534600560003373ffffffffffffffffffffffffffffffffffffffff1673ffffffffffffffffffffffffffffffffffffffff1681526020019081526020016000206003016000828254610b6591906134f2565b9250508190555034600460008881526020019081526020016000206004016000828254610b9291906134f2565b9250508190555034600460008881526020019081526020016000206005018681548110610bc257610bc16136e5565b5b906000526020600020016000828254610bdb91906134f2565b925050819055507fa38a8990067bfd128af9e1c8e749a6940ee00f3621f6f6c8a9c93783a0b9dffe82333489604051610c179493929190613714565b60405180910390a1505050505050565b600260003373ffffffffffffffffffffffffffffffffffffffff1673ffffffffffffffffffffffffffffffffffffffff16815260200190815260200160002060009054906101000a900460ff16610cb3576040517f08c379a0000000000000000000000000000000000000000000000000000000008152600401610caa906137cb565b60405180910390fd5b600015156004600083815260200190815260200160002060070160019054906101000a900460ff16151514610d1d576040517f08c379a0000000000000000000000000000000000000000000000000000000008152600401610d1490613837565b60405180910390fd5b60006004600083815260200190815260200160002060070160016101000a81548160ff02191690831515021790555050565b60008054906101000a900473ffffffffffffffffffffffffffffffffffffffff1673ffffffffffffffffffffffffffffffffffffffff163373ffffffffffffffffffffffffffffffffffffffff1614610ddd576040517f08c379a0000000000000000000000000000000000000000000000000000000008152600401610dd4906137cb565b60405180910390fd5b60008111610e20576040517f08c379a0000000000000000000000000000000000000000000000000000000008152600401610e17906138a3565b60405180910390fd5b47811115610e63576040517f08c379a0000000000000000000000000000000000000000000000000000000008152600401610e5a9061390f565b60405180910390fd5b600154811115610ea8576040517f08c379a0000000000000000000000000000000000000000000000000000000008152600401610e9f906139a1565b60405180910390fd5b60008054906101000a900473ffffffffffffffffffffffffffffffffffffffff1673ffffffffffffffffffffffffffffffffffffffff166108fc829081150290604051600060405180830381858888f19350505050158015610f0e573d6000803e3d6000fd5b508060016000828254610f2191906139c1565b925050819055507f7084f5476618d8e60b11ef0d7d3f06914655adb8793e28ff7f018d4c76d505d560008054906101000a900473ffffffffffffffffffffffffffffffffffffffff1682604051610f799291906139f5565b60405180910390a150565b60046020528060005260406000206000915090508060000154908060010160009054906101000a900473ffffffffffffffffffffffffffffffffffffffff16908060020154908060030154908060040154908060070160009054906101000a900460ff16908060070160019054906101000a900460ff16905087565b600260003373ffffffffffffffffffffffffffffffffffffffff1673ffffffffffffffffffffffffffffffffffffffff16815260200190815260200160002060009054906101000a900460ff161561108d576040517f08c379a000000000000000000000000000000000000000000000000000000000815260040161108490613a6a565b60405180910390fd5b6001600260003373ffffffffffffffffffffffffffffffffffffffff1673ffffffffffffffffffffffffffffffffffffffff16815260200190815260200160002060006101000a81548160ff021916908315150217905550565b60036020528060005260406000206000915090508060000154908060010160009054906101000a900473ffffffffffffffffffffffffffffffffffffffff16908060020154908060030154908060040154908060050160009054906101000a900460ff16908060060154905087565b61115e612b44565b600560008373ffffffffffffffffffffffffffffffffffffffff1673ffffffffffffffffffffffffffffffffffffffff168152602001908152602001600020604051806080016040529081600082015481526020016001820160009054906101000a900473ffffffffffffffffffffffffffffffffffffffff1673ffffffffffffffffffffffffffffffffffffffff1673ffffffffffffffffffffffffffffffffffffffff1681526020016002820180548060200260200160405190810160405280929190818152602001828054801561125757602002820191906000526020600020905b815481526020019060010190808311611243575b505050505081526020016003820154815250509050919050565b6000600560003373ffffffffffffffffffffffffffffffffffffffff1673ffffffffffffffffffffffffffffffffffffffff16815260200190815260200160002060000154146112f6576040517f08c379a00000000000000000000000000000000000000000000000000000000081526004016112ed90613ad6565b60405180910390fd5b600060405180608001604052806001600560003373ffffffffffffffffffffffffffffffffffffffff1673ffffffffffffffffffffffffffffffffffffffff1681526020019081526020016000206002018054905061135591906134f2565b81526020013373ffffffffffffffffffffffffffffffffffffffff168152602001600067ffffffffffffffff81111561139157611390613526565b5b6040519080825280602002602001820160405280156113bf5781602001602082028036833780820191505090505b5081526020016000815250905080600560003373ffffffffffffffffffffffffffffffffffffffff1673ffffffffffffffffffffffffffffffffffffffff1681526020019081526020016000206000820151816000015560208201518160010160006101000a81548173ffffffffffffffffffffffffffffffffffffffff021916908373ffffffffffffffffffffffffffffffffffffffff1602179055506040820151816002019080519060200190611479929190612af7565b506060820151816003015590505050565b6000600260003373ffffffffffffffffffffffffffffffffffffffff1673ffffffffffffffffffffffffffffffffffffffff16815260200190815260200160002060009054906101000a900460ff16611518576040517f08c379a000000000000000000000000000000000000000000000000000000000815260040161150f906137cb565b60405180910390fd5b600154905090565b60066020528060005260406000206000915090508060000154908060010160009054906101000a900473ffffffffffffffffffffffffffffffffffffffff16908060030154905083565b60008060009054906101000a900473ffffffffffffffffffffffffffffffffffffffff16905090565b61159b612b82565b600360008381526020019081526020016000206040518060e0016040529081600082015481526020016001820160009054906101000a900473ffffffffffffffffffffffffffffffffffffffff1673ffffffffffffffffffffffffffffffffffffffff1673ffffffffffffffffffffffffffffffffffffffff1681526020016002820154815260200160038201548152602001600482015481526020016005820160009054906101000a900460ff161515151581526020016006820154815250509050919050565b60008054906101000a900473ffffffffffffffffffffffffffffffffffffffff1673ffffffffffffffffffffffffffffffffffffffff163373ffffffffffffffffffffffffffffffffffffffff16146116f1576040517f08c379a00000000000000000000000000000000000000000000000000000000081526004016116e8906137cb565b60405180910390fd5b600060015411611736576040517f08c379a000000000000000000000000000000000000000000000000000000000815260040161172d90613b42565b60405180910390fd5b60008054906101000a900473ffffffffffffffffffffffffffffffffffffffff1673ffffffffffffffffffffffffffffffffffffffff166108fc6001549081150290604051600060405180830381858888f1935050505015801561179e573d6000803e3d6000fd5b507f7084f5476618d8e60b11ef0d7d3f06914655adb8793e28ff7f018d4c76d505d560008054906101000a900473ffffffffffffffffffffffffffffffffffffffff166001546040516117f29291906139f5565b60405180910390a1565b600260003373ffffffffffffffffffffffffffffffffffffffff1673ffffffffffffffffffffffffffffffffffffffff16815260200190815260200160002060009054906101000a900460ff16611888576040517f08c379a000000000000000000000000000000000000000000000000000000000815260040161187f906137cb565b60405180910390fd5b600015156004600083815260200190815260200160002060070160019054906101000a900460ff161515146118f2576040517f08c379a00000000000000000000000000000000000000000000000000000000081526004016118e990613837565b60405180910390fd5b60016004600083815260200190815260200160002060070160016101000a81548160ff02191690831515021790555050565b60026020528060005260406000206000915054906101000a900460ff1681565b600115156004600084815260200190815260200160002060070160009054906101000a900460ff161515146119ae576040517f08c379a00000000000000000000000000000000000000000000000000000000081526004016119a590613bae565b60405180910390fd5b3373ffffffffffffffffffffffffffffffffffffffff166004600084815260200190815260200160002060010160009054906101000a900473ffffffffffffffffffffffffffffffffffffffff1673ffffffffffffffffffffffffffffffffffffffff1614611a52576040517f08c379a0000000000000000000000000000000000000000000000000000000008152600401611a4990613c1a565b60405180910390fd5b60006004600084815260200190815260200160002060060180549050905060006004600085815260200190815260200160002060040154905060006064600583611a9c9190613c3a565b611aa69190613cab565b90508082611ab491906139c1565b91508060016000828254611ac891906134f2565b9250508190555060008054906101000a900473ffffffffffffffffffffffffffffffffffffffff1673ffffffffffffffffffffffffffffffffffffffff166108fc829081150290604051600060405180830381858888f19350505050158015611b35573d6000803e3d6000fd5b5060005b83811015611ed1578460036000600460008a81526020019081526020016000206006018481548110611b6e57611b6d6136e5565b5b906000526020600020015481526020019081526020016000206004015403611ec4576000611c01600460008981526020019081526020016000206006018381548110611bbd57611bbc6136e5565b5b906000526020600020015485600460008b81526020019081526020016000206005018981548110611bf157611bf06136e5565b5b9060005260206000200154612a81565b905060036000600460008a81526020019081526020016000206006018481548110611c2f57611c2e6136e5565b5b9060005260206000200154815260200190815260200160002060010160009054906101000a900473ffffffffffffffffffffffffffffffffffffffff1673ffffffffffffffffffffffffffffffffffffffff166108fc829081150290604051600060405180830381858888f19350505050158015611cb1573d6000803e3d6000fd5b50600160036000600460008b81526020019081526020016000206006018581548110611ce057611cdf6136e5565b5b9060005260206000200154815260200190815260200160002060050160006101000a81548160ff0219169083151502179055508060036000600460008b81526020019081526020016000206006018581548110611d4057611d3f6136e5565b5b9060005260206000200154815260200190815260200160002060060181905550806005600060036000600460008d81526020019081526020016000206006018781548110611d9157611d906136e5565b5b9060005260206000200154815260200190815260200160002060010160009054906101000a900473ffffffffffffffffffffffffffffffffffffffff1673ffffffffffffffffffffffffffffffffffffffff1673ffffffffffffffffffffffffffffffffffffffff1681526020019081526020016000206003016000828254611e1a91906134f2565b925050819055507f7084f5476618d8e60b11ef0d7d3f06914655adb8793e28ff7f018d4c76d505d560036000600460008b81526020019081526020016000206006018581548110611e6e57611e6d6136e5565b5b9060005260206000200154815260200190815260200160002060010160009054906101000a900473ffffffffffffffffffffffffffffffffffffffff1682604051611eba9291906139f5565b60405180910390a1505b8080600101915050611b39565b505050505050565b60056020528060005260406000206000915090508060000154908060010160009054906101000a900473ffffffffffffffffffffffffffffffffffffffff16908060030154905083565b611f2b612bd7565b600660008373ffffffffffffffffffffffffffffffffffffffff1673ffffffffffffffffffffffffffffffffffffffff168152602001908152602001600020604051806080016040529081600082015481526020016001820160009054906101000a900473ffffffffffffffffffffffffffffffffffffffff1673ffffffffffffffffffffffffffffffffffffffff1673ffffffffffffffffffffffffffffffffffffffff1681526020016002820180548060200260200160405190810160405280929190818152602001828054801561202457602002820191906000526020600020905b815481526020019060010190808311612010575b505050505081526020016003820154815250509050919050565b612046612c15565b6004600083815260200190815260200160002060405180610120016040529081600082015481526020016001820160009054906101000a900473ffffffffffffffffffffffffffffffffffffffff1673ffffffffffffffffffffffffffffffffffffffff1673ffffffffffffffffffffffffffffffffffffffff1681526020016002820154815260200160038201548152602001600482015481526020016005820180548060200260200160405190810160405280929190818152602001828054801561213257602002820191906000526020600020905b81548152602001906001019080831161211e575b505050505081526020016006820180548060200260200160405190810160405280929190818152602001828054801561218a57602002820191906000526020600020905b815481526020019060010190808311612176575b505050505081526020016007820160009054906101000a900460ff161515151581526020016007820160019054906101000a900460ff1615151515815250509050919050565b60008060046000868152602001908152602001600020600001541161222a576040517f08c379a000000000000000000000000000000000000000000000000000000000815260040161222190613d28565b60405180910390fd5b600015156004600086815260200190815260200160002060070160009054906101000a900460ff16151514612294576040517f08c379a000000000000000000000000000000000000000000000000000000000815260040161228b90613633565b60405180910390fd5b600460008581526020019081526020016000206002015482101580156122d0575060046000858152602001908152602001600020600301548211155b61230f576040517f08c379a0000000000000000000000000000000000000000000000000000000008152600401612306906136c5565b60405180910390fd5b6000600460008681526020019081526020016000206004015490506000810361233c5760009150506123d1565b6000606460058361234d9190613c3a565b6123579190613cab565b9050808261236591906139c1565b91506000600460008881526020019081526020016000206005018660ff1681548110612394576123936136e5565b5b90600052602060002001549050600081036123ae57600190505b60008382876123bd9190613cab565b6123c79190613c3a565b9050809450505050505b9392505050565b6000600660003373ffffffffffffffffffffffffffffffffffffffff1673ffffffffffffffffffffffffffffffffffffffff168152602001908152602001600020600001541161245d576040517f08c379a000000000000000000000000000000000000000000000000000000000815260040161245490613dba565b60405180910390fd5b3373ffffffffffffffffffffffffffffffffffffffff166004600084815260200190815260200160002060010160009054906101000a900473ffffffffffffffffffffffffffffffffffffffff1673ffffffffffffffffffffffffffffffffffffffff1614612501576040517f08c379a00000000000000000000000000000000000000000000000000000000081526004016124f890613e26565b60405180910390fd5b600015156004600084815260200190815260200160002060070160009054906101000a900460ff1615151461256b576040517f08c379a000000000000000000000000000000000000000000000000000000000815260040161256290613633565b60405180910390fd5b60016004600084815260200190815260200160002060070160006101000a81548160ff0219169083151502179055506125a48282611944565b7f56fe9aa41f0884b06717b271b0b1b2eedc26fe9341fb37ab44d43e1f4405c988823360046000868152602001908152602001600020600401546040516125ed9392919061304f565b60405180910390a15050565b6000600660003373ffffffffffffffffffffffffffffffffffffffff1673ffffffffffffffffffffffffffffffffffffffff168152602001908152602001600020600001541161267e576040517f08c379a000000000000000000000000000000000000000000000000000000000815260040161267590613dba565b60405180910390fd5b600084116126c1576040517f08c379a00000000000000000000000000000000000000000000000000000000081526004016126b890613eb8565b60405180910390fd5b838311612703576040517f08c379a00000000000000000000000000000000000000000000000000000000081526004016126fa90613f4a565b60405180910390fd5b60006040518061012001604052808481526020013373ffffffffffffffffffffffffffffffffffffffff1681526020018681526020018581526020016000815260200160018461275391906134f2565b67ffffffffffffffff81111561276c5761276b613526565b5b60405190808252806020026020018201604052801561279a5781602001602082028036833780820191505090505b508152602001600067ffffffffffffffff8111156127bb576127ba613526565b5b6040519080825280602002602001820160405280156127e95781602001602082028036833780820191505090505b50815260200160001515815260200160001515815250905080600460008581526020019081526020016000206000820151816000015560208201518160010160006101000a81548173ffffffffffffffffffffffffffffffffffffffff021916908373ffffffffffffffffffffffffffffffffffffffff16021790555060408201518160020155606082015181600301556080820151816004015560a08201518160050190805190602001906128a0929190612af7565b5060c08201518160060190805190602001906128bd929190612af7565b5060e08201518160070160006101000a81548160ff0219169083151502179055506101008201518160070160016101000a81548160ff021916908315150217905550905050600660003373ffffffffffffffffffffffffffffffffffffffff1673ffffffffffffffffffffffffffffffffffffffff1681526020019081526020016000206002018390806001815401808255809150506001900390600052602060002001600090919091909150557f4d946047a8fad903eae1a1ebbf75dc1667359f7ee49a61c577a4c6c70bdceb13833387876040516129a09493929190613714565b60405180910390a15050505050565b600080600660008573ffffffffffffffffffffffffffffffffffffffff1673ffffffffffffffffffffffffffffffffffffffff16815260200190815260200160002060000154118015612a06575060001515821515145b15612a1357829050612a7b565b6000600560008573ffffffffffffffffffffffffffffffffffffffff1673ffffffffffffffffffffffffffffffffffffffff16815260200190815260200160002060000154118015612a69575060011515821515145b15612a7657829050612a7b565b600090505b92915050565b6000808203612a935760009050612af0565b6000600360008681526020019081526020016000206002015403612aba5760009050612af0565b600083836003600088815260200190815260200160002060020154612adf9190613cab565b612ae99190613c3a565b9050809150505b9392505050565b828054828255906000526020600020908101928215612b33579160200282015b82811115612b32578251825591602001919060010190612b17565b5b509050612b409190612c7b565b5090565b604051806080016040528060008152602001600073ffffffffffffffffffffffffffffffffffffffff16815260200160608152602001600081525090565b6040518060e0016040528060008152602001600073ffffffffffffffffffffffffffffffffffffffff168152602001600081526020016000815260200160008152602001600015158152602001600081525090565b604051806080016040528060008152602001600073ffffffffffffffffffffffffffffffffffffffff16815260200160608152602001600081525090565b60405180610120016040528060008152602001600073ffffffffffffffffffffffffffffffffffffffff16815260200160008152602001600081526020016000815260200160608152602001606081526020016000151581526020016000151581525090565b5b80821115612c94576000816000905550600101612c7c565b5090565b600080fd5b6000819050919050565b612cb081612c9d565b8114612cbb57600080fd5b50565b600081359050612ccd81612ca7565b92915050565b60008060408385031215612cea57612ce9612c98565b5b6000612cf885828601612cbe565b9250506020612d0985828601612cbe565b9150509250929050565b600060208284031215612d2957612d28612c98565b5b6000612d3784828501612cbe565b91505092915050565b612d4981612c9d565b82525050565b600073ffffffffffffffffffffffffffffffffffffffff82169050919050565b6000612d7a82612d4f565b9050919050565b612d8a81612d6f565b82525050565b60008115159050919050565b612da581612d90565b82525050565b600060e082019050612dc0600083018a612d40565b612dcd6020830189612d81565b612dda6040830188612d40565b612de76060830187612d40565b612df46080830186612d40565b612e0160a0830185612d9c565b612e0e60c0830184612d9c565b98975050505050505050565b600060e082019050612e2f600083018a612d40565b612e3c6020830189612d81565b612e496040830188612d40565b612e566060830187612d40565b612e636080830186612d40565b612e7060a0830185612d9c565b612e7d60c0830184612d40565b98975050505050505050565b612e9281612d6f565b8114612e9d57600080fd5b50565b600081359050612eaf81612e89565b92915050565b600060208284031215612ecb57612eca612c98565b5b6000612ed984828501612ea0565b91505092915050565b612eeb81612c9d565b82525050565b612efa81612d6f565b82525050565b600081519050919050565b600082825260208201905092915050565b6000819050602082019050919050565b6000612f388383612ee2565b60208301905092915050565b6000602082019050919050565b6000612f5c82612f00565b612f668185612f0b565b9350612f7183612f1c565b8060005b83811015612fa2578151612f898882612f2c565b9750612f9483612f44565b925050600181019050612f75565b5085935050505092915050565b6000608083016000830151612fc76000860182612ee2565b506020830151612fda6020860182612ef1565b5060408301518482036040860152612ff28282612f51565b91505060608301516130076060860182612ee2565b508091505092915050565b6000602082019050818103600083015261302c8184612faf565b905092915050565b60006020820190506130496000830184612d40565b92915050565b60006060820190506130646000830186612d40565b6130716020830185612d81565b61307e6040830184612d40565b949350505050565b600060208201905061309b6000830184612d81565b92915050565b6130aa81612d90565b82525050565b60e0820160008201516130c66000850182612ee2565b5060208201516130d96020850182612ef1565b5060408201516130ec6040850182612ee2565b5060608201516130ff6060850182612ee2565b5060808201516131126080850182612ee2565b5060a082015161312560a08501826130a1565b5060c082015161313860c0850182612ee2565b50505050565b600060e08201905061315360008301846130b0565b92915050565b600060208201905061316e6000830184612d9c565b92915050565b600060808301600083015161318c6000860182612ee2565b50602083015161319f6020860182612ef1565b50604083015184820360408601526131b78282612f51565b91505060608301516131cc6060860182612ee2565b508091505092915050565b600060208201905081810360008301526131f18184613174565b905092915050565b6000610120830160008301516132126000860182612ee2565b5060208301516132256020860182612ef1565b5060408301516132386040860182612ee2565b50606083015161324b6060860182612ee2565b50608083015161325e6080860182612ee2565b5060a083015184820360a08601526132768282612f51565b91505060c083015184820360c08601526132908282612f51565b91505060e08301516132a560e08601826130a1565b506101008301516132ba6101008601826130a1565b508091505092915050565b600060208201905081810360008301526132df81846131f9565b905092915050565b600060ff82169050919050565b6132fd816132e7565b811461330857600080fd5b50565b60008135905061331a816132f4565b92915050565b60008060006060848603121561333957613338612c98565b5b600061334786828701612cbe565b93505060206133588682870161330b565b925050604061336986828701612cbe565b9150509250925092565b6000806000806080858703121561338d5761338c612c98565b5b600061339b87828801612cbe565b94505060206133ac87828801612cbe565b93505060406133bd87828801612cbe565b92505060606133ce87828801612cbe565b91505092959194509250565b6133e381612d90565b81146133ee57600080fd5b50565b600081359050613400816133da565b92915050565b6000806040838503121561341d5761341c612c98565b5b600061342b85828601612ea0565b925050602061343c858286016133f1565b9150509250929050565b600082825260208201905092915050565b7f416c726561647920726567697374657265642061732053656c6c657200000000600082015250565b600061348d601c83613446565b915061349882613457565b602082019050919050565b600060208201905081810360008301526134bc81613480565b9050919050565b7f4e487b7100000000000000000000000000000000000000000000000000000000600052601160045260246000fd5b60006134fd82612c9d565b915061350883612c9d565b92508282019050808211156135205761351f6134c3565b5b92915050565b7f4e487b7100000000000000000000000000000000000000000000000000000000600052604160045260246000fd5b7f4f6e6c792042757965722063616e2063616c6c20746869732066756e6374696f60008201527f6e00000000000000000000000000000000000000000000000000000000000000602082015250565b60006135b1602183613446565b91506135bc82613555565b604082019050919050565b600060208201905081810360008301526135e0816135a4565b9050919050565b7f5175697a20697320616c726561647920656e6465640000000000000000000000600082015250565b600061361d601583613446565b9150613628826135e7565b602082019050919050565b6000602082019050818103600083015261364c81613610565b9050919050565b7f416d6f756e742073686f756c64206265206265747765656e206d696e20616e6460008201527f206d617820616d6f756e74000000000000000000000000000000000000000000602082015250565b60006136af602b83613446565b91506136ba82613653565b604082019050919050565b600060208201905081810360008301526136de816136a2565b9050919050565b7f4e487b7100000000000000000000000000000000000000000000000000000000600052603260045260246000fd5b60006080820190506137296000830187612d40565b6137366020830186612d81565b6137436040830185612d40565b6137506060830184612d40565b95945050505050565b7f4f6e6c792041646d696e2063616e2063616c6c20746869732066756e6374696f60008201527f6e00000000000000000000000000000000000000000000000000000000000000602082015250565b60006137b5602183613446565b91506137c082613759565b604082019050919050565b600060208201905081810360008301526137e4816137a8565b9050919050565b7f5175697a20697320616c726561647920617070726f7665640000000000000000600082015250565b6000613821601883613446565b915061382c826137eb565b602082019050919050565b6000602082019050818103600083015261385081613814565b9050919050565b7f416d6f756e742073686f756c642062652067726561746572207468616e203000600082015250565b600061388d601f83613446565b915061389882613857565b602082019050919050565b600060208201905081810360008301526138bc81613880565b9050919050565b7f496e73756666696369656e742062616c616e6365000000000000000000000000600082015250565b60006138f9601483613446565b9150613904826138c3565b602082019050919050565b60006020820190508181036000830152613928816138ec565b9050919050565b7f416d6f756e742073686f756c64206265206c657373207468616e2070726f666960008201527f7400000000000000000000000000000000000000000000000000000000000000602082015250565b600061398b602183613446565b91506139968261392f565b604082019050919050565b600060208201905081810360008301526139ba8161397e565b9050919050565b60006139cc82612c9d565b91506139d783612c9d565b92508282039050818111156139ef576139ee6134c3565b5b92915050565b6000604082019050613a0a6000830185612d81565b613a176020830184612d40565b9392505050565b7f416c726561647920726567697374657265642061732041646d696e0000000000600082015250565b6000613a54601b83613446565b9150613a5f82613a1e565b602082019050919050565b60006020820190508181036000830152613a8381613a47565b9050919050565b7f416c726561647920726567697374657265642061732042757965720000000000600082015250565b6000613ac0601b83613446565b9150613acb82613a8a565b602082019050919050565b60006020820190508181036000830152613aef81613ab3565b9050919050565b7f4e6f2062616c616e636520746f20776974686472617700000000000000000000600082015250565b6000613b2c601683613446565b9150613b3782613af6565b602082019050919050565b60006020820190508181036000830152613b5b81613b1f565b9050919050565b7f5175697a206973206e6f7420656e646564207965740000000000000000000000600082015250565b6000613b98601583613446565b9150613ba382613b62565b602082019050919050565b60006020820190508181036000830152613bc781613b8b565b9050919050565b7f4f6e6c79206f776e65722063616e207472616e73666572207265776172647300600082015250565b6000613c04601f83613446565b9150613c0f82613bce565b602082019050919050565b60006020820190508181036000830152613c3381613bf7565b9050919050565b6000613c4582612c9d565b9150613c5083612c9d565b9250828202613c5e81612c9d565b91508282048414831517613c7557613c746134c3565b5b5092915050565b7f4e487b7100000000000000000000000000000000000000000000000000000000600052601260045260246000fd5b6000613cb682612c9d565b9150613cc183612c9d565b925082613cd157613cd0613c7c565b5b828204905092915050565b7f5175697a20646f6573206e6f7420657869737400000000000000000000000000600082015250565b6000613d12601383613446565b9150613d1d82613cdc565b602082019050919050565b60006020820190508181036000830152613d4181613d05565b9050919050565b7f4f6e6c792053656c6c65722063616e2063616c6c20746869732066756e63746960008201527f6f6e000000000000000000000000000000000000000000000000000000000000602082015250565b6000613da4602283613446565b9150613daf82613d48565b604082019050919050565b60006020820190508181036000830152613dd381613d97565b9050919050565b7f4f6e6c79206f776e65722063616e20656e6420746865207175697a0000000000600082015250565b6000613e10601b83613446565b9150613e1b82613dda565b602082019050919050565b60006020820190508181036000830152613e3f81613e03565b9050919050565b7f4d696e696d756d20616d6f756e742073686f756c64206265206772656174657260008201527f207468616e203000000000000000000000000000000000000000000000000000602082015250565b6000613ea2602783613446565b9150613ead82613e46565b604082019050919050565b60006020820190508181036000830152613ed181613e95565b9050919050565b7f4d6178696d756d20616d6f756e742073686f756c64206265206772656174657260008201527f207468616e206d696e696d756d20616d6f756e74000000000000000000000000602082015250565b6000613f34603483613446565b9150613f3f82613ed8565b604082019050919050565b60006020820190508181036000830152613f6381613f27565b905091905056fea26469706673582212207b51c3531d58b6b9ea4fa2adc5c73e0be3eee1794da6fd53df19f866335bd91e64736f6c634300081c0033",
  "linkReferences": {},
  "deployedLinkReferences": {}
}