{
  "_format": "hh-sol-artifact-1",
  "contractName": "MarketPlaceContract",
  "sourceName": "contracts/MarketPlaceContract.sol",
  "abi": [
    {
      "inputs": [],
      "stateMutability": "nonpayable",
      "type": "constructor"
    },
    {
      "anonymous": false,
      "inputs": [
        {
          "indexed": false,
          "internalType": "uint256",
          "name": "id",
          "type": "uint256"
        },
        {
          "indexed": false,
          "internalType": "address",
          "name": "owner",
          "type": "address"
        },
        {
          "indexed": false,
          "internalType": "uint256",
          "name": "minAmt",
          "type": "uint256"
        },
        {
          "indexed": false,
          "internalType": "uint256",
          "name": "maxAmt",
          "type": "uint256"
        }
      ],
      "name": "QuizCreated",
      "type": "event"
    },
    {
      "anonymous": false,
      "inputs": [
        {
          "indexed": false,
          "internalType": "uint256",
          "name": "id",
          "type": "uint256"
        },
        {
          "indexed": false,
          "internalType": "address",
          "name": "owner",
          "type": "address"
        },
        {
          "indexed": false,
          "internalType": "uint256",
          "name": "totalAmt",
          "type": "uint256"
        }
      ],
      "name": "QuizEnded",
      "type": "event"
    },
    {
      "anonymous": false,
      "inputs": [
        {
          "indexed": false,
          "internalType": "uint256",
          "name": "id",
          "type": "uint256"
        },
        {
          "indexed": false,
          "internalType": "address",
          "name": "owner",
          "type": "address"
        },
        {
          "indexed": false,
          "internalType": "uint256",
          "name": "amt",
          "type": "uint256"
        },
        {
          "indexed": false,
          "internalType": "uint256",
          "name": "quizId",
          "type": "uint256"
        }
      ],
      "name": "TicketBought",
      "type": "event"
    },
    {
      "anonymous": false,
      "inputs": [
        {
          "indexed": false,
          "internalType": "address",
          "name": "owner",
          "type": "address"
        },
        {
          "indexed": false,
          "internalType": "uint256",
          "name": "amt",
          "type": "uint256"
        }
      ],
      "name": "Withdrawn",
      "type": "event"
    },
    {
      "inputs": [
        {
          "internalType": "uint256",
          "name": "_QuizId",
          "type": "uint256"
        },
        {
          "internalType": "uint256",
          "name": "betIndex",
          "type": "uint256"
        }
      ],
      "name": "buyTicket",
      "outputs": [],
      "stateMutability": "payable",
      "type": "function"
    },
    {
      "inputs": [
        {
          "internalType": "address",
          "name": "",
          "type": "address"
        }
      ],
      "name": "buyerMap",
      "outputs": [
        {
          "internalType": "uint256",
          "name": "id",
          "type": "uint256"
        },
        {
          "internalType": "address",
          "name": "walletAdd",
          "type": "address"
        },
        {
          "internalType": "uint256",
          "name": "totalAmt",
          "type": "uint256"
        }
      ],
      "stateMutability": "view",
      "type": "function"
    },
    {
      "inputs": [
        {
          "internalType": "uint256",
          "name": "_minAmt",
          "type": "uint256"
        },
        {
          "internalType": "uint256",
          "name": "_maxAmt",
          "type": "uint256"
        },
        {
          "internalType": "uint256",
          "name": "_id",
          "type": "uint256"
        },
        {
          "internalType": "uint256",
          "name": "_numOfoptions",
          "type": "uint256"
        }
      ],
      "name": "createQuiz",
      "outputs": [],
      "stateMutability": "nonpayable",
      "type": "function"
    },
    {
      "inputs": [
        {
          "internalType": "uint256",
          "name": "_QuizId",
          "type": "uint256"
        },
        {
          "internalType": "uint256",
          "name": "_WinningInd",
          "type": "uint256"
        }
      ],
      "name": "endQuiz",
      "outputs": [],
      "stateMutability": "nonpayable",
      "type": "function"
    },
    {
      "inputs": [
        {
          "internalType": "address",
          "name": "_walletAdd",
          "type": "address"
        },
        {
          "internalType": "bool",
          "name": "isBuyer",
          "type": "bool"
        }
      ],
      "name": "login",
      "outputs": [
        {
          "internalType": "address",
          "name": "",
          "type": "address"
        }
      ],
      "stateMutability": "view",
      "type": "function"
    },
    {
      "inputs": [
        {
          "internalType": "uint256",
          "name": "",
          "type": "uint256"
        }
      ],
      "name": "quizMap",
      "outputs": [
        {
          "internalType": "uint256",
          "name": "id",
          "type": "uint256"
        },
        {
          "internalType": "address",
          "name": "owner",
          "type": "address"
        },
        {
          "internalType": "uint256",
          "name": "minAmt",
          "type": "uint256"
        },
        {
          "internalType": "uint256",
          "name": "maxAmt",
          "type": "uint256"
        },
        {
          "internalType": "uint256",
          "name": "totalAmt",
          "type": "uint256"
        },
        {
          "internalType": "bool",
          "name": "isEnded",
          "type": "bool"
        }
      ],
      "stateMutability": "view",
      "type": "function"
    },
    {
      "inputs": [],
      "name": "registerAsBuyer",
      "outputs": [],
      "stateMutability": "nonpayable",
      "type": "function"
    },
    {
      "inputs": [],
      "name": "registerAsSeller",
      "outputs": [],
      "stateMutability": "nonpayable",
      "type": "function"
    },
    {
      "inputs": [
        {
          "internalType": "address",
          "name": "",
          "type": "address"
        }
      ],
      "name": "sellerMap",
      "outputs": [
        {
          "internalType": "uint256",
          "name": "id",
          "type": "uint256"
        },
        {
          "internalType": "address",
          "name": "walletAdd",
          "type": "address"
        },
        {
          "internalType": "uint256",
          "name": "totalAmt",
          "type": "uint256"
        }
      ],
      "stateMutability": "view",
      "type": "function"
    },
    {
      "inputs": [
        {
          "internalType": "uint256",
          "name": "",
          "type": "uint256"
        }
      ],
      "name": "ticketMap",
      "outputs": [
        {
          "internalType": "uint256",
          "name": "id",
          "type": "uint256"
        },
        {
          "internalType": "address",
          "name": "owner",
          "type": "address"
        },
        {
          "internalType": "uint256",
          "name": "amt",
          "type": "uint256"
        },
        {
          "internalType": "uint256",
          "name": "quizId",
          "type": "uint256"
        },
        {
          "internalType": "uint256",
          "name": "betIndex",
          "type": "uint256"
        }
      ],
      "stateMutability": "view",
      "type": "function"
    },
    {
      "inputs": [
        {
          "internalType": "uint256",
          "name": "_QuizId",
          "type": "uint256"
        },
        {
          "internalType": "uint256",
          "name": "_WinningInd",
          "type": "uint256"
        }
      ],
      "name": "transferRewardsToWinner",
      "outputs": [],
      "stateMutability": "payable",
      "type": "function"
    }
  ],
  "bytecode": "0x6080604052348015600f57600080fd5b50336000806101000a81548173ffffffffffffffffffffffffffffffffffffffff021916908373ffffffffffffffffffffffffffffffffffffffff1602179055506127738061005f6000396000f3fe60806040526004361061009c5760003560e01c80636e78c51f116100645780636e78c51f1461016e5780639af6a08a146101ad5780639cdb1837146101c9578063c694e33d14610208578063d3ec0aae14610231578063f728635a1461025a5761009c565b8063128b8532146100a1578063298ec208146100b8578063490c369d146100d4578063500e3cbd146101165780635b4a5cf214610157575b600080fd5b3480156100ad57600080fd5b506100b6610297565b005b6100d260048036038101906100cd9190611c8c565b6104b0565b005b3480156100e057600080fd5b506100fb60048036038101906100f69190611ccc565b6108ce565b60405161010d96959493929190611d64565b60405180910390f35b34801561012257600080fd5b5061013d60048036038101906101389190611ccc565b610937565b60405161014e959493929190611dc5565b60405180910390f35b34801561016357600080fd5b5061016c61098d565b005b34801561017a57600080fd5b5061019560048036038101906101909190611e44565b610ba6565b6040516101a493929190611e71565b60405180910390f35b6101c760048036038101906101c29190611c8c565b610bf0565b005b3480156101d557600080fd5b506101f060048036038101906101eb9190611e44565b6114e1565b6040516101ff93929190611e71565b60405180910390f35b34801561021457600080fd5b5061022f600480360381019061022a9190611c8c565b61152b565b005b34801561023d57600080fd5b5061025860048036038101906102539190611ea8565b61174c565b005b34801561026657600080fd5b50610281600480360381019061027c9190611f3b565b611ad8565b60405161028e9190611f7b565b60405180910390f35b6000600460003373ffffffffffffffffffffffffffffffffffffffff1673ffffffffffffffffffffffffffffffffffffffff168152602001908152602001600020600001541461031c576040517f08c379a000000000000000000000000000000000000000000000000000000000815260040161031390611ff3565b60405180910390fd5b600060405180608001604052806001600460003373ffffffffffffffffffffffffffffffffffffffff1673ffffffffffffffffffffffffffffffffffffffff1681526020019081526020016000206002018054905061037b9190612042565b81526020013373ffffffffffffffffffffffffffffffffffffffff168152602001600067ffffffffffffffff8111156103b7576103b6612076565b5b6040519080825280602002602001820160405280156103e55781602001602082028036833780820191505090505b5081526020016000815250905080600460003373ffffffffffffffffffffffffffffffffffffffff1673ffffffffffffffffffffffffffffffffffffffff1681526020019081526020016000206000820151816000015560208201518160010160006101000a81548173ffffffffffffffffffffffffffffffffffffffff021916908373ffffffffffffffffffffffffffffffffffffffff160217905550604082015181600201908051906020019061049f929190611be7565b506060820151816003015590505050565b6000600360003373ffffffffffffffffffffffffffffffffffffffff1673ffffffffffffffffffffffffffffffffffffffff1681526020019081526020016000206000015411610535576040517f08c379a000000000000000000000000000000000000000000000000000000000815260040161052c90612117565b60405180910390fd5b600015156002600084815260200190815260200160002060070160009054906101000a900460ff1615151461059f576040517f08c379a000000000000000000000000000000000000000000000000000000000815260040161059690612183565b60405180910390fd5b600260008381526020019081526020016000206002015434101580156105db575060026000838152602001908152602001600020600301543411155b61061a576040517f08c379a000000000000000000000000000000000000000000000000000000000815260040161061190612215565b60405180910390fd5b60006002600084815260200190815260200160002060060180549050905060004290506000828261064b9190612042565b905060006040518060a001604052808381526020013373ffffffffffffffffffffffffffffffffffffffff16815260200134815260200187815260200186815250905080600160008481526020019081526020016000206000820151816000015560208201518160010160006101000a81548173ffffffffffffffffffffffffffffffffffffffff021916908373ffffffffffffffffffffffffffffffffffffffff16021790555060408201518160020155606082015181600301556080820151816004015590505060026000878152602001908152602001600020600601829080600181540180825580915050600190039060005260206000200160009091909190915055600360003373ffffffffffffffffffffffffffffffffffffffff1673ffffffffffffffffffffffffffffffffffffffff16815260200190815260200160002060020182908060018154018082558091505060019003906000526020600020016000909190919091505534600360003373ffffffffffffffffffffffffffffffffffffffff1673ffffffffffffffffffffffffffffffffffffffff168152602001908152602001600020600301600082825461080c9190612042565b92505081905550346002600088815260200190815260200160002060040160008282546108399190612042565b925050819055503460026000888152602001908152602001600020600501868154811061086957610868612235565b5b9060005260206000200160008282546108829190612042565b925050819055507fa38a8990067bfd128af9e1c8e749a6940ee00f3621f6f6c8a9c93783a0b9dffe823334896040516108be9493929190612264565b60405180910390a1505050505050565b60026020528060005260406000206000915090508060000154908060010160009054906101000a900473ffffffffffffffffffffffffffffffffffffffff16908060020154908060030154908060040154908060070160009054906101000a900460ff16905086565b60016020528060005260406000206000915090508060000154908060010160009054906101000a900473ffffffffffffffffffffffffffffffffffffffff16908060020154908060030154908060040154905085565b6000600360003373ffffffffffffffffffffffffffffffffffffffff1673ffffffffffffffffffffffffffffffffffffffff1681526020019081526020016000206000015414610a12576040517f08c379a0000000000000000000000000000000000000000000000000000000008152600401610a09906122f5565b60405180910390fd5b600060405180608001604052806001600360003373ffffffffffffffffffffffffffffffffffffffff1673ffffffffffffffffffffffffffffffffffffffff16815260200190815260200160002060020180549050610a719190612042565b81526020013373ffffffffffffffffffffffffffffffffffffffff168152602001600067ffffffffffffffff811115610aad57610aac612076565b5b604051908082528060200260200182016040528015610adb5781602001602082028036833780820191505090505b5081526020016000815250905080600360003373ffffffffffffffffffffffffffffffffffffffff1673ffffffffffffffffffffffffffffffffffffffff1681526020019081526020016000206000820151816000015560208201518160010160006101000a81548173ffffffffffffffffffffffffffffffffffffffff021916908373ffffffffffffffffffffffffffffffffffffffff1602179055506040820151816002019080519060200190610b95929190611be7565b506060820151816003015590505050565b60046020528060005260406000206000915090508060000154908060010160009054906101000a900473ffffffffffffffffffffffffffffffffffffffff16908060030154905083565b600115156002600084815260200190815260200160002060070160009054906101000a900460ff16151514610c5a576040517f08c379a0000000000000000000000000000000000000000000000000000000008152600401610c5190612361565b60405180910390fd5b3373ffffffffffffffffffffffffffffffffffffffff166002600084815260200190815260200160002060010160009054906101000a900473ffffffffffffffffffffffffffffffffffffffff1673ffffffffffffffffffffffffffffffffffffffff1614610cfe576040517f08c379a0000000000000000000000000000000000000000000000000000000008152600401610cf5906123cd565b60405180910390fd5b60006002600084815260200190815260200160002060060180549050905060006002600085815260200190815260200160002060040154905060006064600583610d4891906123ed565b610d52919061245e565b90508082610d60919061248f565b915060008054906101000a900473ffffffffffffffffffffffffffffffffffffffff1673ffffffffffffffffffffffffffffffffffffffff166108fc829081150290604051600060405180830381858888f19350505050158015610dc8573d6000803e3d6000fd5b5060005b838110156114d9578460016000600260008a81526020019081526020016000206006018481548110610e0157610e00612235565b5b906000526020600020015481526020019081526020016000206004015403610fe8576000610e94600260008981526020019081526020016000206006018381548110610e5057610e4f612235565b5b906000526020600020015485600260008b81526020019081526020016000206005018981548110610e8457610e83612235565b5b9060005260206000200154611baa565b905060016000600260008a81526020019081526020016000206006018481548110610ec257610ec1612235565b5b9060005260206000200154815260200190815260200160002060010160009054906101000a900473ffffffffffffffffffffffffffffffffffffffff1673ffffffffffffffffffffffffffffffffffffffff166108fc829081150290604051600060405180830381858888f19350505050158015610f44573d6000803e3d6000fd5b507f7084f5476618d8e60b11ef0d7d3f06914655adb8793e28ff7f018d4c76d505d560016000600260008b81526020019081526020016000206006018581548110610f9257610f91612235565b5b9060005260206000200154815260200190815260200160002060010160009054906101000a900473ffffffffffffffffffffffffffffffffffffffff1682604051610fde9291906124c3565b60405180910390a1505b60005b6003600060016000600260008c8152602001908152602001600020600601868154811061101b5761101a612235565b5b9060005260206000200154815260200190815260200160002060010160009054906101000a900473ffffffffffffffffffffffffffffffffffffffff1673ffffffffffffffffffffffffffffffffffffffff1673ffffffffffffffffffffffffffffffffffffffff168152602001908152602001600020600201805490508110156114cb576002600088815260200190815260200160002060060182815481106110c8576110c7612235565b5b90600052602060002001546003600060016000600260008d8152602001908152602001600020600601878154811061110357611102612235565b5b9060005260206000200154815260200190815260200160002060010160009054906101000a900473ffffffffffffffffffffffffffffffffffffffff1673ffffffffffffffffffffffffffffffffffffffff1673ffffffffffffffffffffffffffffffffffffffff168152602001908152602001600020600201828154811061118f5761118e612235565b5b9060005260206000200154036114be576003600060016000600260008c815260200190815260200160002060060186815481106111cf576111ce612235565b5b9060005260206000200154815260200190815260200160002060010160009054906101000a900473ffffffffffffffffffffffffffffffffffffffff1673ffffffffffffffffffffffffffffffffffffffff1673ffffffffffffffffffffffffffffffffffffffff16815260200190815260200160002060020160016003600060016000600260008e8152602001908152602001600020600601888154811061127b5761127a612235565b5b9060005260206000200154815260200190815260200160002060010160009054906101000a900473ffffffffffffffffffffffffffffffffffffffff1673ffffffffffffffffffffffffffffffffffffffff1673ffffffffffffffffffffffffffffffffffffffff16815260200190815260200160002060020180549050611303919061248f565b8154811061131457611313612235565b5b90600052602060002001546003600060016000600260008d8152602001908152602001600020600601878154811061134f5761134e612235565b5b9060005260206000200154815260200190815260200160002060010160009054906101000a900473ffffffffffffffffffffffffffffffffffffffff1673ffffffffffffffffffffffffffffffffffffffff1673ffffffffffffffffffffffffffffffffffffffff16815260200190815260200160002060020182815481106113db576113da612235565b5b90600052602060002001819055506003600060016000600260008c8152602001908152602001600020600601868154811061141957611418612235565b5b9060005260206000200154815260200190815260200160002060010160009054906101000a900473ffffffffffffffffffffffffffffffffffffffff1673ffffffffffffffffffffffffffffffffffffffff1673ffffffffffffffffffffffffffffffffffffffff1681526020019081526020016000206002018054806114a3576114a26124ec565b5b600190038181906000526020600020016000905590556114cb565b8080600101915050610feb565b508080600101915050610dcc565b505050505050565b60036020528060005260406000206000915090508060000154908060010160009054906101000a900473ffffffffffffffffffffffffffffffffffffffff16908060030154905083565b6000600460003373ffffffffffffffffffffffffffffffffffffffff1673ffffffffffffffffffffffffffffffffffffffff16815260200190815260200160002060000154116115b0576040517f08c379a00000000000000000000000000000000000000000000000000000000081526004016115a79061258d565b60405180910390fd5b3373ffffffffffffffffffffffffffffffffffffffff166002600084815260200190815260200160002060010160009054906101000a900473ffffffffffffffffffffffffffffffffffffffff1673ffffffffffffffffffffffffffffffffffffffff1614611654576040517f08c379a000000000000000000000000000000000000000000000000000000000815260040161164b906125f9565b60405180910390fd5b600015156002600084815260200190815260200160002060070160009054906101000a900460ff161515146116be576040517f08c379a00000000000000000000000000000000000000000000000000000000081526004016116b590612183565b60405180910390fd5b60016002600084815260200190815260200160002060070160006101000a81548160ff0219169083151502179055506116f78282610bf0565b7f56fe9aa41f0884b06717b271b0b1b2eedc26fe9341fb37ab44d43e1f4405c9888233600260008681526020019081526020016000206004015460405161174093929190611e71565b60405180910390a15050565b6000600460003373ffffffffffffffffffffffffffffffffffffffff1673ffffffffffffffffffffffffffffffffffffffff16815260200190815260200160002060000154116117d1576040517f08c379a00000000000000000000000000000000000000000000000000000000081526004016117c89061258d565b60405180910390fd5b60008411611814576040517f08c379a000000000000000000000000000000000000000000000000000000000815260040161180b9061268b565b60405180910390fd5b838311611856576040517f08c379a000000000000000000000000000000000000000000000000000000000815260040161184d9061271d565b60405180910390fd5b60006040518061010001604052808481526020013373ffffffffffffffffffffffffffffffffffffffff168152602001868152602001858152602001600081526020016001846118a69190612042565b67ffffffffffffffff8111156118bf576118be612076565b5b6040519080825280602002602001820160405280156118ed5781602001602082028036833780820191505090505b508152602001600067ffffffffffffffff81111561190e5761190d612076565b5b60405190808252806020026020018201604052801561193c5781602001602082028036833780820191505090505b50815260200160001515815250905080600260008581526020019081526020016000206000820151816000015560208201518160010160006101000a81548173ffffffffffffffffffffffffffffffffffffffff021916908373ffffffffffffffffffffffffffffffffffffffff16021790555060408201518160020155606082015181600301556080820151816004015560a08201518160050190805190602001906119ea929190611be7565b5060c0820151816006019080519060200190611a07929190611be7565b5060e08201518160070160006101000a81548160ff021916908315150217905550905050600460003373ffffffffffffffffffffffffffffffffffffffff1673ffffffffffffffffffffffffffffffffffffffff1681526020019081526020016000206002018390806001815401808255809150506001900390600052602060002001600090919091909150557f4d946047a8fad903eae1a1ebbf75dc1667359f7ee49a61c577a4c6c70bdceb1383338787604051611ac99493929190612264565b60405180910390a15050505050565b600080600460008573ffffffffffffffffffffffffffffffffffffffff1673ffffffffffffffffffffffffffffffffffffffff16815260200190815260200160002060000154118015611b2f575060001515821515145b15611b3c57829050611ba4565b6000600360008573ffffffffffffffffffffffffffffffffffffffff1673ffffffffffffffffffffffffffffffffffffffff16815260200190815260200160002060000154118015611b92575060011515821515145b15611b9f57829050611ba4565b600090505b92915050565b60008083836001600088815260200190815260200160002060020154611bd0919061245e565b611bda91906123ed565b9050809150509392505050565b828054828255906000526020600020908101928215611c23579160200282015b82811115611c22578251825591602001919060010190611c07565b5b509050611c309190611c34565b5090565b5b80821115611c4d576000816000905550600101611c35565b5090565b600080fd5b6000819050919050565b611c6981611c56565b8114611c7457600080fd5b50565b600081359050611c8681611c60565b92915050565b60008060408385031215611ca357611ca2611c51565b5b6000611cb185828601611c77565b9250506020611cc285828601611c77565b9150509250929050565b600060208284031215611ce257611ce1611c51565b5b6000611cf084828501611c77565b91505092915050565b611d0281611c56565b82525050565b600073ffffffffffffffffffffffffffffffffffffffff82169050919050565b6000611d3382611d08565b9050919050565b611d4381611d28565b82525050565b60008115159050919050565b611d5e81611d49565b82525050565b600060c082019050611d796000830189611cf9565b611d866020830188611d3a565b611d936040830187611cf9565b611da06060830186611cf9565b611dad6080830185611cf9565b611dba60a0830184611d55565b979650505050505050565b600060a082019050611dda6000830188611cf9565b611de76020830187611d3a565b611df46040830186611cf9565b611e016060830185611cf9565b611e0e6080830184611cf9565b9695505050505050565b611e2181611d28565b8114611e2c57600080fd5b50565b600081359050611e3e81611e18565b92915050565b600060208284031215611e5a57611e59611c51565b5b6000611e6884828501611e2f565b91505092915050565b6000606082019050611e866000830186611cf9565b611e936020830185611d3a565b611ea06040830184611cf9565b949350505050565b60008060008060808587031215611ec257611ec1611c51565b5b6000611ed087828801611c77565b9450506020611ee187828801611c77565b9350506040611ef287828801611c77565b9250506060611f0387828801611c77565b91505092959194509250565b611f1881611d49565b8114611f2357600080fd5b50565b600081359050611f3581611f0f565b92915050565b60008060408385031215611f5257611f51611c51565b5b6000611f6085828601611e2f565b9250506020611f7185828601611f26565b9150509250929050565b6000602082019050611f906000830184611d3a565b92915050565b600082825260208201905092915050565b7f416c726561647920726567697374657265642061732053656c6c657200000000600082015250565b6000611fdd601c83611f96565b9150611fe882611fa7565b602082019050919050565b6000602082019050818103600083015261200c81611fd0565b9050919050565b7f4e487b7100000000000000000000000000000000000000000000000000000000600052601160045260246000fd5b600061204d82611c56565b915061205883611c56565b92508282019050808211156120705761206f612013565b5b92915050565b7f4e487b7100000000000000000000000000000000000000000000000000000000600052604160045260246000fd5b7f4f6e6c792042757965722063616e2063616c6c20746869732066756e6374696f60008201527f6e00000000000000000000000000000000000000000000000000000000000000602082015250565b6000612101602183611f96565b915061210c826120a5565b604082019050919050565b60006020820190508181036000830152612130816120f4565b9050919050565b7f5175697a20697320616c726561647920656e6465640000000000000000000000600082015250565b600061216d601583611f96565b915061217882612137565b602082019050919050565b6000602082019050818103600083015261219c81612160565b9050919050565b7f416d6f756e742073686f756c64206265206265747765656e206d696e20616e6460008201527f206d617820616d6f756e74000000000000000000000000000000000000000000602082015250565b60006121ff602b83611f96565b915061220a826121a3565b604082019050919050565b6000602082019050818103600083015261222e816121f2565b9050919050565b7f4e487b7100000000000000000000000000000000000000000000000000000000600052603260045260246000fd5b60006080820190506122796000830187611cf9565b6122866020830186611d3a565b6122936040830185611cf9565b6122a06060830184611cf9565b95945050505050565b7f416c726561647920726567697374657265642061732042757965720000000000600082015250565b60006122df601b83611f96565b91506122ea826122a9565b602082019050919050565b6000602082019050818103600083015261230e816122d2565b9050919050565b7f5175697a206973206e6f7420656e646564207965740000000000000000000000600082015250565b600061234b601583611f96565b915061235682612315565b602082019050919050565b6000602082019050818103600083015261237a8161233e565b9050919050565b7f4f6e6c79206f776e65722063616e207472616e73666572207265776172647300600082015250565b60006123b7601f83611f96565b91506123c282612381565b602082019050919050565b600060208201905081810360008301526123e6816123aa565b9050919050565b60006123f882611c56565b915061240383611c56565b925082820261241181611c56565b9150828204841483151761242857612427612013565b5b5092915050565b7f4e487b7100000000000000000000000000000000000000000000000000000000600052601260045260246000fd5b600061246982611c56565b915061247483611c56565b9250826124845761248361242f565b5b828204905092915050565b600061249a82611c56565b91506124a583611c56565b92508282039050818111156124bd576124bc612013565b5b92915050565b60006040820190506124d86000830185611d3a565b6124e56020830184611cf9565b9392505050565b7f4e487b7100000000000000000000000000000000000000000000000000000000600052603160045260246000fd5b7f4f6e6c792053656c6c65722063616e2063616c6c20746869732066756e63746960008201527f6f6e000000000000000000000000000000000000000000000000000000000000602082015250565b6000612577602283611f96565b91506125828261251b565b604082019050919050565b600060208201905081810360008301526125a68161256a565b9050919050565b7f4f6e6c79206f776e65722063616e20656e6420746865207175697a0000000000600082015250565b60006125e3601b83611f96565b91506125ee826125ad565b602082019050919050565b60006020820190508181036000830152612612816125d6565b9050919050565b7f4d696e696d756d20616d6f756e742073686f756c64206265206772656174657260008201527f207468616e203000000000000000000000000000000000000000000000000000602082015250565b6000612675602783611f96565b915061268082612619565b604082019050919050565b600060208201905081810360008301526126a481612668565b9050919050565b7f4d6178696d756d20616d6f756e742073686f756c64206265206772656174657260008201527f207468616e206d696e696d756d20616d6f756e74000000000000000000000000602082015250565b6000612707603483611f96565b9150612712826126ab565b604082019050919050565b60006020820190508181036000830152612736816126fa565b905091905056fea2646970667358221220e3b5f509c048a8c31a346b19e79762b0885bb133b9b7727d83adf5a0dbd165e864736f6c634300081c0033",
  "linkReferences": {},
  "deployedLinkReferences": {}
}