{
  "_format": "hh-sol-artifact-1",
  "contractName": "MarketPlaceContract",
  "sourceName": "contracts/MarketPlaceContract.sol",
  "abi": [
    {
      "inputs": [],
      "stateMutability": "nonpayable",
      "type": "constructor"
    },
    {
      "anonymous": false,
      "inputs": [
        {
          "indexed": false,
          "internalType": "uint256",
          "name": "id",
          "type": "uint256"
        },
        {
          "indexed": false,
          "internalType": "address",
          "name": "owner",
          "type": "address"
        },
        {
          "indexed": false,
          "internalType": "uint256",
          "name": "minAmt",
          "type": "uint256"
        },
        {
          "indexed": false,
          "internalType": "uint256",
          "name": "maxAmt",
          "type": "uint256"
        }
      ],
      "name": "QuizCreated",
      "type": "event"
    },
    {
      "anonymous": false,
      "inputs": [
        {
          "indexed": false,
          "internalType": "uint256",
          "name": "id",
          "type": "uint256"
        },
        {
          "indexed": false,
          "internalType": "address",
          "name": "owner",
          "type": "address"
        },
        {
          "indexed": false,
          "internalType": "uint256",
          "name": "totalAmt",
          "type": "uint256"
        }
      ],
      "name": "QuizEnded",
      "type": "event"
    },
    {
      "anonymous": false,
      "inputs": [
        {
          "indexed": false,
          "internalType": "uint256",
          "name": "id",
          "type": "uint256"
        },
        {
          "indexed": false,
          "internalType": "address",
          "name": "owner",
          "type": "address"
        },
        {
          "indexed": false,
          "internalType": "uint256",
          "name": "amt",
          "type": "uint256"
        },
        {
          "indexed": false,
          "internalType": "uint256",
          "name": "quizId",
          "type": "uint256"
        }
      ],
      "name": "TicketBought",
      "type": "event"
    },
    {
      "anonymous": false,
      "inputs": [
        {
          "indexed": false,
          "internalType": "address",
          "name": "owner",
          "type": "address"
        },
        {
          "indexed": false,
          "internalType": "uint256",
          "name": "amt",
          "type": "uint256"
        }
      ],
      "name": "Withdrawn",
      "type": "event"
    },
    {
      "inputs": [
        {
          "internalType": "uint256",
          "name": "_QuizId",
          "type": "uint256"
        }
      ],
      "name": "appvoreRequest",
      "outputs": [],
      "stateMutability": "nonpayable",
      "type": "function"
    },
    {
      "inputs": [
        {
          "internalType": "uint256",
          "name": "_QuizId",
          "type": "uint256"
        },
        {
          "internalType": "uint256",
          "name": "betIndex",
          "type": "uint256"
        }
      ],
      "name": "buyTicket",
      "outputs": [],
      "stateMutability": "payable",
      "type": "function"
    },
    {
      "inputs": [
        {
          "internalType": "address",
          "name": "",
          "type": "address"
        }
      ],
      "name": "buyerMap",
      "outputs": [
        {
          "internalType": "uint256",
          "name": "id",
          "type": "uint256"
        },
        {
          "internalType": "address",
          "name": "walletAdd",
          "type": "address"
        },
        {
          "internalType": "uint256",
          "name": "totalAmt",
          "type": "uint256"
        }
      ],
      "stateMutability": "view",
      "type": "function"
    },
    {
      "inputs": [
        {
          "internalType": "uint256",
          "name": "_minAmt",
          "type": "uint256"
        },
        {
          "internalType": "uint256",
          "name": "_maxAmt",
          "type": "uint256"
        },
        {
          "internalType": "uint256",
          "name": "_id",
          "type": "uint256"
        },
        {
          "internalType": "uint256",
          "name": "_numOfoptions",
          "type": "uint256"
        }
      ],
      "name": "createQuiz",
      "outputs": [],
      "stateMutability": "nonpayable",
      "type": "function"
    },
    {
      "inputs": [
        {
          "internalType": "uint256",
          "name": "_QuizId",
          "type": "uint256"
        },
        {
          "internalType": "uint256",
          "name": "_WinningInd",
          "type": "uint256"
        }
      ],
      "name": "endQuiz",
      "outputs": [],
      "stateMutability": "nonpayable",
      "type": "function"
    },
    {
      "inputs": [],
      "name": "getAdmin",
      "outputs": [
        {
          "internalType": "address",
          "name": "",
          "type": "address"
        }
      ],
      "stateMutability": "view",
      "type": "function"
    },
    {
      "inputs": [
        {
          "internalType": "address",
          "name": "_walletAdd",
          "type": "address"
        }
      ],
      "name": "getBuyer",
      "outputs": [
        {
          "components": [
            {
              "internalType": "uint256",
              "name": "id",
              "type": "uint256"
            },
            {
              "internalType": "address",
              "name": "walletAdd",
              "type": "address"
            },
            {
              "internalType": "uint256[]",
              "name": "tickets",
              "type": "uint256[]"
            },
            {
              "internalType": "uint256",
              "name": "totalAmt",
              "type": "uint256"
            }
          ],
          "internalType": "struct MarketPlaceContract.Buyer",
          "name": "",
          "type": "tuple"
        }
      ],
      "stateMutability": "view",
      "type": "function"
    },
    {
      "inputs": [],
      "name": "getContractBalance",
      "outputs": [
        {
          "internalType": "uint256",
          "name": "",
          "type": "uint256"
        }
      ],
      "stateMutability": "view",
      "type": "function"
    },
    {
      "inputs": [
        {
          "internalType": "uint256",
          "name": "_QuizId",
          "type": "uint256"
        },
        {
          "internalType": "uint8",
          "name": "_betIndex",
          "type": "uint8"
        },
        {
          "internalType": "uint256",
          "name": "_amt",
          "type": "uint256"
        }
      ],
      "name": "getPredictedWinAmount",
      "outputs": [
        {
          "internalType": "uint256",
          "name": "",
          "type": "uint256"
        }
      ],
      "stateMutability": "view",
      "type": "function"
    },
    {
      "inputs": [],
      "name": "getProfit",
      "outputs": [
        {
          "internalType": "uint256",
          "name": "",
          "type": "uint256"
        }
      ],
      "stateMutability": "view",
      "type": "function"
    },
    {
      "inputs": [
        {
          "internalType": "uint256",
          "name": "_id",
          "type": "uint256"
        }
      ],
      "name": "getQuiz",
      "outputs": [
        {
          "components": [
            {
              "internalType": "uint256",
              "name": "id",
              "type": "uint256"
            },
            {
              "internalType": "address",
              "name": "owner",
              "type": "address"
            },
            {
              "internalType": "uint256",
              "name": "minAmt",
              "type": "uint256"
            },
            {
              "internalType": "uint256",
              "name": "maxAmt",
              "type": "uint256"
            },
            {
              "internalType": "uint256",
              "name": "totalAmt",
              "type": "uint256"
            },
            {
              "internalType": "uint256[]",
              "name": "options",
              "type": "uint256[]"
            },
            {
              "internalType": "uint256[]",
              "name": "tickets",
              "type": "uint256[]"
            },
            {
              "internalType": "bool",
              "name": "isEnded",
              "type": "bool"
            },
            {
              "internalType": "bool",
              "name": "isApproved",
              "type": "bool"
            }
          ],
          "internalType": "struct MarketPlaceContract.Quiz",
          "name": "",
          "type": "tuple"
        }
      ],
      "stateMutability": "view",
      "type": "function"
    },
    {
      "inputs": [
        {
          "internalType": "address",
          "name": "_walletAdd",
          "type": "address"
        }
      ],
      "name": "getSeller",
      "outputs": [
        {
          "components": [
            {
              "internalType": "uint256",
              "name": "id",
              "type": "uint256"
            },
            {
              "internalType": "address",
              "name": "walletAdd",
              "type": "address"
            },
            {
              "internalType": "uint256[]",
              "name": "quizzes",
              "type": "uint256[]"
            },
            {
              "internalType": "uint256",
              "name": "totalAmt",
              "type": "uint256"
            }
          ],
          "internalType": "struct MarketPlaceContract.Seller",
          "name": "",
          "type": "tuple"
        }
      ],
      "stateMutability": "view",
      "type": "function"
    },
    {
      "inputs": [
        {
          "internalType": "uint256",
          "name": "_id",
          "type": "uint256"
        }
      ],
      "name": "getTicket",
      "outputs": [
        {
          "components": [
            {
              "internalType": "uint256",
              "name": "id",
              "type": "uint256"
            },
            {
              "internalType": "address",
              "name": "owner",
              "type": "address"
            },
            {
              "internalType": "uint256",
              "name": "amt",
              "type": "uint256"
            },
            {
              "internalType": "uint256",
              "name": "quizId",
              "type": "uint256"
            },
            {
              "internalType": "uint256",
              "name": "betIndex",
              "type": "uint256"
            },
            {
              "internalType": "bool",
              "name": "isWithdrawn",
              "type": "bool"
            },
            {
              "internalType": "uint256",
              "name": "winAmt",
              "type": "uint256"
            }
          ],
          "internalType": "struct MarketPlaceContract.Ticket",
          "name": "",
          "type": "tuple"
        }
      ],
      "stateMutability": "view",
      "type": "function"
    },
    {
      "inputs": [
        {
          "internalType": "address",
          "name": "_walletAdd",
          "type": "address"
        },
        {
          "internalType": "bool",
          "name": "isBuyer",
          "type": "bool"
        }
      ],
      "name": "login",
      "outputs": [
        {
          "internalType": "address",
          "name": "",
          "type": "address"
        }
      ],
      "stateMutability": "view",
      "type": "function"
    },
    {
      "inputs": [
        {
          "internalType": "uint256",
          "name": "",
          "type": "uint256"
        }
      ],
      "name": "quizMap",
      "outputs": [
        {
          "internalType": "uint256",
          "name": "id",
          "type": "uint256"
        },
        {
          "internalType": "address",
          "name": "owner",
          "type": "address"
        },
        {
          "internalType": "uint256",
          "name": "minAmt",
          "type": "uint256"
        },
        {
          "internalType": "uint256",
          "name": "maxAmt",
          "type": "uint256"
        },
        {
          "internalType": "uint256",
          "name": "totalAmt",
          "type": "uint256"
        },
        {
          "internalType": "bool",
          "name": "isEnded",
          "type": "bool"
        },
        {
          "internalType": "bool",
          "name": "isApproved",
          "type": "bool"
        }
      ],
      "stateMutability": "view",
      "type": "function"
    },
    {
      "inputs": [],
      "name": "registerAsBuyer",
      "outputs": [],
      "stateMutability": "nonpayable",
      "type": "function"
    },
    {
      "inputs": [],
      "name": "registerAsSeller",
      "outputs": [],
      "stateMutability": "nonpayable",
      "type": "function"
    },
    {
      "inputs": [
        {
          "internalType": "uint256",
          "name": "_QuizId",
          "type": "uint256"
        }
      ],
      "name": "rejectRequest",
      "outputs": [],
      "stateMutability": "nonpayable",
      "type": "function"
    },
    {
      "inputs": [
        {
          "internalType": "address",
          "name": "",
          "type": "address"
        }
      ],
      "name": "sellerMap",
      "outputs": [
        {
          "internalType": "uint256",
          "name": "id",
          "type": "uint256"
        },
        {
          "internalType": "address",
          "name": "walletAdd",
          "type": "address"
        },
        {
          "internalType": "uint256",
          "name": "totalAmt",
          "type": "uint256"
        }
      ],
      "stateMutability": "view",
      "type": "function"
    },
    {
      "inputs": [
        {
          "internalType": "uint256",
          "name": "",
          "type": "uint256"
        }
      ],
      "name": "ticketMap",
      "outputs": [
        {
          "internalType": "uint256",
          "name": "id",
          "type": "uint256"
        },
        {
          "internalType": "address",
          "name": "owner",
          "type": "address"
        },
        {
          "internalType": "uint256",
          "name": "amt",
          "type": "uint256"
        },
        {
          "internalType": "uint256",
          "name": "quizId",
          "type": "uint256"
        },
        {
          "internalType": "uint256",
          "name": "betIndex",
          "type": "uint256"
        },
        {
          "internalType": "bool",
          "name": "isWithdrawn",
          "type": "bool"
        },
        {
          "internalType": "uint256",
          "name": "winAmt",
          "type": "uint256"
        }
      ],
      "stateMutability": "view",
      "type": "function"
    },
    {
      "inputs": [
        {
          "internalType": "uint256",
          "name": "_QuizId",
          "type": "uint256"
        },
        {
          "internalType": "uint256",
          "name": "_WinningInd",
          "type": "uint256"
        }
      ],
      "name": "transferRewardsToWinner",
      "outputs": [],
      "stateMutability": "payable",
      "type": "function"
    },
    {
      "inputs": [
        {
          "internalType": "uint256",
          "name": "_amt",
          "type": "uint256"
        }
      ],
      "name": "withdraw",
      "outputs": [],
      "stateMutability": "nonpayable",
      "type": "function"
    },
    {
      "inputs": [],
      "name": "withdrawAll",
      "outputs": [],
      "stateMutability": "nonpayable",
      "type": "function"
    }
  ],
  "bytecode": "0x60806040526000600155348015601457600080fd5b50336000806101000a81548173ffffffffffffffffffffffffffffffffffffffff021916908373ffffffffffffffffffffffffffffffffffffffff160217905550613ded806100646000396000f3fe6080604052600436106101405760003560e01c80636f9fb98a116100b6578063a323d29e1161006f578063a323d29e1461043c578063a3f7e09614610479578063af4fc955146104b6578063c694e33d146104f3578063d3ec0aae1461051c578063f728635a1461054557610140565b80636f9fb98a146103395780637dc379fa14610364578063853828b6146103a15780638b7068bf146103b85780639af6a08a146103e15780639cdb1837146103fd57610140565b8063500e3cbd11610108578063500e3cbd1461020d5780635721e419146102505780635b4a5cf21461028d578063679dffb4146102a45780636e78c51f146102cf5780636e9960c31461030e57610140565b8063128b853214610145578063298ec2081461015c5780632d7788db146101785780632e1a7d4d146101a1578063490c369d146101ca575b600080fd5b34801561015157600080fd5b5061015a610582565b005b61017660048036038101906101719190612ba7565b61079b565b005b34801561018457600080fd5b5061019f600480360381019061019a9190612be7565b610bf3565b005b3480156101ad57600080fd5b506101c860048036038101906101c39190612be7565b610d1d565b005b3480156101d657600080fd5b506101f160048036038101906101ec9190612be7565b610f52565b6040516102049796959493929190612c7f565b60405180910390f35b34801561021957600080fd5b50610234600480360381019061022f9190612be7565b610fce565b6040516102479796959493929190612cee565b60405180910390f35b34801561025c57600080fd5b5061027760048036038101906102729190612d89565b61103d565b6040516102849190612ee6565b60405180910390f35b34801561029957600080fd5b506102a2611158565b005b3480156102b057600080fd5b506102b9611371565b6040516102c69190612f08565b60405180910390f35b3480156102db57600080fd5b506102f660048036038101906102f19190612d89565b61140a565b60405161030593929190612f23565b60405180910390f35b34801561031a57600080fd5b50610323611454565b6040516103309190612f5a565b60405180910390f35b34801561034557600080fd5b5061034e61147d565b60405161035b9190612f08565b60405180910390f35b34801561037057600080fd5b5061038b60048036038101906103869190612be7565b611485565b6040516103989190613012565b60405180910390f35b3480156103ad57600080fd5b506103b6611555565b005b3480156103c457600080fd5b506103df60048036038101906103da9190612be7565b6116ee565b005b6103fb60048036038101906103f69190612ba7565b611818565b005b34801561040957600080fd5b50610424600480360381019061041f9190612d89565b611dad565b60405161043393929190612f23565b60405180910390f35b34801561044857600080fd5b50610463600480360381019061045e9190612d89565b611df7565b6040516104709190613090565b60405180910390f35b34801561048557600080fd5b506104a0600480360381019061049b9190612be7565b611f12565b6040516104ad919061317e565b60405180910390f35b3480156104c257600080fd5b506104dd60048036038101906104d891906131d9565b6120a4565b6040516104ea9190612f08565b60405180910390f35b3480156104ff57600080fd5b5061051a60048036038101906105159190612ba7565b6122ac565b005b34801561052857600080fd5b50610543600480360381019061053e919061322c565b6124cd565b005b34801561055157600080fd5b5061056c600480360381019061056791906132bf565b612883565b6040516105799190612f5a565b60405180910390f35b6000600560003373ffffffffffffffffffffffffffffffffffffffff1673ffffffffffffffffffffffffffffffffffffffff1681526020019081526020016000206000015414610607576040517f08c379a00000000000000000000000000000000000000000000000000000000081526004016105fe9061335c565b60405180910390fd5b600060405180608001604052806001600560003373ffffffffffffffffffffffffffffffffffffffff1673ffffffffffffffffffffffffffffffffffffffff1681526020019081526020016000206002018054905061066691906133ab565b81526020013373ffffffffffffffffffffffffffffffffffffffff168152602001600067ffffffffffffffff8111156106a2576106a16133df565b5b6040519080825280602002602001820160405280156106d05781602001602082028036833780820191505090505b5081526020016000815250905080600560003373ffffffffffffffffffffffffffffffffffffffff1673ffffffffffffffffffffffffffffffffffffffff1681526020019081526020016000206000820151816000015560208201518160010160006101000a81548173ffffffffffffffffffffffffffffffffffffffff021916908373ffffffffffffffffffffffffffffffffffffffff160217905550604082015181600201908051906020019061078a9291906129cb565b506060820151816003015590505050565b6000600460003373ffffffffffffffffffffffffffffffffffffffff1673ffffffffffffffffffffffffffffffffffffffff1681526020019081526020016000206000015411610820576040517f08c379a000000000000000000000000000000000000000000000000000000000815260040161081790613480565b60405180910390fd5b600015156003600084815260200190815260200160002060070160009054906101000a900460ff1615151461088a576040517f08c379a0000000000000000000000000000000000000000000000000000000008152600401610881906134ec565b60405180910390fd5b600360008381526020019081526020016000206002015434101580156108c6575060036000838152602001908152602001600020600301543411155b610905576040517f08c379a00000000000000000000000000000000000000000000000000000000081526004016108fc9061357e565b60405180910390fd5b60006003600084815260200190815260200160002060060180549050905060004290506000828261093691906133ab565b905060006040518060e001604052808381526020013373ffffffffffffffffffffffffffffffffffffffff1681526020013481526020018781526020018681526020016000151581526020016000815250905080600260008481526020019081526020016000206000820151816000015560208201518160010160006101000a81548173ffffffffffffffffffffffffffffffffffffffff021916908373ffffffffffffffffffffffffffffffffffffffff16021790555060408201518160020155606082015181600301556080820151816004015560a08201518160050160006101000a81548160ff02191690831515021790555060c0820151816006015590505060036000878152602001908152602001600020600601829080600181540180825580915050600190039060005260206000200160009091909190915055600460003373ffffffffffffffffffffffffffffffffffffffff1673ffffffffffffffffffffffffffffffffffffffff16815260200190815260200160002060020182908060018154018082558091505060019003906000526020600020016000909190919091505534600460003373ffffffffffffffffffffffffffffffffffffffff1673ffffffffffffffffffffffffffffffffffffffff1681526020019081526020016000206003016000828254610b3191906133ab565b9250508190555034600360008881526020019081526020016000206004016000828254610b5e91906133ab565b9250508190555034600360008881526020019081526020016000206005018681548110610b8e57610b8d61359e565b5b906000526020600020016000828254610ba791906133ab565b925050819055507fa38a8990067bfd128af9e1c8e749a6940ee00f3621f6f6c8a9c93783a0b9dffe82333489604051610be394939291906135cd565b60405180910390a1505050505050565b60008054906101000a900473ffffffffffffffffffffffffffffffffffffffff1673ffffffffffffffffffffffffffffffffffffffff163373ffffffffffffffffffffffffffffffffffffffff1614610c81576040517f08c379a0000000000000000000000000000000000000000000000000000000008152600401610c7890613684565b60405180910390fd5b600015156003600083815260200190815260200160002060070160019054906101000a900460ff16151514610ceb576040517f08c379a0000000000000000000000000000000000000000000000000000000008152600401610ce2906136f0565b60405180910390fd5b60006003600083815260200190815260200160002060070160016101000a81548160ff02191690831515021790555050565b60008054906101000a900473ffffffffffffffffffffffffffffffffffffffff1673ffffffffffffffffffffffffffffffffffffffff163373ffffffffffffffffffffffffffffffffffffffff1614610dab576040517f08c379a0000000000000000000000000000000000000000000000000000000008152600401610da290613684565b60405180910390fd5b60008111610dee576040517f08c379a0000000000000000000000000000000000000000000000000000000008152600401610de59061375c565b60405180910390fd5b47811115610e31576040517f08c379a0000000000000000000000000000000000000000000000000000000008152600401610e28906137c8565b60405180910390fd5b600154811115610e76576040517f08c379a0000000000000000000000000000000000000000000000000000000008152600401610e6d9061385a565b60405180910390fd5b60008054906101000a900473ffffffffffffffffffffffffffffffffffffffff1673ffffffffffffffffffffffffffffffffffffffff166108fc829081150290604051600060405180830381858888f19350505050158015610edc573d6000803e3d6000fd5b508060016000828254610eef919061387a565b925050819055507f7084f5476618d8e60b11ef0d7d3f06914655adb8793e28ff7f018d4c76d505d560008054906101000a900473ffffffffffffffffffffffffffffffffffffffff1682604051610f479291906138ae565b60405180910390a150565b60036020528060005260406000206000915090508060000154908060010160009054906101000a900473ffffffffffffffffffffffffffffffffffffffff16908060020154908060030154908060040154908060070160009054906101000a900460ff16908060070160019054906101000a900460ff16905087565b60026020528060005260406000206000915090508060000154908060010160009054906101000a900473ffffffffffffffffffffffffffffffffffffffff16908060020154908060030154908060040154908060050160009054906101000a900460ff16908060060154905087565b611045612a18565b600460008373ffffffffffffffffffffffffffffffffffffffff1673ffffffffffffffffffffffffffffffffffffffff168152602001908152602001600020604051806080016040529081600082015481526020016001820160009054906101000a900473ffffffffffffffffffffffffffffffffffffffff1673ffffffffffffffffffffffffffffffffffffffff1673ffffffffffffffffffffffffffffffffffffffff1681526020016002820180548060200260200160405190810160405280929190818152602001828054801561113e57602002820191906000526020600020905b81548152602001906001019080831161112a575b505050505081526020016003820154815250509050919050565b6000600460003373ffffffffffffffffffffffffffffffffffffffff1673ffffffffffffffffffffffffffffffffffffffff16815260200190815260200160002060000154146111dd576040517f08c379a00000000000000000000000000000000000000000000000000000000081526004016111d490613923565b60405180910390fd5b600060405180608001604052806001600460003373ffffffffffffffffffffffffffffffffffffffff1673ffffffffffffffffffffffffffffffffffffffff1681526020019081526020016000206002018054905061123c91906133ab565b81526020013373ffffffffffffffffffffffffffffffffffffffff168152602001600067ffffffffffffffff811115611278576112776133df565b5b6040519080825280602002602001820160405280156112a65781602001602082028036833780820191505090505b5081526020016000815250905080600460003373ffffffffffffffffffffffffffffffffffffffff1673ffffffffffffffffffffffffffffffffffffffff1681526020019081526020016000206000820151816000015560208201518160010160006101000a81548173ffffffffffffffffffffffffffffffffffffffff021916908373ffffffffffffffffffffffffffffffffffffffff16021790555060408201518160020190805190602001906113609291906129cb565b506060820151816003015590505050565b60008060009054906101000a900473ffffffffffffffffffffffffffffffffffffffff1673ffffffffffffffffffffffffffffffffffffffff163373ffffffffffffffffffffffffffffffffffffffff1614611402576040517f08c379a00000000000000000000000000000000000000000000000000000000081526004016113f990613684565b60405180910390fd5b600154905090565b60056020528060005260406000206000915090508060000154908060010160009054906101000a900473ffffffffffffffffffffffffffffffffffffffff16908060030154905083565b60008060009054906101000a900473ffffffffffffffffffffffffffffffffffffffff16905090565b600047905090565b61148d612a56565b600260008381526020019081526020016000206040518060e0016040529081600082015481526020016001820160009054906101000a900473ffffffffffffffffffffffffffffffffffffffff1673ffffffffffffffffffffffffffffffffffffffff1673ffffffffffffffffffffffffffffffffffffffff1681526020016002820154815260200160038201548152602001600482015481526020016005820160009054906101000a900460ff161515151581526020016006820154815250509050919050565b60008054906101000a900473ffffffffffffffffffffffffffffffffffffffff1673ffffffffffffffffffffffffffffffffffffffff163373ffffffffffffffffffffffffffffffffffffffff16146115e3576040517f08c379a00000000000000000000000000000000000000000000000000000000081526004016115da90613684565b60405180910390fd5b600060015411611628576040517f08c379a000000000000000000000000000000000000000000000000000000000815260040161161f9061398f565b60405180910390fd5b60008054906101000a900473ffffffffffffffffffffffffffffffffffffffff1673ffffffffffffffffffffffffffffffffffffffff166108fc6001549081150290604051600060405180830381858888f19350505050158015611690573d6000803e3d6000fd5b507f7084f5476618d8e60b11ef0d7d3f06914655adb8793e28ff7f018d4c76d505d560008054906101000a900473ffffffffffffffffffffffffffffffffffffffff166001546040516116e49291906138ae565b60405180910390a1565b60008054906101000a900473ffffffffffffffffffffffffffffffffffffffff1673ffffffffffffffffffffffffffffffffffffffff163373ffffffffffffffffffffffffffffffffffffffff161461177c576040517f08c379a000000000000000000000000000000000000000000000000000000000815260040161177390613684565b60405180910390fd5b600015156003600083815260200190815260200160002060070160019054906101000a900460ff161515146117e6576040517f08c379a00000000000000000000000000000000000000000000000000000000081526004016117dd906136f0565b60405180910390fd5b60016003600083815260200190815260200160002060070160016101000a81548160ff02191690831515021790555050565b600115156003600084815260200190815260200160002060070160009054906101000a900460ff16151514611882576040517f08c379a0000000000000000000000000000000000000000000000000000000008152600401611879906139fb565b60405180910390fd5b3373ffffffffffffffffffffffffffffffffffffffff166003600084815260200190815260200160002060010160009054906101000a900473ffffffffffffffffffffffffffffffffffffffff1673ffffffffffffffffffffffffffffffffffffffff1614611926576040517f08c379a000000000000000000000000000000000000000000000000000000000815260040161191d90613a67565b60405180910390fd5b600060036000848152602001908152602001600020600601805490509050600060036000858152602001908152602001600020600401549050600060646005836119709190613a87565b61197a9190613af8565b90508082611988919061387a565b9150806001600082825461199c91906133ab565b9250508190555060008054906101000a900473ffffffffffffffffffffffffffffffffffffffff1673ffffffffffffffffffffffffffffffffffffffff166108fc829081150290604051600060405180830381858888f19350505050158015611a09573d6000803e3d6000fd5b5060005b83811015611da5578460026000600360008a81526020019081526020016000206006018481548110611a4257611a4161359e565b5b906000526020600020015481526020019081526020016000206004015403611d98576000611ad5600360008981526020019081526020016000206006018381548110611a9157611a9061359e565b5b906000526020600020015485600360008b81526020019081526020016000206005018981548110611ac557611ac461359e565b5b9060005260206000200154612955565b905060026000600360008a81526020019081526020016000206006018481548110611b0357611b0261359e565b5b9060005260206000200154815260200190815260200160002060010160009054906101000a900473ffffffffffffffffffffffffffffffffffffffff1673ffffffffffffffffffffffffffffffffffffffff166108fc829081150290604051600060405180830381858888f19350505050158015611b85573d6000803e3d6000fd5b50600160026000600360008b81526020019081526020016000206006018581548110611bb457611bb361359e565b5b9060005260206000200154815260200190815260200160002060050160006101000a81548160ff0219169083151502179055508060026000600360008b81526020019081526020016000206006018581548110611c1457611c1361359e565b5b9060005260206000200154815260200190815260200160002060060181905550806004600060026000600360008d81526020019081526020016000206006018781548110611c6557611c6461359e565b5b9060005260206000200154815260200190815260200160002060010160009054906101000a900473ffffffffffffffffffffffffffffffffffffffff1673ffffffffffffffffffffffffffffffffffffffff1673ffffffffffffffffffffffffffffffffffffffff1681526020019081526020016000206003016000828254611cee91906133ab565b925050819055507f7084f5476618d8e60b11ef0d7d3f06914655adb8793e28ff7f018d4c76d505d560026000600360008b81526020019081526020016000206006018581548110611d4257611d4161359e565b5b9060005260206000200154815260200190815260200160002060010160009054906101000a900473ffffffffffffffffffffffffffffffffffffffff1682604051611d8e9291906138ae565b60405180910390a1505b8080600101915050611a0d565b505050505050565b60046020528060005260406000206000915090508060000154908060010160009054906101000a900473ffffffffffffffffffffffffffffffffffffffff16908060030154905083565b611dff612aab565b600560008373ffffffffffffffffffffffffffffffffffffffff1673ffffffffffffffffffffffffffffffffffffffff168152602001908152602001600020604051806080016040529081600082015481526020016001820160009054906101000a900473ffffffffffffffffffffffffffffffffffffffff1673ffffffffffffffffffffffffffffffffffffffff1673ffffffffffffffffffffffffffffffffffffffff16815260200160028201805480602002602001604051908101604052809291908181526020018280548015611ef857602002820191906000526020600020905b815481526020019060010190808311611ee4575b505050505081526020016003820154815250509050919050565b611f1a612ae9565b6003600083815260200190815260200160002060405180610120016040529081600082015481526020016001820160009054906101000a900473ffffffffffffffffffffffffffffffffffffffff1673ffffffffffffffffffffffffffffffffffffffff1673ffffffffffffffffffffffffffffffffffffffff1681526020016002820154815260200160038201548152602001600482015481526020016005820180548060200260200160405190810160405280929190818152602001828054801561200657602002820191906000526020600020905b815481526020019060010190808311611ff2575b505050505081526020016006820180548060200260200160405190810160405280929190818152602001828054801561205e57602002820191906000526020600020905b81548152602001906001019080831161204a575b505050505081526020016007820160009054906101000a900460ff161515151581526020016007820160019054906101000a900460ff1615151515815250509050919050565b6000806003600086815260200190815260200160002060000154116120fe576040517f08c379a00000000000000000000000000000000000000000000000000000000081526004016120f590613b75565b60405180910390fd5b600015156003600086815260200190815260200160002060070160009054906101000a900460ff16151514612168576040517f08c379a000000000000000000000000000000000000000000000000000000000815260040161215f906134ec565b60405180910390fd5b600360008581526020019081526020016000206002015482101580156121a4575060036000858152602001908152602001600020600301548211155b6121e3576040517f08c379a00000000000000000000000000000000000000000000000000000000081526004016121da9061357e565b60405180910390fd5b600060036000868152602001908152602001600020600401549050600081036122105760009150506122a5565b600060646005836122219190613a87565b61222b9190613af8565b90508082612239919061387a565b91506000600360008881526020019081526020016000206005018660ff16815481106122685761226761359e565b5b906000526020600020015490506000810361228257600190505b60008382876122919190613af8565b61229b9190613a87565b9050809450505050505b9392505050565b6000600560003373ffffffffffffffffffffffffffffffffffffffff1673ffffffffffffffffffffffffffffffffffffffff1681526020019081526020016000206000015411612331576040517f08c379a000000000000000000000000000000000000000000000000000000000815260040161232890613c07565b60405180910390fd5b3373ffffffffffffffffffffffffffffffffffffffff166003600084815260200190815260200160002060010160009054906101000a900473ffffffffffffffffffffffffffffffffffffffff1673ffffffffffffffffffffffffffffffffffffffff16146123d5576040517f08c379a00000000000000000000000000000000000000000000000000000000081526004016123cc90613c73565b60405180910390fd5b600015156003600084815260200190815260200160002060070160009054906101000a900460ff1615151461243f576040517f08c379a0000000000000000000000000000000000000000000000000000000008152600401612436906134ec565b60405180910390fd5b60016003600084815260200190815260200160002060070160006101000a81548160ff0219169083151502179055506124788282611818565b7f56fe9aa41f0884b06717b271b0b1b2eedc26fe9341fb37ab44d43e1f4405c988823360036000868152602001908152602001600020600401546040516124c193929190612f23565b60405180910390a15050565b6000600560003373ffffffffffffffffffffffffffffffffffffffff1673ffffffffffffffffffffffffffffffffffffffff1681526020019081526020016000206000015411612552576040517f08c379a000000000000000000000000000000000000000000000000000000000815260040161254990613c07565b60405180910390fd5b60008411612595576040517f08c379a000000000000000000000000000000000000000000000000000000000815260040161258c90613d05565b60405180910390fd5b8383116125d7576040517f08c379a00000000000000000000000000000000000000000000000000000000081526004016125ce90613d97565b60405180910390fd5b60006040518061012001604052808481526020013373ffffffffffffffffffffffffffffffffffffffff1681526020018681526020018581526020016000815260200160018461262791906133ab565b67ffffffffffffffff8111156126405761263f6133df565b5b60405190808252806020026020018201604052801561266e5781602001602082028036833780820191505090505b508152602001600067ffffffffffffffff81111561268f5761268e6133df565b5b6040519080825280602002602001820160405280156126bd5781602001602082028036833780820191505090505b50815260200160001515815260200160001515815250905080600360008581526020019081526020016000206000820151816000015560208201518160010160006101000a81548173ffffffffffffffffffffffffffffffffffffffff021916908373ffffffffffffffffffffffffffffffffffffffff16021790555060408201518160020155606082015181600301556080820151816004015560a08201518160050190805190602001906127749291906129cb565b5060c08201518160060190805190602001906127919291906129cb565b5060e08201518160070160006101000a81548160ff0219169083151502179055506101008201518160070160016101000a81548160ff021916908315150217905550905050600560003373ffffffffffffffffffffffffffffffffffffffff1673ffffffffffffffffffffffffffffffffffffffff1681526020019081526020016000206002018390806001815401808255809150506001900390600052602060002001600090919091909150557f4d946047a8fad903eae1a1ebbf75dc1667359f7ee49a61c577a4c6c70bdceb138333878760405161287494939291906135cd565b60405180910390a15050505050565b600080600560008573ffffffffffffffffffffffffffffffffffffffff1673ffffffffffffffffffffffffffffffffffffffff168152602001908152602001600020600001541180156128da575060001515821515145b156128e75782905061294f565b6000600460008573ffffffffffffffffffffffffffffffffffffffff1673ffffffffffffffffffffffffffffffffffffffff1681526020019081526020016000206000015411801561293d575060011515821515145b1561294a5782905061294f565b600090505b92915050565b600080820361296757600090506129c4565b600060026000868152602001908152602001600020600201540361298e57600090506129c4565b6000838360026000888152602001908152602001600020600201546129b39190613af8565b6129bd9190613a87565b9050809150505b9392505050565b828054828255906000526020600020908101928215612a07579160200282015b82811115612a065782518255916020019190600101906129eb565b5b509050612a149190612b4f565b5090565b604051806080016040528060008152602001600073ffffffffffffffffffffffffffffffffffffffff16815260200160608152602001600081525090565b6040518060e0016040528060008152602001600073ffffffffffffffffffffffffffffffffffffffff168152602001600081526020016000815260200160008152602001600015158152602001600081525090565b604051806080016040528060008152602001600073ffffffffffffffffffffffffffffffffffffffff16815260200160608152602001600081525090565b60405180610120016040528060008152602001600073ffffffffffffffffffffffffffffffffffffffff16815260200160008152602001600081526020016000815260200160608152602001606081526020016000151581526020016000151581525090565b5b80821115612b68576000816000905550600101612b50565b5090565b600080fd5b6000819050919050565b612b8481612b71565b8114612b8f57600080fd5b50565b600081359050612ba181612b7b565b92915050565b60008060408385031215612bbe57612bbd612b6c565b5b6000612bcc85828601612b92565b9250506020612bdd85828601612b92565b9150509250929050565b600060208284031215612bfd57612bfc612b6c565b5b6000612c0b84828501612b92565b91505092915050565b612c1d81612b71565b82525050565b600073ffffffffffffffffffffffffffffffffffffffff82169050919050565b6000612c4e82612c23565b9050919050565b612c5e81612c43565b82525050565b60008115159050919050565b612c7981612c64565b82525050565b600060e082019050612c94600083018a612c14565b612ca16020830189612c55565b612cae6040830188612c14565b612cbb6060830187612c14565b612cc86080830186612c14565b612cd560a0830185612c70565b612ce260c0830184612c70565b98975050505050505050565b600060e082019050612d03600083018a612c14565b612d106020830189612c55565b612d1d6040830188612c14565b612d2a6060830187612c14565b612d376080830186612c14565b612d4460a0830185612c70565b612d5160c0830184612c14565b98975050505050505050565b612d6681612c43565b8114612d7157600080fd5b50565b600081359050612d8381612d5d565b92915050565b600060208284031215612d9f57612d9e612b6c565b5b6000612dad84828501612d74565b91505092915050565b612dbf81612b71565b82525050565b612dce81612c43565b82525050565b600081519050919050565b600082825260208201905092915050565b6000819050602082019050919050565b6000612e0c8383612db6565b60208301905092915050565b6000602082019050919050565b6000612e3082612dd4565b612e3a8185612ddf565b9350612e4583612df0565b8060005b83811015612e76578151612e5d8882612e00565b9750612e6883612e18565b925050600181019050612e49565b5085935050505092915050565b6000608083016000830151612e9b6000860182612db6565b506020830151612eae6020860182612dc5565b5060408301518482036040860152612ec68282612e25565b9150506060830151612edb6060860182612db6565b508091505092915050565b60006020820190508181036000830152612f008184612e83565b905092915050565b6000602082019050612f1d6000830184612c14565b92915050565b6000606082019050612f386000830186612c14565b612f456020830185612c55565b612f526040830184612c14565b949350505050565b6000602082019050612f6f6000830184612c55565b92915050565b612f7e81612c64565b82525050565b60e082016000820151612f9a6000850182612db6565b506020820151612fad6020850182612dc5565b506040820151612fc06040850182612db6565b506060820151612fd36060850182612db6565b506080820151612fe66080850182612db6565b5060a0820151612ff960a0850182612f75565b5060c082015161300c60c0850182612db6565b50505050565b600060e0820190506130276000830184612f84565b92915050565b60006080830160008301516130456000860182612db6565b5060208301516130586020860182612dc5565b50604083015184820360408601526130708282612e25565b91505060608301516130856060860182612db6565b508091505092915050565b600060208201905081810360008301526130aa818461302d565b905092915050565b6000610120830160008301516130cb6000860182612db6565b5060208301516130de6020860182612dc5565b5060408301516130f16040860182612db6565b5060608301516131046060860182612db6565b5060808301516131176080860182612db6565b5060a083015184820360a086015261312f8282612e25565b91505060c083015184820360c08601526131498282612e25565b91505060e083015161315e60e0860182612f75565b50610100830151613173610100860182612f75565b508091505092915050565b6000602082019050818103600083015261319881846130b2565b905092915050565b600060ff82169050919050565b6131b6816131a0565b81146131c157600080fd5b50565b6000813590506131d3816131ad565b92915050565b6000806000606084860312156131f2576131f1612b6c565b5b600061320086828701612b92565b9350506020613211868287016131c4565b925050604061322286828701612b92565b9150509250925092565b6000806000806080858703121561324657613245612b6c565b5b600061325487828801612b92565b945050602061326587828801612b92565b935050604061327687828801612b92565b925050606061328787828801612b92565b91505092959194509250565b61329c81612c64565b81146132a757600080fd5b50565b6000813590506132b981613293565b92915050565b600080604083850312156132d6576132d5612b6c565b5b60006132e485828601612d74565b92505060206132f5858286016132aa565b9150509250929050565b600082825260208201905092915050565b7f416c726561647920726567697374657265642061732053656c6c657200000000600082015250565b6000613346601c836132ff565b915061335182613310565b602082019050919050565b6000602082019050818103600083015261337581613339565b9050919050565b7f4e487b7100000000000000000000000000000000000000000000000000000000600052601160045260246000fd5b60006133b682612b71565b91506133c183612b71565b92508282019050808211156133d9576133d861337c565b5b92915050565b7f4e487b7100000000000000000000000000000000000000000000000000000000600052604160045260246000fd5b7f4f6e6c792042757965722063616e2063616c6c20746869732066756e6374696f60008201527f6e00000000000000000000000000000000000000000000000000000000000000602082015250565b600061346a6021836132ff565b91506134758261340e565b604082019050919050565b600060208201905081810360008301526134998161345d565b9050919050565b7f5175697a20697320616c726561647920656e6465640000000000000000000000600082015250565b60006134d66015836132ff565b91506134e1826134a0565b602082019050919050565b60006020820190508181036000830152613505816134c9565b9050919050565b7f416d6f756e742073686f756c64206265206265747765656e206d696e20616e6460008201527f206d617820616d6f756e74000000000000000000000000000000000000000000602082015250565b6000613568602b836132ff565b91506135738261350c565b604082019050919050565b600060208201905081810360008301526135978161355b565b9050919050565b7f4e487b7100000000000000000000000000000000000000000000000000000000600052603260045260246000fd5b60006080820190506135e26000830187612c14565b6135ef6020830186612c55565b6135fc6040830185612c14565b6136096060830184612c14565b95945050505050565b7f4f6e6c792041646d696e2063616e2063616c6c20746869732066756e6374696f60008201527f6e00000000000000000000000000000000000000000000000000000000000000602082015250565b600061366e6021836132ff565b915061367982613612565b604082019050919050565b6000602082019050818103600083015261369d81613661565b9050919050565b7f5175697a20697320616c726561647920617070726f7665640000000000000000600082015250565b60006136da6018836132ff565b91506136e5826136a4565b602082019050919050565b60006020820190508181036000830152613709816136cd565b9050919050565b7f416d6f756e742073686f756c642062652067726561746572207468616e203000600082015250565b6000613746601f836132ff565b915061375182613710565b602082019050919050565b6000602082019050818103600083015261377581613739565b9050919050565b7f496e73756666696369656e742062616c616e6365000000000000000000000000600082015250565b60006137b26014836132ff565b91506137bd8261377c565b602082019050919050565b600060208201905081810360008301526137e1816137a5565b9050919050565b7f416d6f756e742073686f756c64206265206c657373207468616e2070726f666960008201527f7400000000000000000000000000000000000000000000000000000000000000602082015250565b60006138446021836132ff565b915061384f826137e8565b604082019050919050565b6000602082019050818103600083015261387381613837565b9050919050565b600061388582612b71565b915061389083612b71565b92508282039050818111156138a8576138a761337c565b5b92915050565b60006040820190506138c36000830185612c55565b6138d06020830184612c14565b9392505050565b7f416c726561647920726567697374657265642061732042757965720000000000600082015250565b600061390d601b836132ff565b9150613918826138d7565b602082019050919050565b6000602082019050818103600083015261393c81613900565b9050919050565b7f4e6f2062616c616e636520746f20776974686472617700000000000000000000600082015250565b60006139796016836132ff565b915061398482613943565b602082019050919050565b600060208201905081810360008301526139a88161396c565b9050919050565b7f5175697a206973206e6f7420656e646564207965740000000000000000000000600082015250565b60006139e56015836132ff565b91506139f0826139af565b602082019050919050565b60006020820190508181036000830152613a14816139d8565b9050919050565b7f4f6e6c79206f776e65722063616e207472616e73666572207265776172647300600082015250565b6000613a51601f836132ff565b9150613a5c82613a1b565b602082019050919050565b60006020820190508181036000830152613a8081613a44565b9050919050565b6000613a9282612b71565b9150613a9d83612b71565b9250828202613aab81612b71565b91508282048414831517613ac257613ac161337c565b5b5092915050565b7f4e487b7100000000000000000000000000000000000000000000000000000000600052601260045260246000fd5b6000613b0382612b71565b9150613b0e83612b71565b925082613b1e57613b1d613ac9565b5b828204905092915050565b7f5175697a20646f6573206e6f7420657869737400000000000000000000000000600082015250565b6000613b5f6013836132ff565b9150613b6a82613b29565b602082019050919050565b60006020820190508181036000830152613b8e81613b52565b9050919050565b7f4f6e6c792053656c6c65722063616e2063616c6c20746869732066756e63746960008201527f6f6e000000000000000000000000000000000000000000000000000000000000602082015250565b6000613bf16022836132ff565b9150613bfc82613b95565b604082019050919050565b60006020820190508181036000830152613c2081613be4565b9050919050565b7f4f6e6c79206f776e65722063616e20656e6420746865207175697a0000000000600082015250565b6000613c5d601b836132ff565b9150613c6882613c27565b602082019050919050565b60006020820190508181036000830152613c8c81613c50565b9050919050565b7f4d696e696d756d20616d6f756e742073686f756c64206265206772656174657260008201527f207468616e203000000000000000000000000000000000000000000000000000602082015250565b6000613cef6027836132ff565b9150613cfa82613c93565b604082019050919050565b60006020820190508181036000830152613d1e81613ce2565b9050919050565b7f4d6178696d756d20616d6f756e742073686f756c64206265206772656174657260008201527f207468616e206d696e696d756d20616d6f756e74000000000000000000000000602082015250565b6000613d816034836132ff565b9150613d8c82613d25565b604082019050919050565b60006020820190508181036000830152613db081613d74565b905091905056fea2646970667358221220c37a73dc7847e63498451beb4aab0578e5c85a9ddc4fb3a8a82fb8b5b342915f64736f6c634300081c0033",
  "linkReferences": {},
  "deployedLinkReferences": {}
}