{
  "_format": "hh-sol-artifact-1",
  "contractName": "MarketPlaceContract",
  "sourceName": "contracts/MarketPlaceContract.sol",
  "abi": [
    {
      "inputs": [],
      "stateMutability": "nonpayable",
      "type": "constructor"
    },
    {
      "anonymous": false,
      "inputs": [
        {
          "indexed": false,
          "internalType": "uint256",
          "name": "id",
          "type": "uint256"
        },
        {
          "indexed": false,
          "internalType": "address",
          "name": "owner",
          "type": "address"
        },
        {
          "indexed": false,
          "internalType": "uint256",
          "name": "minAmt",
          "type": "uint256"
        },
        {
          "indexed": false,
          "internalType": "uint256",
          "name": "maxAmt",
          "type": "uint256"
        }
      ],
      "name": "QuizCreated",
      "type": "event"
    },
    {
      "anonymous": false,
      "inputs": [
        {
          "indexed": false,
          "internalType": "uint256",
          "name": "id",
          "type": "uint256"
        },
        {
          "indexed": false,
          "internalType": "address",
          "name": "owner",
          "type": "address"
        },
        {
          "indexed": false,
          "internalType": "uint256",
          "name": "totalAmt",
          "type": "uint256"
        }
      ],
      "name": "QuizEnded",
      "type": "event"
    },
    {
      "anonymous": false,
      "inputs": [
        {
          "indexed": false,
          "internalType": "uint256",
          "name": "id",
          "type": "uint256"
        },
        {
          "indexed": false,
          "internalType": "address",
          "name": "owner",
          "type": "address"
        },
        {
          "indexed": false,
          "internalType": "uint256",
          "name": "amt",
          "type": "uint256"
        },
        {
          "indexed": false,
          "internalType": "uint256",
          "name": "quizId",
          "type": "uint256"
        }
      ],
      "name": "TicketBought",
      "type": "event"
    },
    {
      "anonymous": false,
      "inputs": [
        {
          "indexed": false,
          "internalType": "address",
          "name": "owner",
          "type": "address"
        },
        {
          "indexed": false,
          "internalType": "uint256",
          "name": "amt",
          "type": "uint256"
        }
      ],
      "name": "Withdrawn",
      "type": "event"
    },
    {
      "inputs": [
        {
          "internalType": "uint256",
          "name": "_QuizId",
          "type": "uint256"
        }
      ],
      "name": "appvoreRequest",
      "outputs": [],
      "stateMutability": "nonpayable",
      "type": "function"
    },
    {
      "inputs": [
        {
          "internalType": "uint256",
          "name": "_QuizId",
          "type": "uint256"
        },
        {
          "internalType": "uint256",
          "name": "betIndex",
          "type": "uint256"
        }
      ],
      "name": "buyTicket",
      "outputs": [],
      "stateMutability": "payable",
      "type": "function"
    },
    {
      "inputs": [
        {
          "internalType": "address",
          "name": "",
          "type": "address"
        }
      ],
      "name": "buyerMap",
      "outputs": [
        {
          "internalType": "uint256",
          "name": "id",
          "type": "uint256"
        },
        {
          "internalType": "address",
          "name": "walletAdd",
          "type": "address"
        },
        {
          "internalType": "uint256",
          "name": "totalAmt",
          "type": "uint256"
        }
      ],
      "stateMutability": "view",
      "type": "function"
    },
    {
      "inputs": [
        {
          "internalType": "uint256",
          "name": "_minAmt",
          "type": "uint256"
        },
        {
          "internalType": "uint256",
          "name": "_maxAmt",
          "type": "uint256"
        },
        {
          "internalType": "uint256",
          "name": "_id",
          "type": "uint256"
        },
        {
          "internalType": "uint256",
          "name": "_numOfoptions",
          "type": "uint256"
        }
      ],
      "name": "createQuiz",
      "outputs": [],
      "stateMutability": "nonpayable",
      "type": "function"
    },
    {
      "inputs": [
        {
          "internalType": "uint256",
          "name": "_QuizId",
          "type": "uint256"
        },
        {
          "internalType": "uint256",
          "name": "_WinningInd",
          "type": "uint256"
        }
      ],
      "name": "endQuiz",
      "outputs": [],
      "stateMutability": "nonpayable",
      "type": "function"
    },
    {
      "inputs": [],
      "name": "getAdmin",
      "outputs": [
        {
          "internalType": "address",
          "name": "",
          "type": "address"
        }
      ],
      "stateMutability": "view",
      "type": "function"
    },
    {
      "inputs": [
        {
          "internalType": "address",
          "name": "_walletAdd",
          "type": "address"
        }
      ],
      "name": "getBuyer",
      "outputs": [
        {
          "components": [
            {
              "internalType": "uint256",
              "name": "id",
              "type": "uint256"
            },
            {
              "internalType": "address",
              "name": "walletAdd",
              "type": "address"
            },
            {
              "internalType": "uint256[]",
              "name": "tickets",
              "type": "uint256[]"
            },
            {
              "internalType": "uint256",
              "name": "totalAmt",
              "type": "uint256"
            }
          ],
          "internalType": "struct MarketPlaceContract.Buyer",
          "name": "",
          "type": "tuple"
        }
      ],
      "stateMutability": "view",
      "type": "function"
    },
    {
      "inputs": [],
      "name": "getContractBalance",
      "outputs": [
        {
          "internalType": "uint256",
          "name": "",
          "type": "uint256"
        }
      ],
      "stateMutability": "view",
      "type": "function"
    },
    {
      "inputs": [
        {
          "internalType": "uint256",
          "name": "_QuizId",
          "type": "uint256"
        },
        {
          "internalType": "uint8",
          "name": "_betIndex",
          "type": "uint8"
        },
        {
          "internalType": "uint256",
          "name": "_amt",
          "type": "uint256"
        }
      ],
      "name": "getPredictedWinAmount",
      "outputs": [
        {
          "internalType": "uint256",
          "name": "",
          "type": "uint256"
        }
      ],
      "stateMutability": "view",
      "type": "function"
    },
    {
      "inputs": [
        {
          "internalType": "uint256",
          "name": "_id",
          "type": "uint256"
        }
      ],
      "name": "getQuiz",
      "outputs": [
        {
          "components": [
            {
              "internalType": "uint256",
              "name": "id",
              "type": "uint256"
            },
            {
              "internalType": "address",
              "name": "owner",
              "type": "address"
            },
            {
              "internalType": "uint256",
              "name": "minAmt",
              "type": "uint256"
            },
            {
              "internalType": "uint256",
              "name": "maxAmt",
              "type": "uint256"
            },
            {
              "internalType": "uint256",
              "name": "totalAmt",
              "type": "uint256"
            },
            {
              "internalType": "uint256[]",
              "name": "options",
              "type": "uint256[]"
            },
            {
              "internalType": "uint256[]",
              "name": "tickets",
              "type": "uint256[]"
            },
            {
              "internalType": "bool",
              "name": "isEnded",
              "type": "bool"
            },
            {
              "internalType": "bool",
              "name": "isApproved",
              "type": "bool"
            }
          ],
          "internalType": "struct MarketPlaceContract.Quiz",
          "name": "",
          "type": "tuple"
        }
      ],
      "stateMutability": "view",
      "type": "function"
    },
    {
      "inputs": [
        {
          "internalType": "address",
          "name": "_walletAdd",
          "type": "address"
        }
      ],
      "name": "getSeller",
      "outputs": [
        {
          "components": [
            {
              "internalType": "uint256",
              "name": "id",
              "type": "uint256"
            },
            {
              "internalType": "address",
              "name": "walletAdd",
              "type": "address"
            },
            {
              "internalType": "uint256[]",
              "name": "quizzes",
              "type": "uint256[]"
            },
            {
              "internalType": "uint256",
              "name": "totalAmt",
              "type": "uint256"
            }
          ],
          "internalType": "struct MarketPlaceContract.Seller",
          "name": "",
          "type": "tuple"
        }
      ],
      "stateMutability": "view",
      "type": "function"
    },
    {
      "inputs": [
        {
          "internalType": "uint256",
          "name": "_id",
          "type": "uint256"
        }
      ],
      "name": "getTicket",
      "outputs": [
        {
          "components": [
            {
              "internalType": "uint256",
              "name": "id",
              "type": "uint256"
            },
            {
              "internalType": "address",
              "name": "owner",
              "type": "address"
            },
            {
              "internalType": "uint256",
              "name": "amt",
              "type": "uint256"
            },
            {
              "internalType": "uint256",
              "name": "quizId",
              "type": "uint256"
            },
            {
              "internalType": "uint256",
              "name": "betIndex",
              "type": "uint256"
            }
          ],
          "internalType": "struct MarketPlaceContract.Ticket",
          "name": "",
          "type": "tuple"
        }
      ],
      "stateMutability": "view",
      "type": "function"
    },
    {
      "inputs": [
        {
          "internalType": "address",
          "name": "_walletAdd",
          "type": "address"
        },
        {
          "internalType": "bool",
          "name": "isBuyer",
          "type": "bool"
        }
      ],
      "name": "login",
      "outputs": [
        {
          "internalType": "address",
          "name": "",
          "type": "address"
        }
      ],
      "stateMutability": "view",
      "type": "function"
    },
    {
      "inputs": [
        {
          "internalType": "uint256",
          "name": "",
          "type": "uint256"
        }
      ],
      "name": "quizMap",
      "outputs": [
        {
          "internalType": "uint256",
          "name": "id",
          "type": "uint256"
        },
        {
          "internalType": "address",
          "name": "owner",
          "type": "address"
        },
        {
          "internalType": "uint256",
          "name": "minAmt",
          "type": "uint256"
        },
        {
          "internalType": "uint256",
          "name": "maxAmt",
          "type": "uint256"
        },
        {
          "internalType": "uint256",
          "name": "totalAmt",
          "type": "uint256"
        },
        {
          "internalType": "bool",
          "name": "isEnded",
          "type": "bool"
        },
        {
          "internalType": "bool",
          "name": "isApproved",
          "type": "bool"
        }
      ],
      "stateMutability": "view",
      "type": "function"
    },
    {
      "inputs": [],
      "name": "registerAsBuyer",
      "outputs": [],
      "stateMutability": "nonpayable",
      "type": "function"
    },
    {
      "inputs": [],
      "name": "registerAsSeller",
      "outputs": [],
      "stateMutability": "nonpayable",
      "type": "function"
    },
    {
      "inputs": [
        {
          "internalType": "uint256",
          "name": "_QuizId",
          "type": "uint256"
        }
      ],
      "name": "rejectRequest",
      "outputs": [],
      "stateMutability": "nonpayable",
      "type": "function"
    },
    {
      "inputs": [
        {
          "internalType": "address",
          "name": "",
          "type": "address"
        }
      ],
      "name": "sellerMap",
      "outputs": [
        {
          "internalType": "uint256",
          "name": "id",
          "type": "uint256"
        },
        {
          "internalType": "address",
          "name": "walletAdd",
          "type": "address"
        },
        {
          "internalType": "uint256",
          "name": "totalAmt",
          "type": "uint256"
        }
      ],
      "stateMutability": "view",
      "type": "function"
    },
    {
      "inputs": [
        {
          "internalType": "uint256",
          "name": "",
          "type": "uint256"
        }
      ],
      "name": "ticketMap",
      "outputs": [
        {
          "internalType": "uint256",
          "name": "id",
          "type": "uint256"
        },
        {
          "internalType": "address",
          "name": "owner",
          "type": "address"
        },
        {
          "internalType": "uint256",
          "name": "amt",
          "type": "uint256"
        },
        {
          "internalType": "uint256",
          "name": "quizId",
          "type": "uint256"
        },
        {
          "internalType": "uint256",
          "name": "betIndex",
          "type": "uint256"
        }
      ],
      "stateMutability": "view",
      "type": "function"
    },
    {
      "inputs": [
        {
          "internalType": "uint256",
          "name": "_QuizId",
          "type": "uint256"
        },
        {
          "internalType": "uint256",
          "name": "_WinningInd",
          "type": "uint256"
        }
      ],
      "name": "transferRewardsToWinner",
      "outputs": [],
      "stateMutability": "payable",
      "type": "function"
    },
    {
      "inputs": [
        {
          "internalType": "uint256",
          "name": "_amt",
          "type": "uint256"
        }
      ],
      "name": "withdraw",
      "outputs": [],
      "stateMutability": "nonpayable",
      "type": "function"
    },
    {
      "inputs": [],
      "name": "withdrawAll",
      "outputs": [],
      "stateMutability": "nonpayable",
      "type": "function"
    }
  ],
  "bytecode": "0x6080604052348015600f57600080fd5b50336000806101000a81548173ffffffffffffffffffffffffffffffffffffffff021916908373ffffffffffffffffffffffffffffffffffffffff160217905550613ddf8061005f6000396000f3fe6080604052600436106101355760003560e01c80637dc379fa116100ab578063a323d29e1161006f578063a323d29e14610404578063a3f7e09614610441578063af4fc9551461047e578063c694e33d146104bb578063d3ec0aae146104e4578063f728635a1461050d57610135565b80637dc379fa1461032c578063853828b6146103695780638b7068bf146103805780639af6a08a146103a95780639cdb1837146103c557610135565b8063500e3cbd116100fd578063500e3cbd146102025780635721e419146102435780635b4a5cf2146102805780636e78c51f146102975780636e9960c3146102d65780636f9fb98a1461030157610135565b8063128b85321461013a578063298ec208146101515780632d7788db1461016d5780632e1a7d4d14610196578063490c369d146101bf575b600080fd5b34801561014657600080fd5b5061014f61054a565b005b61016b60048036038101906101669190612caa565b610763565b005b34801561017957600080fd5b50610194600480360381019061018f9190612cea565b610b81565b005b3480156101a257600080fd5b506101bd60048036038101906101b89190612cea565b610cab565b005b3480156101cb57600080fd5b506101e660048036038101906101e19190612cea565b610e3f565b6040516101f99796959493929190612d82565b60405180910390f35b34801561020e57600080fd5b5061022960048036038101906102249190612cea565b610ebb565b60405161023a959493929190612df1565b60405180910390f35b34801561024f57600080fd5b5061026a60048036038101906102659190612e70565b610f11565b6040516102779190612fcd565b60405180910390f35b34801561028c57600080fd5b5061029561102c565b005b3480156102a357600080fd5b506102be60048036038101906102b99190612e70565b611245565b6040516102cd93929190612fef565b60405180910390f35b3480156102e257600080fd5b506102eb61128f565b6040516102f89190613026565b60405180910390f35b34801561030d57600080fd5b506103166112b8565b6040516103239190613041565b60405180910390f35b34801561033857600080fd5b50610353600480360381019061034e9190612cea565b6112c0565b60405161036091906130c4565b60405180910390f35b34801561037557600080fd5b5061037e61136b565b005b34801561038c57600080fd5b506103a760048036038101906103a29190612cea565b611504565b005b6103c360048036038101906103be9190612caa565b61162e565b005b3480156103d157600080fd5b506103ec60048036038101906103e79190612e70565b611f1f565b6040516103fb93929190612fef565b60405180910390f35b34801561041057600080fd5b5061042b60048036038101906104269190612e70565b611f69565b6040516104389190613142565b60405180910390f35b34801561044d57600080fd5b5061046860048036038101906104639190612cea565b612084565b604051610475919061323f565b60405180910390f35b34801561048a57600080fd5b506104a560048036038101906104a0919061329a565b612216565b6040516104b29190613041565b60405180910390f35b3480156104c757600080fd5b506104e260048036038101906104dd9190612caa565b6123f8565b005b3480156104f057600080fd5b5061050b600480360381019061050691906132ed565b612619565b005b34801561051957600080fd5b50610534600480360381019061052f9190613380565b6129cf565b6040516105419190613026565b60405180910390f35b6000600460003373ffffffffffffffffffffffffffffffffffffffff1673ffffffffffffffffffffffffffffffffffffffff16815260200190815260200160002060000154146105cf576040517f08c379a00000000000000000000000000000000000000000000000000000000081526004016105c69061341d565b60405180910390fd5b600060405180608001604052806001600460003373ffffffffffffffffffffffffffffffffffffffff1673ffffffffffffffffffffffffffffffffffffffff1681526020019081526020016000206002018054905061062e919061346c565b81526020013373ffffffffffffffffffffffffffffffffffffffff168152602001600067ffffffffffffffff81111561066a576106696134a0565b5b6040519080825280602002602001820160405280156106985781602001602082028036833780820191505090505b5081526020016000815250905080600460003373ffffffffffffffffffffffffffffffffffffffff1673ffffffffffffffffffffffffffffffffffffffff1681526020019081526020016000206000820151816000015560208201518160010160006101000a81548173ffffffffffffffffffffffffffffffffffffffff021916908373ffffffffffffffffffffffffffffffffffffffff1602179055506040820151816002019080519060200190610752929190612ade565b506060820151816003015590505050565b6000600360003373ffffffffffffffffffffffffffffffffffffffff1673ffffffffffffffffffffffffffffffffffffffff16815260200190815260200160002060000154116107e8576040517f08c379a00000000000000000000000000000000000000000000000000000000081526004016107df90613541565b60405180910390fd5b600015156002600084815260200190815260200160002060070160009054906101000a900460ff16151514610852576040517f08c379a0000000000000000000000000000000000000000000000000000000008152600401610849906135ad565b60405180910390fd5b6002600083815260200190815260200160002060020154341015801561088e575060026000838152602001908152602001600020600301543411155b6108cd576040517f08c379a00000000000000000000000000000000000000000000000000000000081526004016108c49061363f565b60405180910390fd5b6000600260008481526020019081526020016000206006018054905090506000429050600082826108fe919061346c565b905060006040518060a001604052808381526020013373ffffffffffffffffffffffffffffffffffffffff16815260200134815260200187815260200186815250905080600160008481526020019081526020016000206000820151816000015560208201518160010160006101000a81548173ffffffffffffffffffffffffffffffffffffffff021916908373ffffffffffffffffffffffffffffffffffffffff16021790555060408201518160020155606082015181600301556080820151816004015590505060026000878152602001908152602001600020600601829080600181540180825580915050600190039060005260206000200160009091909190915055600360003373ffffffffffffffffffffffffffffffffffffffff1673ffffffffffffffffffffffffffffffffffffffff16815260200190815260200160002060020182908060018154018082558091505060019003906000526020600020016000909190919091505534600360003373ffffffffffffffffffffffffffffffffffffffff1673ffffffffffffffffffffffffffffffffffffffff1681526020019081526020016000206003016000828254610abf919061346c565b9250508190555034600260008881526020019081526020016000206004016000828254610aec919061346c565b9250508190555034600260008881526020019081526020016000206005018681548110610b1c57610b1b61365f565b5b906000526020600020016000828254610b35919061346c565b925050819055507fa38a8990067bfd128af9e1c8e749a6940ee00f3621f6f6c8a9c93783a0b9dffe82333489604051610b71949392919061368e565b60405180910390a1505050505050565b60008054906101000a900473ffffffffffffffffffffffffffffffffffffffff1673ffffffffffffffffffffffffffffffffffffffff163373ffffffffffffffffffffffffffffffffffffffff1614610c0f576040517f08c379a0000000000000000000000000000000000000000000000000000000008152600401610c0690613745565b60405180910390fd5b600015156002600083815260200190815260200160002060070160019054906101000a900460ff16151514610c79576040517f08c379a0000000000000000000000000000000000000000000000000000000008152600401610c70906137b1565b60405180910390fd5b60006002600083815260200190815260200160002060070160016101000a81548160ff02191690831515021790555050565b60008054906101000a900473ffffffffffffffffffffffffffffffffffffffff1673ffffffffffffffffffffffffffffffffffffffff163373ffffffffffffffffffffffffffffffffffffffff1614610d39576040517f08c379a0000000000000000000000000000000000000000000000000000000008152600401610d3090613745565b60405180910390fd5b60008111610d7c576040517f08c379a0000000000000000000000000000000000000000000000000000000008152600401610d739061381d565b60405180910390fd5b60008054906101000a900473ffffffffffffffffffffffffffffffffffffffff1673ffffffffffffffffffffffffffffffffffffffff166108fc829081150290604051600060405180830381858888f19350505050158015610de2573d6000803e3d6000fd5b507f7084f5476618d8e60b11ef0d7d3f06914655adb8793e28ff7f018d4c76d505d560008054906101000a900473ffffffffffffffffffffffffffffffffffffffff1682604051610e3492919061383d565b60405180910390a150565b60026020528060005260406000206000915090508060000154908060010160009054906101000a900473ffffffffffffffffffffffffffffffffffffffff16908060020154908060030154908060040154908060070160009054906101000a900460ff16908060070160019054906101000a900460ff16905087565b60016020528060005260406000206000915090508060000154908060010160009054906101000a900473ffffffffffffffffffffffffffffffffffffffff16908060020154908060030154908060040154905085565b610f19612b2b565b600360008373ffffffffffffffffffffffffffffffffffffffff1673ffffffffffffffffffffffffffffffffffffffff168152602001908152602001600020604051806080016040529081600082015481526020016001820160009054906101000a900473ffffffffffffffffffffffffffffffffffffffff1673ffffffffffffffffffffffffffffffffffffffff1673ffffffffffffffffffffffffffffffffffffffff1681526020016002820180548060200260200160405190810160405280929190818152602001828054801561101257602002820191906000526020600020905b815481526020019060010190808311610ffe575b505050505081526020016003820154815250509050919050565b6000600360003373ffffffffffffffffffffffffffffffffffffffff1673ffffffffffffffffffffffffffffffffffffffff16815260200190815260200160002060000154146110b1576040517f08c379a00000000000000000000000000000000000000000000000000000000081526004016110a8906138b2565b60405180910390fd5b600060405180608001604052806001600360003373ffffffffffffffffffffffffffffffffffffffff1673ffffffffffffffffffffffffffffffffffffffff16815260200190815260200160002060020180549050611110919061346c565b81526020013373ffffffffffffffffffffffffffffffffffffffff168152602001600067ffffffffffffffff81111561114c5761114b6134a0565b5b60405190808252806020026020018201604052801561117a5781602001602082028036833780820191505090505b5081526020016000815250905080600360003373ffffffffffffffffffffffffffffffffffffffff1673ffffffffffffffffffffffffffffffffffffffff1681526020019081526020016000206000820151816000015560208201518160010160006101000a81548173ffffffffffffffffffffffffffffffffffffffff021916908373ffffffffffffffffffffffffffffffffffffffff1602179055506040820151816002019080519060200190611234929190612ade565b506060820151816003015590505050565b60046020528060005260406000206000915090508060000154908060010160009054906101000a900473ffffffffffffffffffffffffffffffffffffffff16908060030154905083565b60008060009054906101000a900473ffffffffffffffffffffffffffffffffffffffff16905090565b600047905090565b6112c8612b69565b600160008381526020019081526020016000206040518060a0016040529081600082015481526020016001820160009054906101000a900473ffffffffffffffffffffffffffffffffffffffff1673ffffffffffffffffffffffffffffffffffffffff1673ffffffffffffffffffffffffffffffffffffffff16815260200160028201548152602001600382015481526020016004820154815250509050919050565b60008054906101000a900473ffffffffffffffffffffffffffffffffffffffff1673ffffffffffffffffffffffffffffffffffffffff163373ffffffffffffffffffffffffffffffffffffffff16146113f9576040517f08c379a00000000000000000000000000000000000000000000000000000000081526004016113f090613745565b60405180910390fd5b600047905060008111611441576040517f08c379a00000000000000000000000000000000000000000000000000000000081526004016114389061391e565b60405180910390fd5b60008054906101000a900473ffffffffffffffffffffffffffffffffffffffff1673ffffffffffffffffffffffffffffffffffffffff166108fc829081150290604051600060405180830381858888f193505050501580156114a7573d6000803e3d6000fd5b507f7084f5476618d8e60b11ef0d7d3f06914655adb8793e28ff7f018d4c76d505d560008054906101000a900473ffffffffffffffffffffffffffffffffffffffff16826040516114f992919061383d565b60405180910390a150565b60008054906101000a900473ffffffffffffffffffffffffffffffffffffffff1673ffffffffffffffffffffffffffffffffffffffff163373ffffffffffffffffffffffffffffffffffffffff1614611592576040517f08c379a000000000000000000000000000000000000000000000000000000000815260040161158990613745565b60405180910390fd5b600015156002600083815260200190815260200160002060070160019054906101000a900460ff161515146115fc576040517f08c379a00000000000000000000000000000000000000000000000000000000081526004016115f3906137b1565b60405180910390fd5b60016002600083815260200190815260200160002060070160016101000a81548160ff02191690831515021790555050565b600115156002600084815260200190815260200160002060070160009054906101000a900460ff16151514611698576040517f08c379a000000000000000000000000000000000000000000000000000000000815260040161168f9061398a565b60405180910390fd5b3373ffffffffffffffffffffffffffffffffffffffff166002600084815260200190815260200160002060010160009054906101000a900473ffffffffffffffffffffffffffffffffffffffff1673ffffffffffffffffffffffffffffffffffffffff161461173c576040517f08c379a0000000000000000000000000000000000000000000000000000000008152600401611733906139f6565b60405180910390fd5b600060026000848152602001908152602001600020600601805490509050600060026000858152602001908152602001600020600401549050600060646005836117869190613a16565b6117909190613a87565b9050808261179e9190613ab8565b915060008054906101000a900473ffffffffffffffffffffffffffffffffffffffff1673ffffffffffffffffffffffffffffffffffffffff166108fc829081150290604051600060405180830381858888f19350505050158015611806573d6000803e3d6000fd5b5060005b83811015611f17578460016000600260008a8152602001908152602001600020600601848154811061183f5761183e61365f565b5b906000526020600020015481526020019081526020016000206004015403611a265760006118d260026000898152602001908152602001600020600601838154811061188e5761188d61365f565b5b906000526020600020015485600260008b815260200190815260200160002060050189815481106118c2576118c161365f565b5b9060005260206000200154612aa1565b905060016000600260008a81526020019081526020016000206006018481548110611900576118ff61365f565b5b9060005260206000200154815260200190815260200160002060010160009054906101000a900473ffffffffffffffffffffffffffffffffffffffff1673ffffffffffffffffffffffffffffffffffffffff166108fc829081150290604051600060405180830381858888f19350505050158015611982573d6000803e3d6000fd5b507f7084f5476618d8e60b11ef0d7d3f06914655adb8793e28ff7f018d4c76d505d560016000600260008b815260200190815260200160002060060185815481106119d0576119cf61365f565b5b9060005260206000200154815260200190815260200160002060010160009054906101000a900473ffffffffffffffffffffffffffffffffffffffff1682604051611a1c92919061383d565b60405180910390a1505b60005b6003600060016000600260008c81526020019081526020016000206006018681548110611a5957611a5861365f565b5b9060005260206000200154815260200190815260200160002060010160009054906101000a900473ffffffffffffffffffffffffffffffffffffffff1673ffffffffffffffffffffffffffffffffffffffff1673ffffffffffffffffffffffffffffffffffffffff16815260200190815260200160002060020180549050811015611f0957600260008881526020019081526020016000206006018281548110611b0657611b0561365f565b5b90600052602060002001546003600060016000600260008d81526020019081526020016000206006018781548110611b4157611b4061365f565b5b9060005260206000200154815260200190815260200160002060010160009054906101000a900473ffffffffffffffffffffffffffffffffffffffff1673ffffffffffffffffffffffffffffffffffffffff1673ffffffffffffffffffffffffffffffffffffffff1681526020019081526020016000206002018281548110611bcd57611bcc61365f565b5b906000526020600020015403611efc576003600060016000600260008c81526020019081526020016000206006018681548110611c0d57611c0c61365f565b5b9060005260206000200154815260200190815260200160002060010160009054906101000a900473ffffffffffffffffffffffffffffffffffffffff1673ffffffffffffffffffffffffffffffffffffffff1673ffffffffffffffffffffffffffffffffffffffff16815260200190815260200160002060020160016003600060016000600260008e81526020019081526020016000206006018881548110611cb957611cb861365f565b5b9060005260206000200154815260200190815260200160002060010160009054906101000a900473ffffffffffffffffffffffffffffffffffffffff1673ffffffffffffffffffffffffffffffffffffffff1673ffffffffffffffffffffffffffffffffffffffff16815260200190815260200160002060020180549050611d419190613ab8565b81548110611d5257611d5161365f565b5b90600052602060002001546003600060016000600260008d81526020019081526020016000206006018781548110611d8d57611d8c61365f565b5b9060005260206000200154815260200190815260200160002060010160009054906101000a900473ffffffffffffffffffffffffffffffffffffffff1673ffffffffffffffffffffffffffffffffffffffff1673ffffffffffffffffffffffffffffffffffffffff1681526020019081526020016000206002018281548110611e1957611e1861365f565b5b90600052602060002001819055506003600060016000600260008c81526020019081526020016000206006018681548110611e5757611e5661365f565b5b9060005260206000200154815260200190815260200160002060010160009054906101000a900473ffffffffffffffffffffffffffffffffffffffff1673ffffffffffffffffffffffffffffffffffffffff1673ffffffffffffffffffffffffffffffffffffffff168152602001908152602001600020600201805480611ee157611ee0613aec565b5b60019003818190600052602060002001600090559055611f09565b8080600101915050611a29565b50808060010191505061180a565b505050505050565b60036020528060005260406000206000915090508060000154908060010160009054906101000a900473ffffffffffffffffffffffffffffffffffffffff16908060030154905083565b611f71612bae565b600460008373ffffffffffffffffffffffffffffffffffffffff1673ffffffffffffffffffffffffffffffffffffffff168152602001908152602001600020604051806080016040529081600082015481526020016001820160009054906101000a900473ffffffffffffffffffffffffffffffffffffffff1673ffffffffffffffffffffffffffffffffffffffff1673ffffffffffffffffffffffffffffffffffffffff1681526020016002820180548060200260200160405190810160405280929190818152602001828054801561206a57602002820191906000526020600020905b815481526020019060010190808311612056575b505050505081526020016003820154815250509050919050565b61208c612bec565b6002600083815260200190815260200160002060405180610120016040529081600082015481526020016001820160009054906101000a900473ffffffffffffffffffffffffffffffffffffffff1673ffffffffffffffffffffffffffffffffffffffff1673ffffffffffffffffffffffffffffffffffffffff1681526020016002820154815260200160038201548152602001600482015481526020016005820180548060200260200160405190810160405280929190818152602001828054801561217857602002820191906000526020600020905b815481526020019060010190808311612164575b50505050508152602001600682018054806020026020016040519081016040528092919081815260200182805480156121d057602002820191906000526020600020905b8154815260200190600101908083116121bc575b505050505081526020016007820160009054906101000a900460ff161515151581526020016007820160019054906101000a900460ff1615151515815250509050919050565b600080600260008681526020019081526020016000206000015411612270576040517f08c379a000000000000000000000000000000000000000000000000000000000815260040161226790613b67565b60405180910390fd5b600015156002600086815260200190815260200160002060070160009054906101000a900460ff161515146122da576040517f08c379a00000000000000000000000000000000000000000000000000000000081526004016122d1906135ad565b60405180910390fd5b60026000858152602001908152602001600020600201548210158015612316575060026000858152602001908152602001600020600301548211155b612355576040517f08c379a000000000000000000000000000000000000000000000000000000000815260040161234c9061363f565b60405180910390fd5b600060026000868152602001908152602001600020600401549050600060646005836123819190613a16565b61238b9190613a87565b905080826123999190613ab8565b9150600082600260008981526020019081526020016000206005018760ff16815481106123c9576123c861365f565b5b9060005260206000200154866123df9190613a87565b6123e99190613a16565b90508093505050509392505050565b6000600460003373ffffffffffffffffffffffffffffffffffffffff1673ffffffffffffffffffffffffffffffffffffffff168152602001908152602001600020600001541161247d576040517f08c379a000000000000000000000000000000000000000000000000000000000815260040161247490613bf9565b60405180910390fd5b3373ffffffffffffffffffffffffffffffffffffffff166002600084815260200190815260200160002060010160009054906101000a900473ffffffffffffffffffffffffffffffffffffffff1673ffffffffffffffffffffffffffffffffffffffff1614612521576040517f08c379a000000000000000000000000000000000000000000000000000000000815260040161251890613c65565b60405180910390fd5b600015156002600084815260200190815260200160002060070160009054906101000a900460ff1615151461258b576040517f08c379a0000000000000000000000000000000000000000000000000000000008152600401612582906135ad565b60405180910390fd5b60016002600084815260200190815260200160002060070160006101000a81548160ff0219169083151502179055506125c4828261162e565b7f56fe9aa41f0884b06717b271b0b1b2eedc26fe9341fb37ab44d43e1f4405c9888233600260008681526020019081526020016000206004015460405161260d93929190612fef565b60405180910390a15050565b6000600460003373ffffffffffffffffffffffffffffffffffffffff1673ffffffffffffffffffffffffffffffffffffffff168152602001908152602001600020600001541161269e576040517f08c379a000000000000000000000000000000000000000000000000000000000815260040161269590613bf9565b60405180910390fd5b600084116126e1576040517f08c379a00000000000000000000000000000000000000000000000000000000081526004016126d890613cf7565b60405180910390fd5b838311612723576040517f08c379a000000000000000000000000000000000000000000000000000000000815260040161271a90613d89565b60405180910390fd5b60006040518061012001604052808481526020013373ffffffffffffffffffffffffffffffffffffffff16815260200186815260200185815260200160008152602001600184612773919061346c565b67ffffffffffffffff81111561278c5761278b6134a0565b5b6040519080825280602002602001820160405280156127ba5781602001602082028036833780820191505090505b508152602001600067ffffffffffffffff8111156127db576127da6134a0565b5b6040519080825280602002602001820160405280156128095781602001602082028036833780820191505090505b50815260200160001515815260200160001515815250905080600260008581526020019081526020016000206000820151816000015560208201518160010160006101000a81548173ffffffffffffffffffffffffffffffffffffffff021916908373ffffffffffffffffffffffffffffffffffffffff16021790555060408201518160020155606082015181600301556080820151816004015560a08201518160050190805190602001906128c0929190612ade565b5060c08201518160060190805190602001906128dd929190612ade565b5060e08201518160070160006101000a81548160ff0219169083151502179055506101008201518160070160016101000a81548160ff021916908315150217905550905050600460003373ffffffffffffffffffffffffffffffffffffffff1673ffffffffffffffffffffffffffffffffffffffff1681526020019081526020016000206002018390806001815401808255809150506001900390600052602060002001600090919091909150557f4d946047a8fad903eae1a1ebbf75dc1667359f7ee49a61c577a4c6c70bdceb13833387876040516129c0949392919061368e565b60405180910390a15050505050565b600080600460008573ffffffffffffffffffffffffffffffffffffffff1673ffffffffffffffffffffffffffffffffffffffff16815260200190815260200160002060000154118015612a26575060001515821515145b15612a3357829050612a9b565b6000600360008573ffffffffffffffffffffffffffffffffffffffff1673ffffffffffffffffffffffffffffffffffffffff16815260200190815260200160002060000154118015612a89575060011515821515145b15612a9657829050612a9b565b600090505b92915050565b60008083836001600088815260200190815260200160002060020154612ac79190613a87565b612ad19190613a16565b9050809150509392505050565b828054828255906000526020600020908101928215612b1a579160200282015b82811115612b19578251825591602001919060010190612afe565b5b509050612b279190612c52565b5090565b604051806080016040528060008152602001600073ffffffffffffffffffffffffffffffffffffffff16815260200160608152602001600081525090565b6040518060a0016040528060008152602001600073ffffffffffffffffffffffffffffffffffffffff1681526020016000815260200160008152602001600081525090565b604051806080016040528060008152602001600073ffffffffffffffffffffffffffffffffffffffff16815260200160608152602001600081525090565b60405180610120016040528060008152602001600073ffffffffffffffffffffffffffffffffffffffff16815260200160008152602001600081526020016000815260200160608152602001606081526020016000151581526020016000151581525090565b5b80821115612c6b576000816000905550600101612c53565b5090565b600080fd5b6000819050919050565b612c8781612c74565b8114612c9257600080fd5b50565b600081359050612ca481612c7e565b92915050565b60008060408385031215612cc157612cc0612c6f565b5b6000612ccf85828601612c95565b9250506020612ce085828601612c95565b9150509250929050565b600060208284031215612d0057612cff612c6f565b5b6000612d0e84828501612c95565b91505092915050565b612d2081612c74565b82525050565b600073ffffffffffffffffffffffffffffffffffffffff82169050919050565b6000612d5182612d26565b9050919050565b612d6181612d46565b82525050565b60008115159050919050565b612d7c81612d67565b82525050565b600060e082019050612d97600083018a612d17565b612da46020830189612d58565b612db16040830188612d17565b612dbe6060830187612d17565b612dcb6080830186612d17565b612dd860a0830185612d73565b612de560c0830184612d73565b98975050505050505050565b600060a082019050612e066000830188612d17565b612e136020830187612d58565b612e206040830186612d17565b612e2d6060830185612d17565b612e3a6080830184612d17565b9695505050505050565b612e4d81612d46565b8114612e5857600080fd5b50565b600081359050612e6a81612e44565b92915050565b600060208284031215612e8657612e85612c6f565b5b6000612e9484828501612e5b565b91505092915050565b612ea681612c74565b82525050565b612eb581612d46565b82525050565b600081519050919050565b600082825260208201905092915050565b6000819050602082019050919050565b6000612ef38383612e9d565b60208301905092915050565b6000602082019050919050565b6000612f1782612ebb565b612f218185612ec6565b9350612f2c83612ed7565b8060005b83811015612f5d578151612f448882612ee7565b9750612f4f83612eff565b925050600181019050612f30565b5085935050505092915050565b6000608083016000830151612f826000860182612e9d565b506020830151612f956020860182612eac565b5060408301518482036040860152612fad8282612f0c565b9150506060830151612fc26060860182612e9d565b508091505092915050565b60006020820190508181036000830152612fe78184612f6a565b905092915050565b60006060820190506130046000830186612d17565b6130116020830185612d58565b61301e6040830184612d17565b949350505050565b600060208201905061303b6000830184612d58565b92915050565b60006020820190506130566000830184612d17565b92915050565b60a0820160008201516130726000850182612e9d565b5060208201516130856020850182612eac565b5060408201516130986040850182612e9d565b5060608201516130ab6060850182612e9d565b5060808201516130be6080850182612e9d565b50505050565b600060a0820190506130d9600083018461305c565b92915050565b60006080830160008301516130f76000860182612e9d565b50602083015161310a6020860182612eac565b50604083015184820360408601526131228282612f0c565b91505060608301516131376060860182612e9d565b508091505092915050565b6000602082019050818103600083015261315c81846130df565b905092915050565b61316d81612d67565b82525050565b60006101208301600083015161318c6000860182612e9d565b50602083015161319f6020860182612eac565b5060408301516131b26040860182612e9d565b5060608301516131c56060860182612e9d565b5060808301516131d86080860182612e9d565b5060a083015184820360a08601526131f08282612f0c565b91505060c083015184820360c086015261320a8282612f0c565b91505060e083015161321f60e0860182613164565b50610100830151613234610100860182613164565b508091505092915050565b600060208201905081810360008301526132598184613173565b905092915050565b600060ff82169050919050565b61327781613261565b811461328257600080fd5b50565b6000813590506132948161326e565b92915050565b6000806000606084860312156132b3576132b2612c6f565b5b60006132c186828701612c95565b93505060206132d286828701613285565b92505060406132e386828701612c95565b9150509250925092565b6000806000806080858703121561330757613306612c6f565b5b600061331587828801612c95565b945050602061332687828801612c95565b935050604061333787828801612c95565b925050606061334887828801612c95565b91505092959194509250565b61335d81612d67565b811461336857600080fd5b50565b60008135905061337a81613354565b92915050565b6000806040838503121561339757613396612c6f565b5b60006133a585828601612e5b565b92505060206133b68582860161336b565b9150509250929050565b600082825260208201905092915050565b7f416c726561647920726567697374657265642061732053656c6c657200000000600082015250565b6000613407601c836133c0565b9150613412826133d1565b602082019050919050565b60006020820190508181036000830152613436816133fa565b9050919050565b7f4e487b7100000000000000000000000000000000000000000000000000000000600052601160045260246000fd5b600061347782612c74565b915061348283612c74565b925082820190508082111561349a5761349961343d565b5b92915050565b7f4e487b7100000000000000000000000000000000000000000000000000000000600052604160045260246000fd5b7f4f6e6c792042757965722063616e2063616c6c20746869732066756e6374696f60008201527f6e00000000000000000000000000000000000000000000000000000000000000602082015250565b600061352b6021836133c0565b9150613536826134cf565b604082019050919050565b6000602082019050818103600083015261355a8161351e565b9050919050565b7f5175697a20697320616c726561647920656e6465640000000000000000000000600082015250565b60006135976015836133c0565b91506135a282613561565b602082019050919050565b600060208201905081810360008301526135c68161358a565b9050919050565b7f416d6f756e742073686f756c64206265206265747765656e206d696e20616e6460008201527f206d617820616d6f756e74000000000000000000000000000000000000000000602082015250565b6000613629602b836133c0565b9150613634826135cd565b604082019050919050565b600060208201905081810360008301526136588161361c565b9050919050565b7f4e487b7100000000000000000000000000000000000000000000000000000000600052603260045260246000fd5b60006080820190506136a36000830187612d17565b6136b06020830186612d58565b6136bd6040830185612d17565b6136ca6060830184612d17565b95945050505050565b7f4f6e6c792041646d696e2063616e2063616c6c20746869732066756e6374696f60008201527f6e00000000000000000000000000000000000000000000000000000000000000602082015250565b600061372f6021836133c0565b915061373a826136d3565b604082019050919050565b6000602082019050818103600083015261375e81613722565b9050919050565b7f5175697a20697320616c726561647920617070726f7665640000000000000000600082015250565b600061379b6018836133c0565b91506137a682613765565b602082019050919050565b600060208201905081810360008301526137ca8161378e565b9050919050565b7f416d6f756e742073686f756c642062652067726561746572207468616e203000600082015250565b6000613807601f836133c0565b9150613812826137d1565b602082019050919050565b60006020820190508181036000830152613836816137fa565b9050919050565b60006040820190506138526000830185612d58565b61385f6020830184612d17565b9392505050565b7f416c726561647920726567697374657265642061732042757965720000000000600082015250565b600061389c601b836133c0565b91506138a782613866565b602082019050919050565b600060208201905081810360008301526138cb8161388f565b9050919050565b7f4e6f2062616c616e636520746f20776974686472617700000000000000000000600082015250565b60006139086016836133c0565b9150613913826138d2565b602082019050919050565b60006020820190508181036000830152613937816138fb565b9050919050565b7f5175697a206973206e6f7420656e646564207965740000000000000000000000600082015250565b60006139746015836133c0565b915061397f8261393e565b602082019050919050565b600060208201905081810360008301526139a381613967565b9050919050565b7f4f6e6c79206f776e65722063616e207472616e73666572207265776172647300600082015250565b60006139e0601f836133c0565b91506139eb826139aa565b602082019050919050565b60006020820190508181036000830152613a0f816139d3565b9050919050565b6000613a2182612c74565b9150613a2c83612c74565b9250828202613a3a81612c74565b91508282048414831517613a5157613a5061343d565b5b5092915050565b7f4e487b7100000000000000000000000000000000000000000000000000000000600052601260045260246000fd5b6000613a9282612c74565b9150613a9d83612c74565b925082613aad57613aac613a58565b5b828204905092915050565b6000613ac382612c74565b9150613ace83612c74565b9250828203905081811115613ae657613ae561343d565b5b92915050565b7f4e487b7100000000000000000000000000000000000000000000000000000000600052603160045260246000fd5b7f5175697a20646f6573206e6f7420657869737400000000000000000000000000600082015250565b6000613b516013836133c0565b9150613b5c82613b1b565b602082019050919050565b60006020820190508181036000830152613b8081613b44565b9050919050565b7f4f6e6c792053656c6c65722063616e2063616c6c20746869732066756e63746960008201527f6f6e000000000000000000000000000000000000000000000000000000000000602082015250565b6000613be36022836133c0565b9150613bee82613b87565b604082019050919050565b60006020820190508181036000830152613c1281613bd6565b9050919050565b7f4f6e6c79206f776e65722063616e20656e6420746865207175697a0000000000600082015250565b6000613c4f601b836133c0565b9150613c5a82613c19565b602082019050919050565b60006020820190508181036000830152613c7e81613c42565b9050919050565b7f4d696e696d756d20616d6f756e742073686f756c64206265206772656174657260008201527f207468616e203000000000000000000000000000000000000000000000000000602082015250565b6000613ce16027836133c0565b9150613cec82613c85565b604082019050919050565b60006020820190508181036000830152613d1081613cd4565b9050919050565b7f4d6178696d756d20616d6f756e742073686f756c64206265206772656174657260008201527f207468616e206d696e696d756d20616d6f756e74000000000000000000000000602082015250565b6000613d736034836133c0565b9150613d7e82613d17565b604082019050919050565b60006020820190508181036000830152613da281613d66565b905091905056fea2646970667358221220a9ac204c93eff93b57d958c4d98a5c8cde97aa2aa79af08f2cc52bfa02fb779664736f6c634300081c0033",
  "linkReferences": {},
  "deployedLinkReferences": {}
}