{
  "_format": "hh-sol-artifact-1",
  "contractName": "MarketPlaceContract",
  "sourceName": "contracts/MarketPlaceContract.sol",
  "abi": [
    {
      "inputs": [],
      "stateMutability": "nonpayable",
      "type": "constructor"
    },
    {
      "anonymous": false,
      "inputs": [
        {
          "indexed": false,
          "internalType": "uint256",
          "name": "id",
          "type": "uint256"
        },
        {
          "indexed": false,
          "internalType": "address",
          "name": "owner",
          "type": "address"
        },
        {
          "indexed": false,
          "internalType": "uint256",
          "name": "minAmt",
          "type": "uint256"
        },
        {
          "indexed": false,
          "internalType": "uint256",
          "name": "maxAmt",
          "type": "uint256"
        }
      ],
      "name": "QuizCreated",
      "type": "event"
    },
    {
      "anonymous": false,
      "inputs": [
        {
          "indexed": false,
          "internalType": "uint256",
          "name": "id",
          "type": "uint256"
        },
        {
          "indexed": false,
          "internalType": "address",
          "name": "owner",
          "type": "address"
        },
        {
          "indexed": false,
          "internalType": "uint256",
          "name": "totalAmt",
          "type": "uint256"
        }
      ],
      "name": "QuizEnded",
      "type": "event"
    },
    {
      "anonymous": false,
      "inputs": [
        {
          "indexed": false,
          "internalType": "uint256",
          "name": "id",
          "type": "uint256"
        },
        {
          "indexed": false,
          "internalType": "address",
          "name": "owner",
          "type": "address"
        },
        {
          "indexed": false,
          "internalType": "uint256",
          "name": "amt",
          "type": "uint256"
        },
        {
          "indexed": false,
          "internalType": "uint256",
          "name": "quizId",
          "type": "uint256"
        }
      ],
      "name": "TicketBought",
      "type": "event"
    },
    {
      "anonymous": false,
      "inputs": [
        {
          "indexed": false,
          "internalType": "address",
          "name": "owner",
          "type": "address"
        },
        {
          "indexed": false,
          "internalType": "uint256",
          "name": "amt",
          "type": "uint256"
        }
      ],
      "name": "Withdrawn",
      "type": "event"
    },
    {
      "inputs": [
        {
          "internalType": "uint256",
          "name": "_QuizId",
          "type": "uint256"
        },
        {
          "internalType": "uint256",
          "name": "betIndex",
          "type": "uint256"
        }
      ],
      "name": "buyTicket",
      "outputs": [],
      "stateMutability": "payable",
      "type": "function"
    },
    {
      "inputs": [
        {
          "internalType": "address",
          "name": "",
          "type": "address"
        }
      ],
      "name": "buyerMap",
      "outputs": [
        {
          "internalType": "uint256",
          "name": "id",
          "type": "uint256"
        },
        {
          "internalType": "address",
          "name": "walletAdd",
          "type": "address"
        },
        {
          "internalType": "uint256",
          "name": "totalAmt",
          "type": "uint256"
        }
      ],
      "stateMutability": "view",
      "type": "function"
    },
    {
      "inputs": [
        {
          "internalType": "uint256",
          "name": "_minAmt",
          "type": "uint256"
        },
        {
          "internalType": "uint256",
          "name": "_maxAmt",
          "type": "uint256"
        },
        {
          "internalType": "uint256",
          "name": "_id",
          "type": "uint256"
        },
        {
          "internalType": "uint256",
          "name": "_numOfoptions",
          "type": "uint256"
        }
      ],
      "name": "createQuiz",
      "outputs": [],
      "stateMutability": "nonpayable",
      "type": "function"
    },
    {
      "inputs": [
        {
          "internalType": "uint256",
          "name": "_QuizId",
          "type": "uint256"
        },
        {
          "internalType": "uint256",
          "name": "_WinningInd",
          "type": "uint256"
        }
      ],
      "name": "endQuiz",
      "outputs": [],
      "stateMutability": "nonpayable",
      "type": "function"
    },
    {
      "inputs": [],
      "name": "getAdmin",
      "outputs": [
        {
          "internalType": "address",
          "name": "",
          "type": "address"
        }
      ],
      "stateMutability": "view",
      "type": "function"
    },
    {
      "inputs": [
        {
          "internalType": "address",
          "name": "_walletAdd",
          "type": "address"
        }
      ],
      "name": "getBuyer",
      "outputs": [
        {
          "components": [
            {
              "internalType": "uint256",
              "name": "id",
              "type": "uint256"
            },
            {
              "internalType": "address",
              "name": "walletAdd",
              "type": "address"
            },
            {
              "internalType": "uint256[]",
              "name": "tickets",
              "type": "uint256[]"
            },
            {
              "internalType": "uint256",
              "name": "totalAmt",
              "type": "uint256"
            }
          ],
          "internalType": "struct MarketPlaceContract.Buyer",
          "name": "",
          "type": "tuple"
        }
      ],
      "stateMutability": "view",
      "type": "function"
    },
    {
      "inputs": [
        {
          "internalType": "uint256",
          "name": "_QuizId",
          "type": "uint256"
        },
        {
          "internalType": "uint8",
          "name": "_betIndex",
          "type": "uint8"
        },
        {
          "internalType": "uint256",
          "name": "_amt",
          "type": "uint256"
        }
      ],
      "name": "getPredictedWinAmount",
      "outputs": [
        {
          "internalType": "uint256",
          "name": "",
          "type": "uint256"
        }
      ],
      "stateMutability": "view",
      "type": "function"
    },
    {
      "inputs": [
        {
          "internalType": "uint256",
          "name": "_id",
          "type": "uint256"
        }
      ],
      "name": "getQuiz",
      "outputs": [
        {
          "components": [
            {
              "internalType": "uint256",
              "name": "id",
              "type": "uint256"
            },
            {
              "internalType": "address",
              "name": "owner",
              "type": "address"
            },
            {
              "internalType": "uint256",
              "name": "minAmt",
              "type": "uint256"
            },
            {
              "internalType": "uint256",
              "name": "maxAmt",
              "type": "uint256"
            },
            {
              "internalType": "uint256",
              "name": "totalAmt",
              "type": "uint256"
            },
            {
              "internalType": "uint256[]",
              "name": "options",
              "type": "uint256[]"
            },
            {
              "internalType": "uint256[]",
              "name": "tickets",
              "type": "uint256[]"
            },
            {
              "internalType": "bool",
              "name": "isEnded",
              "type": "bool"
            }
          ],
          "internalType": "struct MarketPlaceContract.Quiz",
          "name": "",
          "type": "tuple"
        }
      ],
      "stateMutability": "view",
      "type": "function"
    },
    {
      "inputs": [
        {
          "internalType": "address",
          "name": "_walletAdd",
          "type": "address"
        }
      ],
      "name": "getSeller",
      "outputs": [
        {
          "components": [
            {
              "internalType": "uint256",
              "name": "id",
              "type": "uint256"
            },
            {
              "internalType": "address",
              "name": "walletAdd",
              "type": "address"
            },
            {
              "internalType": "uint256[]",
              "name": "quizzes",
              "type": "uint256[]"
            },
            {
              "internalType": "uint256",
              "name": "totalAmt",
              "type": "uint256"
            }
          ],
          "internalType": "struct MarketPlaceContract.Seller",
          "name": "",
          "type": "tuple"
        }
      ],
      "stateMutability": "view",
      "type": "function"
    },
    {
      "inputs": [
        {
          "internalType": "uint256",
          "name": "_id",
          "type": "uint256"
        }
      ],
      "name": "getTicket",
      "outputs": [
        {
          "components": [
            {
              "internalType": "uint256",
              "name": "id",
              "type": "uint256"
            },
            {
              "internalType": "address",
              "name": "owner",
              "type": "address"
            },
            {
              "internalType": "uint256",
              "name": "amt",
              "type": "uint256"
            },
            {
              "internalType": "uint256",
              "name": "quizId",
              "type": "uint256"
            },
            {
              "internalType": "uint256",
              "name": "betIndex",
              "type": "uint256"
            }
          ],
          "internalType": "struct MarketPlaceContract.Ticket",
          "name": "",
          "type": "tuple"
        }
      ],
      "stateMutability": "view",
      "type": "function"
    },
    {
      "inputs": [
        {
          "internalType": "address",
          "name": "_walletAdd",
          "type": "address"
        },
        {
          "internalType": "bool",
          "name": "isBuyer",
          "type": "bool"
        }
      ],
      "name": "login",
      "outputs": [
        {
          "internalType": "address",
          "name": "",
          "type": "address"
        }
      ],
      "stateMutability": "view",
      "type": "function"
    },
    {
      "inputs": [
        {
          "internalType": "uint256",
          "name": "",
          "type": "uint256"
        }
      ],
      "name": "quizMap",
      "outputs": [
        {
          "internalType": "uint256",
          "name": "id",
          "type": "uint256"
        },
        {
          "internalType": "address",
          "name": "owner",
          "type": "address"
        },
        {
          "internalType": "uint256",
          "name": "minAmt",
          "type": "uint256"
        },
        {
          "internalType": "uint256",
          "name": "maxAmt",
          "type": "uint256"
        },
        {
          "internalType": "uint256",
          "name": "totalAmt",
          "type": "uint256"
        },
        {
          "internalType": "bool",
          "name": "isEnded",
          "type": "bool"
        }
      ],
      "stateMutability": "view",
      "type": "function"
    },
    {
      "inputs": [],
      "name": "registerAsBuyer",
      "outputs": [],
      "stateMutability": "nonpayable",
      "type": "function"
    },
    {
      "inputs": [],
      "name": "registerAsSeller",
      "outputs": [],
      "stateMutability": "nonpayable",
      "type": "function"
    },
    {
      "inputs": [
        {
          "internalType": "address",
          "name": "",
          "type": "address"
        }
      ],
      "name": "sellerMap",
      "outputs": [
        {
          "internalType": "uint256",
          "name": "id",
          "type": "uint256"
        },
        {
          "internalType": "address",
          "name": "walletAdd",
          "type": "address"
        },
        {
          "internalType": "uint256",
          "name": "totalAmt",
          "type": "uint256"
        }
      ],
      "stateMutability": "view",
      "type": "function"
    },
    {
      "inputs": [
        {
          "internalType": "uint256",
          "name": "",
          "type": "uint256"
        }
      ],
      "name": "ticketMap",
      "outputs": [
        {
          "internalType": "uint256",
          "name": "id",
          "type": "uint256"
        },
        {
          "internalType": "address",
          "name": "owner",
          "type": "address"
        },
        {
          "internalType": "uint256",
          "name": "amt",
          "type": "uint256"
        },
        {
          "internalType": "uint256",
          "name": "quizId",
          "type": "uint256"
        },
        {
          "internalType": "uint256",
          "name": "betIndex",
          "type": "uint256"
        }
      ],
      "stateMutability": "view",
      "type": "function"
    },
    {
      "inputs": [
        {
          "internalType": "uint256",
          "name": "_QuizId",
          "type": "uint256"
        },
        {
          "internalType": "uint256",
          "name": "_WinningInd",
          "type": "uint256"
        }
      ],
      "name": "transferRewardsToWinner",
      "outputs": [],
      "stateMutability": "payable",
      "type": "function"
    }
  ],
  "bytecode": "0x6080604052348015600f57600080fd5b50336000806101000a81548173ffffffffffffffffffffffffffffffffffffffff021916908373ffffffffffffffffffffffffffffffffffffffff1602179055506134618061005f6000396000f3fe6080604052600436106100fe5760003560e01c80637dc379fa11610095578063a3f7e09611610064578063a3f7e0961461034c578063af4fc95514610389578063c694e33d146103c6578063d3ec0aae146103ef578063f728635a14610418576100fe565b80637dc379fa146102775780639af6a08a146102b45780639cdb1837146102d0578063a323d29e1461030f576100fe565b80635721e419116100d15780635721e419146101b95780635b4a5cf2146101f65780636e78c51f1461020d5780636e9960c31461024c576100fe565b8063128b853214610103578063298ec2081461011a578063490c369d14610136578063500e3cbd14610178575b600080fd5b34801561010f57600080fd5b50610118610455565b005b610134600480360381019061012f9190612591565b61066e565b005b34801561014257600080fd5b5061015d600480360381019061015891906125d1565b610a8c565b60405161016f96959493929190612669565b60405180910390f35b34801561018457600080fd5b5061019f600480360381019061019a91906125d1565b610af5565b6040516101b09594939291906126ca565b60405180910390f35b3480156101c557600080fd5b506101e060048036038101906101db9190612749565b610b4b565b6040516101ed91906128a6565b60405180910390f35b34801561020257600080fd5b5061020b610c66565b005b34801561021957600080fd5b50610234600480360381019061022f9190612749565b610e7f565b604051610243939291906128c8565b60405180910390f35b34801561025857600080fd5b50610261610ec9565b60405161026e91906128ff565b60405180910390f35b34801561028357600080fd5b5061029e600480360381019061029991906125d1565b610ef2565b6040516102ab9190612982565b60405180910390f35b6102ce60048036038101906102c99190612591565b610f9d565b005b3480156102dc57600080fd5b506102f760048036038101906102f29190612749565b61188e565b604051610306939291906128c8565b60405180910390f35b34801561031b57600080fd5b5061033660048036038101906103319190612749565b6118d8565b6040516103439190612a00565b60405180910390f35b34801561035857600080fd5b50610373600480360381019061036e91906125d1565b6119f3565b6040516103809190612ae8565b60405180910390f35b34801561039557600080fd5b506103b060048036038101906103ab9190612b43565b611b6a565b6040516103bd9190612b96565b60405180910390f35b3480156103d257600080fd5b506103ed60048036038101906103e89190612591565b611d12565b005b3480156103fb57600080fd5b5061041660048036038101906104119190612bb1565b611f33565b005b34801561042457600080fd5b5061043f600480360381019061043a9190612c44565b6122bf565b60405161044c91906128ff565b60405180910390f35b6000600460003373ffffffffffffffffffffffffffffffffffffffff1673ffffffffffffffffffffffffffffffffffffffff16815260200190815260200160002060000154146104da576040517f08c379a00000000000000000000000000000000000000000000000000000000081526004016104d190612ce1565b60405180910390fd5b600060405180608001604052806001600460003373ffffffffffffffffffffffffffffffffffffffff1673ffffffffffffffffffffffffffffffffffffffff168152602001908152602001600020600201805490506105399190612d30565b81526020013373ffffffffffffffffffffffffffffffffffffffff168152602001600067ffffffffffffffff81111561057557610574612d64565b5b6040519080825280602002602001820160405280156105a35781602001602082028036833780820191505090505b5081526020016000815250905080600460003373ffffffffffffffffffffffffffffffffffffffff1673ffffffffffffffffffffffffffffffffffffffff1681526020019081526020016000206000820151816000015560208201518160010160006101000a81548173ffffffffffffffffffffffffffffffffffffffff021916908373ffffffffffffffffffffffffffffffffffffffff160217905550604082015181600201908051906020019061065d9291906123ce565b506060820151816003015590505050565b6000600360003373ffffffffffffffffffffffffffffffffffffffff1673ffffffffffffffffffffffffffffffffffffffff16815260200190815260200160002060000154116106f3576040517f08c379a00000000000000000000000000000000000000000000000000000000081526004016106ea90612e05565b60405180910390fd5b600015156002600084815260200190815260200160002060070160009054906101000a900460ff1615151461075d576040517f08c379a000000000000000000000000000000000000000000000000000000000815260040161075490612e71565b60405180910390fd5b60026000838152602001908152602001600020600201543410158015610799575060026000838152602001908152602001600020600301543411155b6107d8576040517f08c379a00000000000000000000000000000000000000000000000000000000081526004016107cf90612f03565b60405180910390fd5b6000600260008481526020019081526020016000206006018054905090506000429050600082826108099190612d30565b905060006040518060a001604052808381526020013373ffffffffffffffffffffffffffffffffffffffff16815260200134815260200187815260200186815250905080600160008481526020019081526020016000206000820151816000015560208201518160010160006101000a81548173ffffffffffffffffffffffffffffffffffffffff021916908373ffffffffffffffffffffffffffffffffffffffff16021790555060408201518160020155606082015181600301556080820151816004015590505060026000878152602001908152602001600020600601829080600181540180825580915050600190039060005260206000200160009091909190915055600360003373ffffffffffffffffffffffffffffffffffffffff1673ffffffffffffffffffffffffffffffffffffffff16815260200190815260200160002060020182908060018154018082558091505060019003906000526020600020016000909190919091505534600360003373ffffffffffffffffffffffffffffffffffffffff1673ffffffffffffffffffffffffffffffffffffffff16815260200190815260200160002060030160008282546109ca9190612d30565b92505081905550346002600088815260200190815260200160002060040160008282546109f79190612d30565b9250508190555034600260008881526020019081526020016000206005018681548110610a2757610a26612f23565b5b906000526020600020016000828254610a409190612d30565b925050819055507fa38a8990067bfd128af9e1c8e749a6940ee00f3621f6f6c8a9c93783a0b9dffe82333489604051610a7c9493929190612f52565b60405180910390a1505050505050565b60026020528060005260406000206000915090508060000154908060010160009054906101000a900473ffffffffffffffffffffffffffffffffffffffff16908060020154908060030154908060040154908060070160009054906101000a900460ff16905086565b60016020528060005260406000206000915090508060000154908060010160009054906101000a900473ffffffffffffffffffffffffffffffffffffffff16908060020154908060030154908060040154905085565b610b5361241b565b600360008373ffffffffffffffffffffffffffffffffffffffff1673ffffffffffffffffffffffffffffffffffffffff168152602001908152602001600020604051806080016040529081600082015481526020016001820160009054906101000a900473ffffffffffffffffffffffffffffffffffffffff1673ffffffffffffffffffffffffffffffffffffffff1673ffffffffffffffffffffffffffffffffffffffff16815260200160028201805480602002602001604051908101604052809291908181526020018280548015610c4c57602002820191906000526020600020905b815481526020019060010190808311610c38575b505050505081526020016003820154815250509050919050565b6000600360003373ffffffffffffffffffffffffffffffffffffffff1673ffffffffffffffffffffffffffffffffffffffff1681526020019081526020016000206000015414610ceb576040517f08c379a0000000000000000000000000000000000000000000000000000000008152600401610ce290612fe3565b60405180910390fd5b600060405180608001604052806001600360003373ffffffffffffffffffffffffffffffffffffffff1673ffffffffffffffffffffffffffffffffffffffff16815260200190815260200160002060020180549050610d4a9190612d30565b81526020013373ffffffffffffffffffffffffffffffffffffffff168152602001600067ffffffffffffffff811115610d8657610d85612d64565b5b604051908082528060200260200182016040528015610db45781602001602082028036833780820191505090505b5081526020016000815250905080600360003373ffffffffffffffffffffffffffffffffffffffff1673ffffffffffffffffffffffffffffffffffffffff1681526020019081526020016000206000820151816000015560208201518160010160006101000a81548173ffffffffffffffffffffffffffffffffffffffff021916908373ffffffffffffffffffffffffffffffffffffffff1602179055506040820151816002019080519060200190610e6e9291906123ce565b506060820151816003015590505050565b60046020528060005260406000206000915090508060000154908060010160009054906101000a900473ffffffffffffffffffffffffffffffffffffffff16908060030154905083565b60008060009054906101000a900473ffffffffffffffffffffffffffffffffffffffff16905090565b610efa612459565b600160008381526020019081526020016000206040518060a0016040529081600082015481526020016001820160009054906101000a900473ffffffffffffffffffffffffffffffffffffffff1673ffffffffffffffffffffffffffffffffffffffff1673ffffffffffffffffffffffffffffffffffffffff16815260200160028201548152602001600382015481526020016004820154815250509050919050565b600115156002600084815260200190815260200160002060070160009054906101000a900460ff16151514611007576040517f08c379a0000000000000000000000000000000000000000000000000000000008152600401610ffe9061304f565b60405180910390fd5b3373ffffffffffffffffffffffffffffffffffffffff166002600084815260200190815260200160002060010160009054906101000a900473ffffffffffffffffffffffffffffffffffffffff1673ffffffffffffffffffffffffffffffffffffffff16146110ab576040517f08c379a00000000000000000000000000000000000000000000000000000000081526004016110a2906130bb565b60405180910390fd5b600060026000848152602001908152602001600020600601805490509050600060026000858152602001908152602001600020600401549050600060646005836110f591906130db565b6110ff919061314c565b9050808261110d919061317d565b915060008054906101000a900473ffffffffffffffffffffffffffffffffffffffff1673ffffffffffffffffffffffffffffffffffffffff166108fc829081150290604051600060405180830381858888f19350505050158015611175573d6000803e3d6000fd5b5060005b83811015611886578460016000600260008a815260200190815260200160002060060184815481106111ae576111ad612f23565b5b9060005260206000200154815260200190815260200160002060040154036113955760006112416002600089815260200190815260200160002060060183815481106111fd576111fc612f23565b5b906000526020600020015485600260008b8152602001908152602001600020600501898154811061123157611230612f23565b5b9060005260206000200154612391565b905060016000600260008a8152602001908152602001600020600601848154811061126f5761126e612f23565b5b9060005260206000200154815260200190815260200160002060010160009054906101000a900473ffffffffffffffffffffffffffffffffffffffff1673ffffffffffffffffffffffffffffffffffffffff166108fc829081150290604051600060405180830381858888f193505050501580156112f1573d6000803e3d6000fd5b507f7084f5476618d8e60b11ef0d7d3f06914655adb8793e28ff7f018d4c76d505d560016000600260008b8152602001908152602001600020600601858154811061133f5761133e612f23565b5b9060005260206000200154815260200190815260200160002060010160009054906101000a900473ffffffffffffffffffffffffffffffffffffffff168260405161138b9291906131b1565b60405180910390a1505b60005b6003600060016000600260008c815260200190815260200160002060060186815481106113c8576113c7612f23565b5b9060005260206000200154815260200190815260200160002060010160009054906101000a900473ffffffffffffffffffffffffffffffffffffffff1673ffffffffffffffffffffffffffffffffffffffff1673ffffffffffffffffffffffffffffffffffffffff168152602001908152602001600020600201805490508110156118785760026000888152602001908152602001600020600601828154811061147557611474612f23565b5b90600052602060002001546003600060016000600260008d815260200190815260200160002060060187815481106114b0576114af612f23565b5b9060005260206000200154815260200190815260200160002060010160009054906101000a900473ffffffffffffffffffffffffffffffffffffffff1673ffffffffffffffffffffffffffffffffffffffff1673ffffffffffffffffffffffffffffffffffffffff168152602001908152602001600020600201828154811061153c5761153b612f23565b5b90600052602060002001540361186b576003600060016000600260008c8152602001908152602001600020600601868154811061157c5761157b612f23565b5b9060005260206000200154815260200190815260200160002060010160009054906101000a900473ffffffffffffffffffffffffffffffffffffffff1673ffffffffffffffffffffffffffffffffffffffff1673ffffffffffffffffffffffffffffffffffffffff16815260200190815260200160002060020160016003600060016000600260008e8152602001908152602001600020600601888154811061162857611627612f23565b5b9060005260206000200154815260200190815260200160002060010160009054906101000a900473ffffffffffffffffffffffffffffffffffffffff1673ffffffffffffffffffffffffffffffffffffffff1673ffffffffffffffffffffffffffffffffffffffff168152602001908152602001600020600201805490506116b0919061317d565b815481106116c1576116c0612f23565b5b90600052602060002001546003600060016000600260008d815260200190815260200160002060060187815481106116fc576116fb612f23565b5b9060005260206000200154815260200190815260200160002060010160009054906101000a900473ffffffffffffffffffffffffffffffffffffffff1673ffffffffffffffffffffffffffffffffffffffff1673ffffffffffffffffffffffffffffffffffffffff168152602001908152602001600020600201828154811061178857611787612f23565b5b90600052602060002001819055506003600060016000600260008c815260200190815260200160002060060186815481106117c6576117c5612f23565b5b9060005260206000200154815260200190815260200160002060010160009054906101000a900473ffffffffffffffffffffffffffffffffffffffff1673ffffffffffffffffffffffffffffffffffffffff1673ffffffffffffffffffffffffffffffffffffffff1681526020019081526020016000206002018054806118505761184f6131da565b5b60019003818190600052602060002001600090559055611878565b8080600101915050611398565b508080600101915050611179565b505050505050565b60036020528060005260406000206000915090508060000154908060010160009054906101000a900473ffffffffffffffffffffffffffffffffffffffff16908060030154905083565b6118e061249e565b600460008373ffffffffffffffffffffffffffffffffffffffff1673ffffffffffffffffffffffffffffffffffffffff168152602001908152602001600020604051806080016040529081600082015481526020016001820160009054906101000a900473ffffffffffffffffffffffffffffffffffffffff1673ffffffffffffffffffffffffffffffffffffffff1673ffffffffffffffffffffffffffffffffffffffff168152602001600282018054806020026020016040519081016040528092919081815260200182805480156119d957602002820191906000526020600020905b8154815260200190600101908083116119c5575b505050505081526020016003820154815250509050919050565b6119fb6124dc565b6002600083815260200190815260200160002060405180610100016040529081600082015481526020016001820160009054906101000a900473ffffffffffffffffffffffffffffffffffffffff1673ffffffffffffffffffffffffffffffffffffffff1673ffffffffffffffffffffffffffffffffffffffff16815260200160028201548152602001600382015481526020016004820154815260200160058201805480602002602001604051908101604052809291908181526020018280548015611ae757602002820191906000526020600020905b815481526020019060010190808311611ad3575b5050505050815260200160068201805480602002602001604051908101604052809291908181526020018280548015611b3f57602002820191906000526020600020905b815481526020019060010190808311611b2b575b505050505081526020016007820160009054906101000a900460ff1615151515815250509050919050565b60008015156002600086815260200190815260200160002060070160009054906101000a900460ff16151514611bd5576040517f08c379a0000000000000000000000000000000000000000000000000000000008152600401611bcc90612e71565b60405180910390fd5b60026000858152602001908152602001600020600201548210158015611c11575060026000858152602001908152602001600020600301548211155b611c50576040517f08c379a0000000000000000000000000000000000000000000000000000000008152600401611c4790612f03565b60405180910390fd5b60006002600086815260200190815260200160002060060180549050905060006002600087815260200190815260200160002060040154905060006064600583611c9a91906130db565b611ca4919061314c565b90508082611cb2919061317d565b9150600082600260008a81526020019081526020016000206005018860ff1681548110611ce257611ce1612f23565b5b906000526020600020015487611cf8919061314c565b611d0291906130db565b9050809450505050509392505050565b6000600460003373ffffffffffffffffffffffffffffffffffffffff1673ffffffffffffffffffffffffffffffffffffffff1681526020019081526020016000206000015411611d97576040517f08c379a0000000000000000000000000000000000000000000000000000000008152600401611d8e9061327b565b60405180910390fd5b3373ffffffffffffffffffffffffffffffffffffffff166002600084815260200190815260200160002060010160009054906101000a900473ffffffffffffffffffffffffffffffffffffffff1673ffffffffffffffffffffffffffffffffffffffff1614611e3b576040517f08c379a0000000000000000000000000000000000000000000000000000000008152600401611e32906132e7565b60405180910390fd5b600015156002600084815260200190815260200160002060070160009054906101000a900460ff16151514611ea5576040517f08c379a0000000000000000000000000000000000000000000000000000000008152600401611e9c90612e71565b60405180910390fd5b60016002600084815260200190815260200160002060070160006101000a81548160ff021916908315150217905550611ede8282610f9d565b7f56fe9aa41f0884b06717b271b0b1b2eedc26fe9341fb37ab44d43e1f4405c98882336002600086815260200190815260200160002060040154604051611f27939291906128c8565b60405180910390a15050565b6000600460003373ffffffffffffffffffffffffffffffffffffffff1673ffffffffffffffffffffffffffffffffffffffff1681526020019081526020016000206000015411611fb8576040517f08c379a0000000000000000000000000000000000000000000000000000000008152600401611faf9061327b565b60405180910390fd5b60008411611ffb576040517f08c379a0000000000000000000000000000000000000000000000000000000008152600401611ff290613379565b60405180910390fd5b83831161203d576040517f08c379a00000000000000000000000000000000000000000000000000000000081526004016120349061340b565b60405180910390fd5b60006040518061010001604052808481526020013373ffffffffffffffffffffffffffffffffffffffff1681526020018681526020018581526020016000815260200160018461208d9190612d30565b67ffffffffffffffff8111156120a6576120a5612d64565b5b6040519080825280602002602001820160405280156120d45781602001602082028036833780820191505090505b508152602001600067ffffffffffffffff8111156120f5576120f4612d64565b5b6040519080825280602002602001820160405280156121235781602001602082028036833780820191505090505b50815260200160001515815250905080600260008581526020019081526020016000206000820151816000015560208201518160010160006101000a81548173ffffffffffffffffffffffffffffffffffffffff021916908373ffffffffffffffffffffffffffffffffffffffff16021790555060408201518160020155606082015181600301556080820151816004015560a08201518160050190805190602001906121d19291906123ce565b5060c08201518160060190805190602001906121ee9291906123ce565b5060e08201518160070160006101000a81548160ff021916908315150217905550905050600460003373ffffffffffffffffffffffffffffffffffffffff1673ffffffffffffffffffffffffffffffffffffffff1681526020019081526020016000206002018390806001815401808255809150506001900390600052602060002001600090919091909150557f4d946047a8fad903eae1a1ebbf75dc1667359f7ee49a61c577a4c6c70bdceb13833387876040516122b09493929190612f52565b60405180910390a15050505050565b600080600460008573ffffffffffffffffffffffffffffffffffffffff1673ffffffffffffffffffffffffffffffffffffffff16815260200190815260200160002060000154118015612316575060001515821515145b156123235782905061238b565b6000600360008573ffffffffffffffffffffffffffffffffffffffff1673ffffffffffffffffffffffffffffffffffffffff16815260200190815260200160002060000154118015612379575060011515821515145b156123865782905061238b565b600090505b92915050565b600080838360016000888152602001908152602001600020600201546123b7919061314c565b6123c191906130db565b9050809150509392505050565b82805482825590600052602060002090810192821561240a579160200282015b828111156124095782518255916020019190600101906123ee565b5b5090506124179190612539565b5090565b604051806080016040528060008152602001600073ffffffffffffffffffffffffffffffffffffffff16815260200160608152602001600081525090565b6040518060a0016040528060008152602001600073ffffffffffffffffffffffffffffffffffffffff1681526020016000815260200160008152602001600081525090565b604051806080016040528060008152602001600073ffffffffffffffffffffffffffffffffffffffff16815260200160608152602001600081525090565b60405180610100016040528060008152602001600073ffffffffffffffffffffffffffffffffffffffff16815260200160008152602001600081526020016000815260200160608152602001606081526020016000151581525090565b5b8082111561255257600081600090555060010161253a565b5090565b600080fd5b6000819050919050565b61256e8161255b565b811461257957600080fd5b50565b60008135905061258b81612565565b92915050565b600080604083850312156125a8576125a7612556565b5b60006125b68582860161257c565b92505060206125c78582860161257c565b9150509250929050565b6000602082840312156125e7576125e6612556565b5b60006125f58482850161257c565b91505092915050565b6126078161255b565b82525050565b600073ffffffffffffffffffffffffffffffffffffffff82169050919050565b60006126388261260d565b9050919050565b6126488161262d565b82525050565b60008115159050919050565b6126638161264e565b82525050565b600060c08201905061267e60008301896125fe565b61268b602083018861263f565b61269860408301876125fe565b6126a560608301866125fe565b6126b260808301856125fe565b6126bf60a083018461265a565b979650505050505050565b600060a0820190506126df60008301886125fe565b6126ec602083018761263f565b6126f960408301866125fe565b61270660608301856125fe565b61271360808301846125fe565b9695505050505050565b6127268161262d565b811461273157600080fd5b50565b6000813590506127438161271d565b92915050565b60006020828403121561275f5761275e612556565b5b600061276d84828501612734565b91505092915050565b61277f8161255b565b82525050565b61278e8161262d565b82525050565b600081519050919050565b600082825260208201905092915050565b6000819050602082019050919050565b60006127cc8383612776565b60208301905092915050565b6000602082019050919050565b60006127f082612794565b6127fa818561279f565b9350612805836127b0565b8060005b8381101561283657815161281d88826127c0565b9750612828836127d8565b925050600181019050612809565b5085935050505092915050565b600060808301600083015161285b6000860182612776565b50602083015161286e6020860182612785565b506040830151848203604086015261288682826127e5565b915050606083015161289b6060860182612776565b508091505092915050565b600060208201905081810360008301526128c08184612843565b905092915050565b60006060820190506128dd60008301866125fe565b6128ea602083018561263f565b6128f760408301846125fe565b949350505050565b6000602082019050612914600083018461263f565b92915050565b60a0820160008201516129306000850182612776565b5060208201516129436020850182612785565b5060408201516129566040850182612776565b5060608201516129696060850182612776565b50608082015161297c6080850182612776565b50505050565b600060a082019050612997600083018461291a565b92915050565b60006080830160008301516129b56000860182612776565b5060208301516129c86020860182612785565b50604083015184820360408601526129e082826127e5565b91505060608301516129f56060860182612776565b508091505092915050565b60006020820190508181036000830152612a1a818461299d565b905092915050565b612a2b8161264e565b82525050565b600061010083016000830151612a4a6000860182612776565b506020830151612a5d6020860182612785565b506040830151612a706040860182612776565b506060830151612a836060860182612776565b506080830151612a966080860182612776565b5060a083015184820360a0860152612aae82826127e5565b91505060c083015184820360c0860152612ac882826127e5565b91505060e0830151612add60e0860182612a22565b508091505092915050565b60006020820190508181036000830152612b028184612a31565b905092915050565b600060ff82169050919050565b612b2081612b0a565b8114612b2b57600080fd5b50565b600081359050612b3d81612b17565b92915050565b600080600060608486031215612b5c57612b5b612556565b5b6000612b6a8682870161257c565b9350506020612b7b86828701612b2e565b9250506040612b8c8682870161257c565b9150509250925092565b6000602082019050612bab60008301846125fe565b92915050565b60008060008060808587031215612bcb57612bca612556565b5b6000612bd98782880161257c565b9450506020612bea8782880161257c565b9350506040612bfb8782880161257c565b9250506060612c0c8782880161257c565b91505092959194509250565b612c218161264e565b8114612c2c57600080fd5b50565b600081359050612c3e81612c18565b92915050565b60008060408385031215612c5b57612c5a612556565b5b6000612c6985828601612734565b9250506020612c7a85828601612c2f565b9150509250929050565b600082825260208201905092915050565b7f416c726561647920726567697374657265642061732053656c6c657200000000600082015250565b6000612ccb601c83612c84565b9150612cd682612c95565b602082019050919050565b60006020820190508181036000830152612cfa81612cbe565b9050919050565b7f4e487b7100000000000000000000000000000000000000000000000000000000600052601160045260246000fd5b6000612d3b8261255b565b9150612d468361255b565b9250828201905080821115612d5e57612d5d612d01565b5b92915050565b7f4e487b7100000000000000000000000000000000000000000000000000000000600052604160045260246000fd5b7f4f6e6c792042757965722063616e2063616c6c20746869732066756e6374696f60008201527f6e00000000000000000000000000000000000000000000000000000000000000602082015250565b6000612def602183612c84565b9150612dfa82612d93565b604082019050919050565b60006020820190508181036000830152612e1e81612de2565b9050919050565b7f5175697a20697320616c726561647920656e6465640000000000000000000000600082015250565b6000612e5b601583612c84565b9150612e6682612e25565b602082019050919050565b60006020820190508181036000830152612e8a81612e4e565b9050919050565b7f416d6f756e742073686f756c64206265206265747765656e206d696e20616e6460008201527f206d617820616d6f756e74000000000000000000000000000000000000000000602082015250565b6000612eed602b83612c84565b9150612ef882612e91565b604082019050919050565b60006020820190508181036000830152612f1c81612ee0565b9050919050565b7f4e487b7100000000000000000000000000000000000000000000000000000000600052603260045260246000fd5b6000608082019050612f6760008301876125fe565b612f74602083018661263f565b612f8160408301856125fe565b612f8e60608301846125fe565b95945050505050565b7f416c726561647920726567697374657265642061732042757965720000000000600082015250565b6000612fcd601b83612c84565b9150612fd882612f97565b602082019050919050565b60006020820190508181036000830152612ffc81612fc0565b9050919050565b7f5175697a206973206e6f7420656e646564207965740000000000000000000000600082015250565b6000613039601583612c84565b915061304482613003565b602082019050919050565b600060208201905081810360008301526130688161302c565b9050919050565b7f4f6e6c79206f776e65722063616e207472616e73666572207265776172647300600082015250565b60006130a5601f83612c84565b91506130b08261306f565b602082019050919050565b600060208201905081810360008301526130d481613098565b9050919050565b60006130e68261255b565b91506130f18361255b565b92508282026130ff8161255b565b9150828204841483151761311657613115612d01565b5b5092915050565b7f4e487b7100000000000000000000000000000000000000000000000000000000600052601260045260246000fd5b60006131578261255b565b91506131628361255b565b9250826131725761317161311d565b5b828204905092915050565b60006131888261255b565b91506131938361255b565b92508282039050818111156131ab576131aa612d01565b5b92915050565b60006040820190506131c6600083018561263f565b6131d360208301846125fe565b9392505050565b7f4e487b7100000000000000000000000000000000000000000000000000000000600052603160045260246000fd5b7f4f6e6c792053656c6c65722063616e2063616c6c20746869732066756e63746960008201527f6f6e000000000000000000000000000000000000000000000000000000000000602082015250565b6000613265602283612c84565b915061327082613209565b604082019050919050565b6000602082019050818103600083015261329481613258565b9050919050565b7f4f6e6c79206f776e65722063616e20656e6420746865207175697a0000000000600082015250565b60006132d1601b83612c84565b91506132dc8261329b565b602082019050919050565b60006020820190508181036000830152613300816132c4565b9050919050565b7f4d696e696d756d20616d6f756e742073686f756c64206265206772656174657260008201527f207468616e203000000000000000000000000000000000000000000000000000602082015250565b6000613363602783612c84565b915061336e82613307565b604082019050919050565b6000602082019050818103600083015261339281613356565b9050919050565b7f4d6178696d756d20616d6f756e742073686f756c64206265206772656174657260008201527f207468616e206d696e696d756d20616d6f756e74000000000000000000000000602082015250565b60006133f5603483612c84565b915061340082613399565b604082019050919050565b60006020820190508181036000830152613424816133e8565b905091905056fea26469706673582212208c613dd9f927d37f3c1cdd8ec6d418de2d74dce40d36a60ea294dc5fd1356e1e64736f6c634300081c0033",
  "linkReferences": {},
  "deployedLinkReferences": {}
}